{
  "contractName": "Bidnow",
  "abi": [
    {
      "inputs": [
        {
          "internalType": "address",
          "name": "_BQKContract",
          "type": "address"
        }
      ],
      "stateMutability": "nonpayable",
      "type": "constructor"
    },
    {
      "anonymous": false,
      "inputs": [
        {
          "indexed": false,
          "internalType": "uint256",
          "name": "uuid",
          "type": "uint256"
        },
        {
          "indexed": false,
          "internalType": "address",
          "name": "spender",
          "type": "address"
        },
        {
          "indexed": false,
          "internalType": "uint256",
          "name": "offeredPrice",
          "type": "uint256"
        }
      ],
      "name": "BiddingAuctionEvent",
      "type": "event"
    },
    {
      "anonymous": false,
      "inputs": [
        {
          "indexed": false,
          "internalType": "address",
          "name": "ownerOfAuction",
          "type": "address"
        },
        {
          "indexed": false,
          "internalType": "address",
          "name": "nftContract",
          "type": "address"
        },
        {
          "indexed": false,
          "internalType": "uint256",
          "name": "tokenId",
          "type": "uint256"
        },
        {
          "indexed": false,
          "internalType": "uint256",
          "name": "initialPrice",
          "type": "uint256"
        },
        {
          "indexed": false,
          "internalType": "uint256",
          "name": "openBiddingTime",
          "type": "uint256"
        },
        {
          "indexed": false,
          "internalType": "uint256",
          "name": "closeBiddingTime",
          "type": "uint256"
        },
        {
          "indexed": false,
          "internalType": "string",
          "name": "statusAuction",
          "type": "string"
        },
        {
          "indexed": false,
          "internalType": "uint256",
          "name": "transferAssetStatus",
          "type": "uint256"
        },
        {
          "indexed": false,
          "internalType": "uint256",
          "name": "uuid",
          "type": "uint256"
        }
      ],
      "name": "CancelingAuctionEvent",
      "type": "event"
    },
    {
      "anonymous": false,
      "inputs": [
        {
          "indexed": false,
          "internalType": "address",
          "name": "ownerOfAuction",
          "type": "address"
        },
        {
          "indexed": false,
          "internalType": "address",
          "name": "nftContract",
          "type": "address"
        },
        {
          "indexed": false,
          "internalType": "uint256",
          "name": "tokenId",
          "type": "uint256"
        },
        {
          "indexed": false,
          "internalType": "uint256",
          "name": "initialPrice",
          "type": "uint256"
        },
        {
          "indexed": false,
          "internalType": "uint256",
          "name": "openBiddingTime",
          "type": "uint256"
        },
        {
          "indexed": false,
          "internalType": "uint256",
          "name": "closeBiddingTime",
          "type": "uint256"
        },
        {
          "indexed": false,
          "internalType": "string",
          "name": "statusAuction",
          "type": "string"
        },
        {
          "indexed": false,
          "internalType": "uint256",
          "name": "transferAssetStatus",
          "type": "uint256"
        },
        {
          "indexed": false,
          "internalType": "uint256",
          "name": "uuid",
          "type": "uint256"
        }
      ],
      "name": "CreatingAuctionEvent",
      "type": "event"
    },
    {
      "anonymous": false,
      "inputs": [
        {
          "indexed": false,
          "internalType": "uint256",
          "name": "uuid",
          "type": "uint256"
        },
        {
          "indexed": false,
          "internalType": "uint256",
          "name": "transferAssetStatus",
          "type": "uint256"
        }
      ],
      "name": "TransferingAssetEvent",
      "type": "event"
    },
    {
      "anonymous": false,
      "inputs": [
        {
          "indexed": false,
          "internalType": "uint256",
          "name": "uuid",
          "type": "uint256"
        },
        {
          "indexed": false,
          "internalType": "string",
          "name": "statusAuction",
          "type": "string"
        }
      ],
      "name": "updatingStatusAuctionEvent",
      "type": "event"
    },
    {
      "inputs": [
        {
          "internalType": "address",
          "name": "nftContract",
          "type": "address"
        },
        {
          "internalType": "uint256",
          "name": "tokenId",
          "type": "uint256"
        },
        {
          "internalType": "uint256",
          "name": "initialPrice",
          "type": "uint256"
        },
        {
          "internalType": "uint256",
          "name": "openBiddingTime",
          "type": "uint256"
        },
        {
          "internalType": "uint256",
          "name": "closeBiddingTime",
          "type": "uint256"
        }
      ],
      "name": "createNewAuction",
      "outputs": [],
      "stateMutability": "payable",
      "type": "function",
      "payable": true
    },
    {
      "inputs": [
        {
          "internalType": "uint256",
          "name": "uuid",
          "type": "uint256"
        }
      ],
      "name": "CancelAuction",
      "outputs": [],
      "stateMutability": "nonpayable",
      "type": "function"
    },
    {
      "inputs": [
        {
          "internalType": "uint256",
          "name": "uuid",
          "type": "uint256"
        },
        {
          "internalType": "uint256",
          "name": "offeredPrice",
          "type": "uint256"
        }
      ],
      "name": "joinAuction",
      "outputs": [],
      "stateMutability": "payable",
      "type": "function",
      "payable": true
    },
    {
      "inputs": [
        {
          "internalType": "uint256",
          "name": "uuid",
          "type": "uint256"
        }
      ],
      "name": "transferAssetAfterAuctionEnd",
      "outputs": [],
      "stateMutability": "nonpayable",
      "type": "function"
    },
    {
      "inputs": [
        {
          "internalType": "uint256",
          "name": "uuid",
          "type": "uint256"
        }
      ],
      "name": "getTheWinnerOfAuction",
      "outputs": [
        {
          "components": [
            {
              "internalType": "address",
              "name": "bidderAddress",
              "type": "address"
            },
            {
              "internalType": "uint256",
              "name": "offeredPrice",
              "type": "uint256"
            }
          ],
          "internalType": "struct Bidnow.BidderInfor",
          "name": "",
          "type": "tuple"
        }
      ],
      "stateMutability": "view",
      "type": "function",
      "constant": true
    },
    {
      "inputs": [
        {
          "internalType": "uint256",
          "name": "uuid",
          "type": "uint256"
        },
        {
          "internalType": "uint256",
          "name": "openBiddingTime",
          "type": "uint256"
        },
        {
          "internalType": "uint256",
          "name": "closeBiddingTime",
          "type": "uint256"
        }
      ],
      "name": "setOpenBiddingTime",
      "outputs": [],
      "stateMutability": "view",
      "type": "function",
      "constant": true
    }
  ],
  "bytecode": "0x60806040523480156200001157600080fd5b506040516200306f3803806200306f8339818101604052810190620000379190620000e9565b80600160006101000a81548173ffffffffffffffffffffffffffffffffffffffff021916908373ffffffffffffffffffffffffffffffffffffffff160217905550506200011b565b600080fd5b600073ffffffffffffffffffffffffffffffffffffffff82169050919050565b6000620000b18262000084565b9050919050565b620000c381620000a4565b8114620000cf57600080fd5b50565b600081519050620000e381620000b8565b92915050565b6000602082840312156200010257620001016200007f565b5b60006200011284828501620000d2565b91505092915050565b612f44806200012b6000396000f3fe6080604052600436106100555760003560e01c80630dde4fe21461005a5780634e55264c14610076578063726b47da1461009f57806377ee1e1f146100dc578063bea0e66c14610105578063f08e6e761461012e575b600080fd5b610074600480360381019061006f9190611eaa565b61014a565b005b34801561008257600080fd5b5061009d60048036038101906100989190611f25565b6104b4565b005b3480156100ab57600080fd5b506100c660048036038101906100c19190611f25565b610847565b6040516100d39190611f9f565b60405180910390f35b3480156100e857600080fd5b5061010360048036038101906100fe9190611fba565b610a94565b005b34801561011157600080fd5b5061012c60048036038101906101279190611f25565b610ccf565b005b6101486004803603810190610143919061200d565b6112cc565b005b848433600083905060008173ffffffffffffffffffffffffffffffffffffffff16636352211e856040518263ffffffff1660e01b815260040161018d919061205c565b602060405180830381865afa1580156101aa573d6000803e3d6000fd5b505050506040513d601f19601f820116820180604052508101906101ce919061208c565b90508073ffffffffffffffffffffffffffffffffffffffff168373ffffffffffffffffffffffffffffffffffffffff161461023e576040517f08c379a00000000000000000000000000000000000000000000000000000000081526004016102359061213c565b60405180910390fd5b864210801561024c57508587105b61028b576040517f08c379a0000000000000000000000000000000000000000000000000000000008152600401610282906121a8565b60405180910390fd5b60006040518061010001604052803373ffffffffffffffffffffffffffffffffffffffff1681526020018c73ffffffffffffffffffffffffffffffffffffffff1681526020018b81526020018a8152602001898152602001888152602001600081526020016040518060400160405280601081526020017f5550434f4d494e475f41554354494f4e0000000000000000000000000000000081525081525090506000610336826119e1565b90506103428c8c611ae4565b3073ffffffffffffffffffffffffffffffffffffffff168c73ffffffffffffffffffffffffffffffffffffffff16636352211e8d6040518263ffffffff1660e01b8152600401610392919061205c565b602060405180830381865afa1580156103af573d6000803e3d6000fd5b505050506040513d601f19601f820116820180604052508101906103d3919061208c565b73ffffffffffffffffffffffffffffffffffffffff1614610429576040517f08c379a00000000000000000000000000000000000000000000000000000000081526004016104209061223a565b60405180910390fd5b7f4e9226da3237bc1788bd8d919d1fa0d9d18e602bfc8c6ccf83f306fcf6f9d9ba338d8d8d8d8d6040518060400160405280601081526020017f5550434f4d494e475f41554354494f4e0000000000000000000000000000000081525060008960405161049e999897969594939291906122e8565b60405180910390a1505050505050505050505050565b600060036000838152602001908152602001600020805480602002602001604051908101604052809291908181526020016000905b8282101561057b57838290600052602060002090600202016040518060400160405290816000820160009054906101000a900473ffffffffffffffffffffffffffffffffffffffff1673ffffffffffffffffffffffffffffffffffffffff1673ffffffffffffffffffffffffffffffffffffffff168152602001600182015481525050815260200190600101906104e9565b505050509050600061058c83610847565b90506002600084815260200190815260200160002060010160009054906101000a900473ffffffffffffffffffffffffffffffffffffffff1673ffffffffffffffffffffffffffffffffffffffff166323b872dd30836000015160026000888152602001908152602001600020600201546040518463ffffffff1660e01b815260040161061b9392919061237c565b600060405180830381600087803b15801561063557600080fd5b505af1158015610649573d6000803e3d6000fd5b505050506106a46002600085815260200190815260200160002060000160009054906101000a900473ffffffffffffffffffffffffffffffffffffffff16670de0b6b3a7640000836020015161069f91906123e2565b611c03565b60008251111561077e5760005b825181101561077c57816000015173ffffffffffffffffffffffffffffffffffffffff168382815181106106e8576106e7612424565b5b60200260200101516000015173ffffffffffffffffffffffffffffffffffffffff16146107695761076883828151811061072557610724612424565b5b602002602001015160000151670de0b6b3a764000085848151811061074d5761074c612424565b5b60200260200101516020015161076391906123e2565b611c03565b5b808061077490612453565b9150506106b1565b505b6040518060400160405280600d81526020017f454e4445445f41554354494f4e000000000000000000000000000000000000008152506002600085815260200190815260200160002060070190816107d691906126d6565b50600160026000858152602001908152602001600020600601819055507fc5ff0d3db2ab5b42eeea950e6049fb1d9c7e3405bdb011bb8e0f73f66ffd073683600260008681526020019081526020016000206006015460405161083a9291906127a8565b60405180910390a1505050565b61084f611de1565b600060036000848152602001908152602001600020805480602002602001604051908101604052809291908181526020016000905b8282101561091657838290600052602060002090600202016040518060400160405290816000820160009054906101000a900473ffffffffffffffffffffffffffffffffffffffff1673ffffffffffffffffffffffffffffffffffffffff1673ffffffffffffffffffffffffffffffffffffffff16815260200160018201548152505081526020019060010190610884565b50505050905060008151905060005b60018261093291906127d1565b811015610a635760005b8160018461094a91906127d1565b61095491906127d1565b811015610a4f57836001826109699190612805565b8151811061097a57610979612424565b5b60200260200101516020015184828151811061099957610998612424565b5b6020026020010151602001511115610a3c5760008482815181106109c0576109bf612424565b5b60200260200101519050846001836109d89190612805565b815181106109e9576109e8612424565b5b6020026020010151858381518110610a0457610a03612424565b5b60200260200101819052508085600184610a1e9190612805565b81518110610a2f57610a2e612424565b5b6020026020010181905250505b8080610a4790612453565b91505061093c565b508080610a5b90612453565b915050610925565b5081600182610a7291906127d1565b81518110610a8357610a82612424565b5b602002602001015192505050919050565b808210610ad6576040517f08c379a0000000000000000000000000000000000000000000000000000000008152600401610acd90612885565b60405180910390fd5b600060026000858152602001908152602001600020604051806101000160405290816000820160009054906101000a900473ffffffffffffffffffffffffffffffffffffffff1673ffffffffffffffffffffffffffffffffffffffff1673ffffffffffffffffffffffffffffffffffffffff1681526020016001820160009054906101000a900473ffffffffffffffffffffffffffffffffffffffff1673ffffffffffffffffffffffffffffffffffffffff1673ffffffffffffffffffffffffffffffffffffffff1681526020016002820154815260200160038201548152602001600482015481526020016005820154815260200160068201548152602001600782018054610be5906124f9565b80601f0160208091040260200160405190810160405280929190818152602001828054610c11906124f9565b8015610c5e5780601f10610c3357610100808354040283529160200191610c5e565b820191906000526020600020905b815481529060010190602001808311610c4157829003601f168201915b5050505050815250509050600042905080826080015111610cb4576040517f08c379a0000000000000000000000000000000000000000000000000000000008152600401610cab90612917565b60405180910390fd5b83826080018181525050828260a00181815250505050505050565b600060026000838152602001908152602001600020604051806101000160405290816000820160009054906101000a900473ffffffffffffffffffffffffffffffffffffffff1673ffffffffffffffffffffffffffffffffffffffff1673ffffffffffffffffffffffffffffffffffffffff1681526020016001820160009054906101000a900473ffffffffffffffffffffffffffffffffffffffff1673ffffffffffffffffffffffffffffffffffffffff1673ffffffffffffffffffffffffffffffffffffffff1681526020016002820154815260200160038201548152602001600482015481526020016005820154815260200160068201548152602001600782018054610dde906124f9565b80601f0160208091040260200160405190810160405280929190818152602001828054610e0a906124f9565b8015610e575780601f10610e2c57610100808354040283529160200191610e57565b820191906000526020600020905b815481529060010190602001808311610e3a57829003601f168201915b5050505050815250509050806020015173ffffffffffffffffffffffffffffffffffffffff16636352211e82604001516040518263ffffffff1660e01b8152600401610ea3919061205c565b602060405180830381865afa158015610ec0573d6000803e3d6000fd5b505050506040513d601f19601f82011682018060405250810190610ee4919061208c565b73ffffffffffffffffffffffffffffffffffffffff16816000015173ffffffffffffffffffffffffffffffffffffffff1614610f55576040517f08c379a0000000000000000000000000000000000000000000000000000000008152600401610f4c90612983565b60405180910390fd5b610e108160a00151610f6791906127d1565b4210610fa8576040517f08c379a0000000000000000000000000000000000000000000000000000000008152600401610f9f90612a15565b60405180910390fd5b6040518060400160405280600e81526020017f4143544956455f41554354494f4e000000000000000000000000000000000000815250604051602001610fee9190612a71565b604051602081830303815290604052805190602001208160e001516040516020016110199190612a71565b604051602081830303815290604052805190602001200361120257806020015173ffffffffffffffffffffffffffffffffffffffff166323b872dd30836000015184604001516040518463ffffffff1660e01b815260040161107d9392919061237c565b600060405180830381600087803b15801561109757600080fd5b505af11580156110ab573d6000803e3d6000fd5b50505050600060036000848152602001908152602001600020805480602002602001604051908101604052809291908181526020016000905b8282101561117657838290600052602060002090600202016040518060400160405290816000820160009054906101000a900473ffffffffffffffffffffffffffffffffffffffff1673ffffffffffffffffffffffffffffffffffffffff1673ffffffffffffffffffffffffffffffffffffffff168152602001600182015481525050815260200190600101906110e4565b5050505090506000815111156112005760005b81518110156111fe576111eb8282815181106111a8576111a7612424565b5b602002602001015160000151670de0b6b3a76400008484815181106111d0576111cf612424565b5b6020026020010151602001516111e691906123e2565b611c03565b80806111f690612453565b915050611189565b505b505b600081608001818152505060018160a00181815250506040518060400160405280600d81526020017f454e4445445f41554354494f4e000000000000000000000000000000000000008152508160e0018190525060018160c00181815250507f917bb0054e26c59b1b48464a846619f6186e0a245dcc4f26bb813f3dca3af2fc816000015182602001518360400151846060015185608001518660a001518760e001518860c001518a6040516112c0999897969594939291906122e8565b60405180910390a15050565b81600073ffffffffffffffffffffffffffffffffffffffff166002600083815260200190815260200160002060000160009054906101000a900473ffffffffffffffffffffffffffffffffffffffff1673ffffffffffffffffffffffffffffffffffffffff1603611372576040517f08c379a000000000000000000000000000000000000000000000000000000000815260040161136990612afa565b60405180910390fd5b600060026000838152602001908152602001600020604051806101000160405290816000820160009054906101000a900473ffffffffffffffffffffffffffffffffffffffff1673ffffffffffffffffffffffffffffffffffffffff1673ffffffffffffffffffffffffffffffffffffffff1681526020016001820160009054906101000a900473ffffffffffffffffffffffffffffffffffffffff1673ffffffffffffffffffffffffffffffffffffffff1673ffffffffffffffffffffffffffffffffffffffff1681526020016002820154815260200160038201548152602001600482015481526020016005820154815260200160068201548152602001600782018054611481906124f9565b80601f01602080910402602001604051908101604052809291908181526020018280546114ad906124f9565b80156114fa5780601f106114cf576101008083540402835291602001916114fa565b820191906000526020600020905b8154815290600101906020018083116114dd57829003601f168201915b505050505081525050905060008160800151905060008260a0015190506000429050828111801561152a57508181105b611569576040517f08c379a000000000000000000000000000000000000000000000000000000000815260040161156090612b8c565b60405180910390fd5b600060026000898152602001908152602001600020604051806101000160405290816000820160009054906101000a900473ffffffffffffffffffffffffffffffffffffffff1673ffffffffffffffffffffffffffffffffffffffff1673ffffffffffffffffffffffffffffffffffffffff1681526020016001820160009054906101000a900473ffffffffffffffffffffffffffffffffffffffff1673ffffffffffffffffffffffffffffffffffffffff1673ffffffffffffffffffffffffffffffffffffffff1681526020016002820154815260200160038201548152602001600482015481526020016005820154815260200160068201548152602001600782018054611678906124f9565b80601f01602080910402602001604051908101604052809291908181526020018280546116a4906124f9565b80156116f15780601f106116c6576101008083540402835291602001916116f1565b820191906000526020600020905b8154815290600101906020018083116116d457829003601f168201915b505050505081525050905080606001518711611742576040517f08c379a000000000000000000000000000000000000000000000000000000000815260040161173990612bf8565b60405180910390fd5b6000600160009054906101000a900473ffffffffffffffffffffffffffffffffffffffff1673ffffffffffffffffffffffffffffffffffffffff166370a08231336040518263ffffffff1660e01b815260040161179f9190612c18565b602060405180830381865afa1580156117bc573d6000803e3d6000fd5b505050506040513d601f19601f820116820180604052508101906117e09190612c48565b905087811015611825576040517f08c379a000000000000000000000000000000000000000000000000000000000815260040161181c90612ce7565b60405180910390fd5b600160009054906101000a900473ffffffffffffffffffffffffffffffffffffffff1673ffffffffffffffffffffffffffffffffffffffff166323b872dd3330670de0b6b3a76400008c61187991906123e2565b6040518463ffffffff1660e01b81526004016118979392919061237c565b6020604051808303816000875af11580156118b6573d6000803e3d6000fd5b505050506040513d601f19601f820116820180604052508101906118da9190612d3f565b50600060405180604001604052803373ffffffffffffffffffffffffffffffffffffffff1681526020018a8152509050600360008b815260200190815260200160002081908060018154018082558091505060019003906000526020600020906002020160009091909190915060008201518160000160006101000a81548173ffffffffffffffffffffffffffffffffffffffff021916908373ffffffffffffffffffffffffffffffffffffffff1602179055506020820151816001015550507fce0a64f44484f19bbad8f8b109f06afe7c3fcefceb09a88591fe94a62cf061188a338b6040516119cd93929190612d6c565b60405180910390a150505050505050505050565b6000806119ec611ca8565b9050826002600083815260200190815260200160002060008201518160000160006101000a81548173ffffffffffffffffffffffffffffffffffffffff021916908373ffffffffffffffffffffffffffffffffffffffff16021790555060208201518160010160006101000a81548173ffffffffffffffffffffffffffffffffffffffff021916908373ffffffffffffffffffffffffffffffffffffffff16021790555060408201518160020155606082015181600301556080820151816004015560a0820151816005015560c0820151816006015560e0820151816007019081611ad791906126d6565b5090505080915050919050565b600160009054906101000a900473ffffffffffffffffffffffffffffffffffffffff1673ffffffffffffffffffffffffffffffffffffffff166323b872dd333068056bc75e2d631000006040518463ffffffff1660e01b8152600401611b4c9392919061237c565b6020604051808303816000875af1158015611b6b573d6000803e3d6000fd5b505050506040513d601f19601f82011682018060405250810190611b8f9190612d3f565b508173ffffffffffffffffffffffffffffffffffffffff166323b872dd3330846040518463ffffffff1660e01b8152600401611bcd9392919061237c565b600060405180830381600087803b158015611be757600080fd5b505af1158015611bfb573d6000803e3d6000fd5b505050505050565b600160009054906101000a900473ffffffffffffffffffffffffffffffffffffffff1673ffffffffffffffffffffffffffffffffffffffff1663a9059cbb83836040518363ffffffff1660e01b8152600401611c60929190612da3565b6020604051808303816000875af1158015611c7f573d6000803e3d6000fd5b505050506040513d601f19601f82011682018060405250810190611ca39190612d3f565b505050565b60008042600143611cb991906127d1565b4033600454604051602001611cd19493929190612e60565b6040516020818303038152906040528051906020012060001c90506000620f424082611cfd9190612edd565b90505b6005600082815260200190815260200160002060009054906101000a900460ff1615611d955760046000815480929190611d3990612453565b919050555042600143611d4c91906127d1565b4033600454604051602001611d649493929190612e60565b6040516020818303038152906040528051906020012060001c9150620f424082611d8e9190612edd565b9050611d00565b60016005600083815260200190815260200160002060006101000a81548160ff02191690831515021790555060046000815480929190611dd490612453565b9190505550809250505090565b6040518060400160405280600073ffffffffffffffffffffffffffffffffffffffff168152602001600081525090565b600080fd5b600073ffffffffffffffffffffffffffffffffffffffff82169050919050565b6000611e4182611e16565b9050919050565b611e5181611e36565b8114611e5c57600080fd5b50565b600081359050611e6e81611e48565b92915050565b6000819050919050565b611e8781611e74565b8114611e9257600080fd5b50565b600081359050611ea481611e7e565b92915050565b600080600080600060a08688031215611ec657611ec5611e11565b5b6000611ed488828901611e5f565b9550506020611ee588828901611e95565b9450506040611ef688828901611e95565b9350506060611f0788828901611e95565b9250506080611f1888828901611e95565b9150509295509295909350565b600060208284031215611f3b57611f3a611e11565b5b6000611f4984828501611e95565b91505092915050565b611f5b81611e36565b82525050565b611f6a81611e74565b82525050565b604082016000820151611f866000850182611f52565b506020820151611f996020850182611f61565b50505050565b6000604082019050611fb46000830184611f70565b92915050565b600080600060608486031215611fd357611fd2611e11565b5b6000611fe186828701611e95565b9350506020611ff286828701611e95565b925050604061200386828701611e95565b9150509250925092565b6000806040838503121561202457612023611e11565b5b600061203285828601611e95565b925050602061204385828601611e95565b9150509250929050565b61205681611e74565b82525050565b6000602082019050612071600083018461204d565b92915050565b60008151905061208681611e48565b92915050565b6000602082840312156120a2576120a1611e11565b5b60006120b084828501612077565b91505092915050565b600082825260208201905092915050565b7f546865207370656e646572206973206e6f74206f776e6572206f66207468697360008201527f204e465421212100000000000000000000000000000000000000000000000000602082015250565b60006121266027836120b9565b9150612131826120ca565b604082019050919050565b6000602082019050818103600083015261215581612119565b9050919050565b7f53657474696e672074696d6520697320696e76616c6964210000000000000000600082015250565b60006121926018836120b9565b915061219d8261215c565b602082019050919050565b600060208201905081810360008301526121c181612185565b9050919050565b7f4661696c656420746f207472616e73666572204e46542066726f6d206d73672e60008201527f73656e64657220746f20736d61727420636f6e74726163740000000000000000602082015250565b60006122246038836120b9565b915061222f826121c8565b604082019050919050565b6000602082019050818103600083015261225381612217565b9050919050565b61226381611e36565b82525050565b600081519050919050565b60005b83811015612292578082015181840152602081019050612277565b60008484015250505050565b6000601f19601f8301169050919050565b60006122ba82612269565b6122c481856120b9565b93506122d4818560208601612274565b6122dd8161229e565b840191505092915050565b6000610120820190506122fe600083018c61225a565b61230b602083018b61225a565b612318604083018a61204d565b612325606083018961204d565b612332608083018861204d565b61233f60a083018761204d565b81810360c083015261235181866122af565b905061236060e083018561204d565b61236e61010083018461204d565b9a9950505050505050505050565b6000606082019050612391600083018661225a565b61239e602083018561225a565b6123ab604083018461204d565b949350505050565b7f4e487b7100000000000000000000000000000000000000000000000000000000600052601160045260246000fd5b60006123ed82611e74565b91506123f883611e74565b925082820261240681611e74565b9150828204841483151761241d5761241c6123b3565b5b5092915050565b7f4e487b7100000000000000000000000000000000000000000000000000000000600052603260045260246000fd5b600061245e82611e74565b91507fffffffffffffffffffffffffffffffffffffffffffffffffffffffffffffffff82036124905761248f6123b3565b5b600182019050919050565b7f4e487b7100000000000000000000000000000000000000000000000000000000600052604160045260246000fd5b7f4e487b7100000000000000000000000000000000000000000000000000000000600052602260045260246000fd5b6000600282049050600182168061251157607f821691505b602082108103612524576125236124ca565b5b50919050565b60008190508160005260206000209050919050565b60006020601f8301049050919050565b600082821b905092915050565b60006008830261258c7fffffffffffffffffffffffffffffffffffffffffffffffffffffffffffffffff8261254f565b612596868361254f565b95508019841693508086168417925050509392505050565b6000819050919050565b60006125d36125ce6125c984611e74565b6125ae565b611e74565b9050919050565b6000819050919050565b6125ed836125b8565b6126016125f9826125da565b84845461255c565b825550505050565b600090565b612616612609565b6126218184846125e4565b505050565b5b818110156126455761263a60008261260e565b600181019050612627565b5050565b601f82111561268a5761265b8161252a565b6126648461253f565b81016020851015612673578190505b61268761267f8561253f565b830182612626565b50505b505050565b600082821c905092915050565b60006126ad6000198460080261268f565b1980831691505092915050565b60006126c6838361269c565b9150826002028217905092915050565b6126df82612269565b67ffffffffffffffff8111156126f8576126f761249b565b5b61270282546124f9565b61270d828285612649565b600060209050601f831160018114612740576000841561272e578287015190505b61273885826126ba565b8655506127a0565b601f19841661274e8661252a565b60005b8281101561277657848901518255600182019150602085019450602081019050612751565b86831015612793578489015161278f601f89168261269c565b8355505b6001600288020188555050505b505050505050565b60006040820190506127bd600083018561204d565b6127ca602083018461204d565b9392505050565b60006127dc82611e74565b91506127e783611e74565b92508282039050818111156127ff576127fe6123b3565b5b92915050565b600061281082611e74565b915061281b83611e74565b9250828201905080821115612833576128326123b3565b5b92915050565b7f696e76616c69642074696d652100000000000000000000000000000000000000600082015250565b600061286f600d836120b9565b915061287a82612839565b602082019050919050565b6000602082019050818103600083015261289e81612862565b9050919050565b7f696e76616c69642074696d6520746f207365744f70656e62696464696e67546960008201527f6d65210000000000000000000000000000000000000000000000000000000000602082015250565b60006129016023836120b9565b915061290c826128a5565b604082019050919050565b60006020820190508181036000830152612930816128f4565b9050919050565b7f4f776e6572206f662041756374696f6e20696420696e76616c69642100000000600082015250565b600061296d601c836120b9565b915061297882612937565b602082019050919050565b6000602082019050818103600083015261299c81612960565b9050919050565b7f43616e206e6f742063616c63656c2061756374696f6e2e20426563617573652060008201527f74696d65206973206f7665722100000000000000000000000000000000000000602082015250565b60006129ff602d836120b9565b9150612a0a826129a3565b604082019050919050565b60006020820190508181036000830152612a2e816129f2565b9050919050565b600081905092915050565b6000612a4b82612269565b612a558185612a35565b9350612a65818560208601612274565b80840191505092915050565b6000612a7d8284612a40565b915081905092915050565b7f41756374696f6e20776974682074686973205555494420646f6573206e6f742060008201527f6578697374000000000000000000000000000000000000000000000000000000602082015250565b6000612ae46025836120b9565b9150612aef82612a88565b604082019050919050565b60006020820190508181036000830152612b1381612ad7565b9050919050565b7f54696d65204f76657221212120506c6561736520636865636b696e672041756360008201527f74696f6e207363686564756c6520616761696e21000000000000000000000000602082015250565b6000612b766034836120b9565b9150612b8182612b1a565b604082019050919050565b60006020820190508181036000830152612ba581612b69565b9050919050565b7f4f66666572656420507269636520697320696e76616c69642121210000000000600082015250565b6000612be2601b836120b9565b9150612bed82612bac565b602082019050919050565b60006020820190508181036000830152612c1181612bd5565b9050919050565b6000602082019050612c2d600083018461225a565b92915050565b600081519050612c4281611e7e565b92915050565b600060208284031215612c5e57612c5d611e11565b5b6000612c6c84828501612c33565b91505092915050565b7f57616c6c65742061646472657373206973206e6f7420656e6f7567682042514b60008201527f20746f6b656e20746f2062696421000000000000000000000000000000000000602082015250565b6000612cd1602e836120b9565b9150612cdc82612c75565b604082019050919050565b60006020820190508181036000830152612d0081612cc4565b9050919050565b60008115159050919050565b612d1c81612d07565b8114612d2757600080fd5b50565b600081519050612d3981612d13565b92915050565b600060208284031215612d5557612d54611e11565b5b6000612d6384828501612d2a565b91505092915050565b6000606082019050612d81600083018661204d565b612d8e602083018561225a565b612d9b604083018461204d565b949350505050565b6000604082019050612db8600083018561225a565b612dc5602083018461204d565b9392505050565b6000819050919050565b612de7612de282611e74565b612dcc565b82525050565b6000819050919050565b6000819050919050565b612e12612e0d82612ded565b612df7565b82525050565b60008160601b9050919050565b6000612e3082612e18565b9050919050565b6000612e4282612e25565b9050919050565b612e5a612e5582611e36565b612e37565b82525050565b6000612e6c8287612dd6565b602082019150612e7c8286612e01565b602082019150612e8c8285612e49565b601482019150612e9c8284612dd6565b60208201915081905095945050505050565b7f4e487b7100000000000000000000000000000000000000000000000000000000600052601260045260246000fd5b6000612ee882611e74565b9150612ef383611e74565b925082612f0357612f02612eae565b5b82820690509291505056fea26469706673582212200f2c11d2978dede8cc7cf5d962eb13ff10061b86e4e67e6949dc5f35126484b764736f6c63430008130033",
  "immutableReferences": {},
  "source": "// SPDX-License-Identifier: MITaddress(thisaddress(this\r\npragma solidity ^0.8.9;\r\n\r\nimport \"@openzeppelin/contracts/token/ERC20/ERC20.sol\";\r\nimport \"@openzeppelin/contracts/token/ERC20/IERC20.sol\";\r\nimport \"@openzeppelin/contracts/token/ERC721/IERC721.sol\";\r\nimport \"@openzeppelin/contracts/utils/Strings.sol\";\r\nimport \"@openzeppelin/contracts/utils/structs/EnumerableMap.sol\";\r\n\r\ncontract Bidnow {\r\n\r\n    /**\r\n    ====================================================================================================================================================\r\n        Default variables\r\n    ====================================================================================================================================================\r\n     */\r\n    \r\n    address private ownerBidNowContract;\r\n\r\n    address private BQKContract;\r\n\r\n    uint256 private constant LISTING_FREE = 100000000000000000000; // 100 BQR token\r\n\r\n    uint256 private constant NOT_TRANSFER_ASSET = 0;\r\n\r\n    uint256 private constant ALREADY_TRANSFER_ASSET = 1;\r\n\r\n    string private constant UPCOMING_AUCTION_STATUS = \"UPCOMING_AUCTION\";\r\n\r\n    string private constant ACTIVE_AUCTION_STATUS = \"ACTIVE_AUCTION\";\r\n\r\n    string private constant ENDED_AUCTION_STATUS = \"ENDED_AUCTION\";\r\n\r\n    /**\r\n    ====================================================================================================================================================\r\n        Constructor\r\n    ====================================================================================================================================================\r\n     */\r\n\r\n    constructor(\r\n        address _BQKContract\r\n    ) {\r\n        BQKContract = _BQKContract;\r\n    }\r\n\r\n\r\n    /**\r\n    ====================================================================================================================================================\r\n        Auction struct and list Auction\r\n    ====================================================================================================================================================\r\n     */\r\n     \r\n    // Auction struct\r\n    struct Auction {\r\n        address ownerAuction;\r\n        address nftContract;\r\n        uint256 tokenId;\r\n        uint256 initialPrice;\r\n        uint256 openBiddingTime;\r\n        uint256 closeBiddingTime;\r\n        uint256 transferAssetStatus;\r\n        string statusAuction;\r\n    }\r\n\r\n    /**\r\n    ====================================================================================================================================================\r\n        Mapping \r\n    ====================================================================================================================================================\r\n     */\r\n\r\n    // a uuid to manage an Auction\r\n    mapping(uint256 => Auction) private uuidToAuction;\r\n\r\n    // this mapping to manage a list contains address and offered price of bidder each bidding time.\r\n    mapping(uint256 => BidderInfor[]) private uuidToListBidderInfo;\r\n\r\n    /**\r\n    ====================================================================================================================================================\r\n        CreateNewAuction function\r\n    ====================================================================================================================================================\r\n     */\r\n\r\n    // Any bidder has NFT can call this function to list an auction on BidNow Dapp\r\n    function createNewAuction(\r\n        address nftContract,\r\n        uint256 tokenId,\r\n        uint256 initialPrice,\r\n        uint256 openBiddingTime,\r\n        uint256 closeBiddingTime \r\n    ) \r\n    public payable\r\n    isOwnerOfNFT(nftContract, tokenId, msg.sender)\r\n    {\r\n        // checking openBiddingTime and closeBiddingTime are valid\r\n        require((block.timestamp < openBiddingTime) && (openBiddingTime < closeBiddingTime), \"Setting time is invalid!\");\r\n\r\n        // create a new auction\r\n        Auction memory auction = Auction(\r\n                            msg.sender,\r\n                            nftContract,\r\n                            tokenId,\r\n                            initialPrice,\r\n                            openBiddingTime,\r\n                            closeBiddingTime,\r\n                            NOT_TRANSFER_ASSET,\r\n                            UPCOMING_AUCTION_STATUS\r\n                        );\r\n\r\n        // call assignDataToBlockchain function\r\n        uint256 uuid = assignDataToBlockchain(auction);\r\n\r\n        // execute transfer asset\r\n        executeTransfer(nftContract, tokenId);   \r\n\r\n        // checking that send NFT is succeed?\r\n        require(\r\n            IERC721(nftContract).ownerOf(tokenId) == address(this), \r\n            \"Failed to transfer NFT from msg.sender to smart contract\"\r\n        );\r\n\r\n        // emit \r\n        emit CreatingAuctionEvent(\r\n            msg.sender,\r\n            nftContract,\r\n            tokenId,\r\n            initialPrice,\r\n            openBiddingTime,\r\n            closeBiddingTime,\r\n            UPCOMING_AUCTION_STATUS,\r\n            NOT_TRANSFER_ASSET,\r\n            uuid\r\n        );\r\n    }\r\n\r\n\r\n    // execute transfer function\r\n    function executeTransfer(address nftContract, uint256 tokenId) internal {\r\n        // nft owner purchase LISTING_FEE\r\n        IERC20(BQKContract).transferFrom(\r\n            msg.sender,\r\n            address(this),\r\n            LISTING_FREE\r\n        );\r\n\r\n        // send NFT from msg.sender (owner wallet) to smart contract\r\n        IERC721(nftContract).transferFrom(\r\n            msg.sender,\r\n            address(this),\r\n            tokenId\r\n        );\r\n    }\r\n\r\n    // assign data function\r\n    function assignDataToBlockchain(Auction memory auction) internal returns(uint256) {\r\n        // Assign a new auction to uuid\r\n        uint256 uuid = getUniqueNumber();\r\n        uuidToAuction[uuid] = auction;\r\n\r\n        return uuid;\r\n    }\r\n\r\n    // this function to get a number as uuid \r\n    uint256 counter;\r\n    mapping(uint256 => bool) usedValues;\r\n\r\n    function getUniqueNumber() internal returns(uint256 uuid) {\r\n        uint256 randomValue = uint256(keccak256(abi.encodePacked(block.timestamp, blockhash(block.number - 1), msg.sender, counter)));\r\n        uint256 uniqueNumber = randomValue % 1000000; // limit to 6 digits\r\n\r\n        while (usedValues[uniqueNumber]) {\r\n            counter++;\r\n            randomValue = uint256(keccak256(abi.encodePacked(block.timestamp, blockhash(block.number - 1), msg.sender, counter)));\r\n            uniqueNumber = randomValue % 1000000;\r\n        }\r\n\r\n        usedValues[uniqueNumber] = true;\r\n        counter++;\r\n        return uniqueNumber;\r\n    }\r\n\r\n\r\n    /**\r\n    ====================================================================================================================================================\r\n        CancelAuction function\r\n    ====================================================================================================================================================\r\n     */\r\n    // this function to calcel an auction\r\n    function CancelAuction(\r\n        uint256 uuid\r\n    ) \r\n    public\r\n    {\r\n        Auction memory auction = uuidToAuction[uuid];\r\n        // checking msg.sender is owner of the auction which is canceled\r\n        require(auction.ownerAuction == IERC721(auction.nftContract).ownerOf(auction.tokenId), \"Owner of Auction id invalid!\");\r\n\r\n        // checking time valid to calcel. Must calceling before 1 hour = 3600 second\r\n        require(block.timestamp < auction.closeBiddingTime - 3600, \"Can not calcel auction. Because time is over!\");\r\n\r\n        /**\r\n        execute logic code: re-send nft to owner, re-send BQK token to bidders is only for active auction\r\n         */\r\n\r\n        if(keccak256(abi.encodePacked(auction.statusAuction)) == keccak256(abi.encodePacked(ACTIVE_AUCTION_STATUS))) {\r\n            // re-send nft to owner of auction\r\n            IERC721(auction.nftContract).transferFrom(\r\n                address(this),\r\n                auction.ownerAuction,\r\n                auction.tokenId\r\n            );\r\n\r\n            // get list bidder and re-send token to all \r\n            BidderInfor[] memory bidderInforList = uuidToListBidderInfo[uuid];\r\n\r\n            // return BQK token to other bidder\r\n            if (bidderInforList.length > 0) {\r\n                // return BQK token to other bidder\r\n                for(uint256 i = 0; i < bidderInforList.length; i++) {\r\n                    withdraw(bidderInforList[i].bidderAddress, bidderInforList[i].offeredPrice * (10**18));\r\n                }            \r\n            }        \r\n        }\r\n\r\n        // delete auction\r\n\r\n        // update data\r\n        auction.openBiddingTime = 0;\r\n        auction.closeBiddingTime = 1; // ensure that closeBiddingTime is bigger than openBiddingTime\r\n        auction.statusAuction = ENDED_AUCTION_STATUS;\r\n        auction.transferAssetStatus = ALREADY_TRANSFER_ASSET;\r\n\r\n        emit CancelingAuctionEvent(\r\n            auction.ownerAuction,\r\n            auction.nftContract,\r\n            auction.tokenId,\r\n            auction.initialPrice,\r\n            auction.openBiddingTime,\r\n            auction.closeBiddingTime,\r\n            auction.statusAuction,\r\n            auction.transferAssetStatus,\r\n            uuid\r\n        );\r\n    }\r\n\r\n    /**\r\n    ====================================================================================================================================================\r\n        joinAuction function\r\n    ====================================================================================================================================================\r\n     */\r\n\r\n    // Bidder struct\r\n    struct BidderInfor {\r\n        address bidderAddress;\r\n        uint256 offeredPrice;\r\n    }\r\n\r\n    // this function is used for Bidder can join auction\r\n    function joinAuction(\r\n        uint256 uuid,\r\n        uint256 offeredPrice\r\n    ) public payable\r\n    isCorrectAuctionTime(uuid) \r\n    {\r\n        // checking that offeredPrice is valid\r\n        Auction memory auction = uuidToAuction[uuid];\r\n        require(offeredPrice > auction.initialPrice, \"Offered Price is invalid!!!\");\r\n\r\n        // checking that msg.sender is enough token to bid\r\n        uint256 balanceBQK = IERC20(BQKContract).balanceOf(msg.sender);\r\n        require(balanceBQK >= offeredPrice, \"Wallet address is not enough BQK token to bid!\");\r\n\r\n        // transfer BQK token from bidder's wallet to smart contract.\r\n        IERC20(BQKContract).transferFrom(\r\n            msg.sender,\r\n            address(this),\r\n            offeredPrice * (10**18)\r\n        );\r\n\r\n        // create new BidderInfor and push it to list\r\n        BidderInfor memory bidderInfor = BidderInfor(\r\n            msg.sender,\r\n            offeredPrice\r\n        );\r\n\r\n        uuidToListBidderInfo[uuid].push(bidderInfor);\r\n\r\n        emit BiddingAuctionEvent(\r\n            uuid,\r\n            msg.sender,\r\n            offeredPrice\r\n        );\r\n    }\r\n\r\n    /**\r\n    ====================================================================================================================================================\r\n        transferAssetAfterAuctionEnd function\r\n    ====================================================================================================================================================\r\n     */\r\n\r\n    // function to execute logic that: transfer NFT to the winner and trnasfer BQK token to old owner of NFT after auction ends\r\n    function transferAssetAfterAuctionEnd(uint256 uuid) external {\r\n        // get list bidder of auction has uuid\r\n        BidderInfor[] memory bidderInforList = uuidToListBidderInfo[uuid];\r\n\r\n        // get winner of this auction\r\n        BidderInfor memory winner = getTheWinnerOfAuction(uuid);\r\n\r\n        // transfer NFT from SMC to winner\r\n        IERC721(uuidToAuction[uuid].nftContract).transferFrom(\r\n            address(this),\r\n            winner.bidderAddress,\r\n            uuidToAuction[uuid].tokenId\r\n        );\r\n\r\n        // transfer BQK token from SMC to old owne\r\n        withdraw(uuidToAuction[uuid].ownerAuction, winner.offeredPrice * (10**18));\r\n\r\n        if (bidderInforList.length > 0) {\r\n            // return BQK token to other bidder\r\n            for(uint256 i = 0; i < bidderInforList.length; i++) {\r\n                if (bidderInforList[i].bidderAddress != winner.bidderAddress) {\r\n                    withdraw(bidderInforList[i].bidderAddress, bidderInforList[i].offeredPrice * (10**18));\r\n                }\r\n            }            \r\n        }\r\n\r\n        uuidToAuction[uuid].statusAuction = ENDED_AUCTION_STATUS;\r\n        uuidToAuction[uuid].transferAssetStatus = ALREADY_TRANSFER_ASSET;\r\n\r\n        emit TransferingAssetEvent(\r\n            uuid,\r\n            uuidToAuction[uuid].transferAssetStatus\r\n        );\r\n    }\r\n\r\n    // function to get the winner of the auction with its uuid\r\n    function getTheWinnerOfAuction(uint256 uuid) public view returns(BidderInfor memory) {\r\n\r\n        BidderInfor[] memory bidderInforList = uuidToListBidderInfo[uuid];\r\n\r\n        uint256 len = bidderInforList.length;\r\n\r\n        for (uint256 i = 0; i < len-1; i++) {\r\n            for (uint256 j = 0; j < len-1 - i; j++) {\r\n                if (bidderInforList[j].offeredPrice > bidderInforList[j+1].offeredPrice) {\r\n                    BidderInfor memory temp = bidderInforList[j];\r\n                    bidderInforList[j] = bidderInforList[j+1];\r\n                    bidderInforList[j+1] = temp;\r\n                }\r\n            }\r\n        }\r\n\r\n        return bidderInforList[len-1];\r\n    }\r\n\r\n\r\n    // Withdraw function\r\n    function withdraw(address _to, uint256 amount) private {\r\n        IERC20(BQKContract).transfer(_to, amount);\r\n    }\r\n\r\n    /**\r\n    ====================================================================================================================================================\r\n        Events\r\n    ====================================================================================================================================================\r\n     */\r\n\r\n    \r\n    event CreatingAuctionEvent(\r\n        address ownerOfAuction,\r\n        address nftContract,\r\n        uint256 tokenId,\r\n        uint256 initialPrice,\r\n        uint256 openBiddingTime,\r\n        uint256 closeBiddingTime,\r\n        string statusAuction,\r\n        uint256 transferAssetStatus,\r\n        uint256 uuid\r\n    );\r\n\r\n    event CancelingAuctionEvent(\r\n        address ownerOfAuction,\r\n        address nftContract,\r\n        uint256 tokenId,\r\n        uint256 initialPrice,\r\n        uint256 openBiddingTime,\r\n        uint256 closeBiddingTime,\r\n        string statusAuction,\r\n        uint256 transferAssetStatus,\r\n        uint256 uuid\r\n    );\r\n\r\n    event BiddingAuctionEvent(\r\n        uint256 uuid,\r\n        address spender,\r\n        uint256 offeredPrice\r\n    );\r\n\r\n    event TransferingAssetEvent(\r\n        uint256 uuid,\r\n        uint256 transferAssetStatus\r\n    );\r\n\r\n    event updatingStatusAuctionEvent(\r\n        uint256 uuid,\r\n        string statusAuction\r\n    );\r\n\r\n\r\n    /**\r\n    ====================================================================================================================================================\r\n        Modifiers\r\n    ====================================================================================================================================================\r\n     */\r\n     \r\n    modifier isOwnerOfNFT(\r\n        address nftContract,\r\n        uint256 tokenId,\r\n        address spender\r\n    ) {\r\n        IERC721 nft = IERC721(nftContract);\r\n        address owner = nft.ownerOf(tokenId);\r\n        if (spender != owner) {\r\n            revert(\"The spender is not owner of this NFT!!!\");\r\n        }\r\n        _;\r\n    }\r\n\r\n    modifier isCorrectAuctionTime(\r\n        uint256 uuid\r\n    ) {\r\n        require(uuidToAuction[uuid].ownerAuction != address(0), \"Auction with this UUID does not exist\");\r\n\r\n        Auction memory auction = uuidToAuction[uuid];\r\n\r\n        uint256 openBiddingTime = auction.openBiddingTime;\r\n        uint256 closeBiddingTime = auction.closeBiddingTime;\r\n\r\n        // execute compare open and close time with current time \r\n        uint256 pointTimestamp = block.timestamp;\r\n\r\n        require(\r\n            (pointTimestamp > openBiddingTime) && (pointTimestamp < closeBiddingTime),\r\n            \"Time Over!!! Please checking Auction schedule again!\"\r\n        );\r\n        _;\r\n    }\r\n\r\n    /**\r\n    ====================================================================================================================================================\r\n        Set function\r\n    ====================================================================================================================================================\r\n     */\r\n\r\n    function setOpenBiddingTime(\r\n        uint256 uuid, \r\n        uint256 openBiddingTime,\r\n        uint256 closeBiddingTime\r\n    ) public view {\r\n\r\n        require(openBiddingTime < closeBiddingTime, \"invalid time!\");\r\n\r\n        Auction memory auction = uuidToAuction[uuid];\r\n\r\n        // checking that auction must upcoming status\r\n        uint256 pointTimestamp = block.timestamp;\r\n        require(auction.openBiddingTime > pointTimestamp, \"invalid time to setOpenbiddingTime!\");\r\n\r\n        // update\r\n        auction.openBiddingTime = openBiddingTime;\r\n        auction.closeBiddingTime = closeBiddingTime;\r\n    }\r\n}",
  "sourcePath": "D:\\UET\\Blockchain_INT3231E\\bidnow-blockchain\\contracts\\BidNow.sol",
  "compiler": {
    "name": "solc",
    "version": "0.8.19+commit.7dd6d404.Emscripten.clang"
  },
  "schemaVersion": "3.4.10",
  "updatedAt": "2023-04-20T17:49:45.293Z",
  "networkType": "ethereum",
  "devdoc": {
    "kind": "dev",
    "methods": {},
    "version": 1
  },
  "userdoc": {
    "events": {
      "CreatingAuctionEvent(address,address,uint256,uint256,uint256,uint256,string,uint256,uint256)": {
        "notice": "==================================================================================================================================================== Events ===================================================================================================================================================="
      }
    },
    "kind": "user",
    "methods": {
      "CancelAuction(uint256)": {
        "notice": "==================================================================================================================================================== CancelAuction function ===================================================================================================================================================="
      },
      "constructor": {
        "notice": "==================================================================================================================================================== Constructor ===================================================================================================================================================="
      },
      "createNewAuction(address,uint256,uint256,uint256,uint256)": {
        "notice": "==================================================================================================================================================== CreateNewAuction function ===================================================================================================================================================="
      },
      "setOpenBiddingTime(uint256,uint256,uint256)": {
        "notice": "==================================================================================================================================================== Set function ===================================================================================================================================================="
      },
      "transferAssetAfterAuctionEnd(uint256)": {
        "notice": "==================================================================================================================================================== transferAssetAfterAuctionEnd function ===================================================================================================================================================="
      }
    },
    "version": 1
  }
}