{
  "contractName": "Bidnow",
  "abi": [
    {
      "inputs": [
        {
          "internalType": "address",
          "name": "_BQKContract",
          "type": "address"
        }
      ],
      "stateMutability": "nonpayable",
      "type": "constructor"
    },
    {
      "anonymous": false,
      "inputs": [
        {
          "indexed": false,
          "internalType": "uint256",
          "name": "uuid",
          "type": "uint256"
        },
        {
          "indexed": false,
          "internalType": "address",
          "name": "spender",
          "type": "address"
        },
        {
          "indexed": false,
          "internalType": "uint256",
          "name": "offeredPrice",
          "type": "uint256"
        }
      ],
      "name": "BiddingAuctionEvent",
      "type": "event"
    },
    {
      "anonymous": false,
      "inputs": [
        {
          "indexed": false,
          "internalType": "address",
          "name": "ownerOfAuction",
          "type": "address"
        },
        {
          "indexed": false,
          "internalType": "address",
          "name": "nftContract",
          "type": "address"
        },
        {
          "indexed": false,
          "internalType": "uint256",
          "name": "tokenId",
          "type": "uint256"
        },
        {
          "indexed": false,
          "internalType": "uint256",
          "name": "initialPrice",
          "type": "uint256"
        },
        {
          "indexed": false,
          "internalType": "uint256",
          "name": "openBiddingTime",
          "type": "uint256"
        },
        {
          "indexed": false,
          "internalType": "uint256",
          "name": "closeBiddingTime",
          "type": "uint256"
        },
        {
          "indexed": false,
          "internalType": "string",
          "name": "statusAuction",
          "type": "string"
        },
        {
          "indexed": false,
          "internalType": "uint256",
          "name": "transferAssetStatus",
          "type": "uint256"
        },
        {
          "indexed": false,
          "internalType": "uint256",
          "name": "uuid",
          "type": "uint256"
        }
      ],
      "name": "CancelingAuctionEvent",
      "type": "event"
    },
    {
      "anonymous": false,
      "inputs": [
        {
          "indexed": false,
          "internalType": "address",
          "name": "ownerOfAuction",
          "type": "address"
        },
        {
          "indexed": false,
          "internalType": "address",
          "name": "nftContract",
          "type": "address"
        },
        {
          "indexed": false,
          "internalType": "uint256",
          "name": "tokenId",
          "type": "uint256"
        },
        {
          "indexed": false,
          "internalType": "uint256",
          "name": "initialPrice",
          "type": "uint256"
        },
        {
          "indexed": false,
          "internalType": "uint256",
          "name": "openBiddingTime",
          "type": "uint256"
        },
        {
          "indexed": false,
          "internalType": "uint256",
          "name": "closeBiddingTime",
          "type": "uint256"
        },
        {
          "indexed": false,
          "internalType": "string",
          "name": "statusAuction",
          "type": "string"
        },
        {
          "indexed": false,
          "internalType": "uint256",
          "name": "transferAssetStatus",
          "type": "uint256"
        },
        {
          "indexed": false,
          "internalType": "uint256",
          "name": "uuid",
          "type": "uint256"
        }
      ],
      "name": "CreatingAuctionEvent",
      "type": "event"
    },
    {
      "anonymous": false,
      "inputs": [
        {
          "indexed": false,
          "internalType": "uint256",
          "name": "uuid",
          "type": "uint256"
        },
        {
          "indexed": false,
          "internalType": "uint256",
          "name": "transferAssetStatus",
          "type": "uint256"
        }
      ],
      "name": "TransferingAssetEvent",
      "type": "event"
    },
    {
      "anonymous": false,
      "inputs": [
        {
          "indexed": false,
          "internalType": "uint256",
          "name": "uuid",
          "type": "uint256"
        },
        {
          "indexed": false,
          "internalType": "string",
          "name": "statusAuction",
          "type": "string"
        }
      ],
      "name": "updatingStatusAuctionEvent",
      "type": "event"
    },
    {
      "inputs": [
        {
          "internalType": "address",
          "name": "nftContract",
          "type": "address"
        },
        {
          "internalType": "uint256",
          "name": "tokenId",
          "type": "uint256"
        },
        {
          "internalType": "uint256",
          "name": "initialPrice",
          "type": "uint256"
        },
        {
          "internalType": "uint256",
          "name": "openBiddingTime",
          "type": "uint256"
        },
        {
          "internalType": "uint256",
          "name": "closeBiddingTime",
          "type": "uint256"
        }
      ],
      "name": "createNewAuction",
      "outputs": [],
      "stateMutability": "payable",
      "type": "function"
    },
    {
      "inputs": [
        {
          "internalType": "uint256",
          "name": "uuid",
          "type": "uint256"
        }
      ],
      "name": "CancelAuction",
      "outputs": [],
      "stateMutability": "nonpayable",
      "type": "function"
    },
    {
      "inputs": [
        {
          "internalType": "uint256",
          "name": "uuid",
          "type": "uint256"
        },
        {
          "internalType": "uint256",
          "name": "offeredPrice",
          "type": "uint256"
        }
      ],
      "name": "joinAuction",
      "outputs": [],
      "stateMutability": "payable",
      "type": "function"
    },
    {
      "inputs": [
        {
          "internalType": "uint256",
          "name": "uuid",
          "type": "uint256"
        }
      ],
      "name": "transferAssetAfterAuctionEnd",
      "outputs": [],
      "stateMutability": "nonpayable",
      "type": "function"
    },
    {
      "inputs": [
        {
          "internalType": "uint256",
          "name": "uuid",
          "type": "uint256"
        }
      ],
      "name": "getTheWinnerOfAuction",
      "outputs": [
        {
          "components": [
            {
              "internalType": "address",
              "name": "bidderAddress",
              "type": "address"
            },
            {
              "internalType": "uint256",
              "name": "offeredPrice",
              "type": "uint256"
            }
          ],
          "internalType": "struct Bidnow.BidderInfor",
          "name": "",
          "type": "tuple"
        }
      ],
      "stateMutability": "view",
      "type": "function"
    },
    {
      "inputs": [
        {
          "internalType": "uint256",
          "name": "uuid",
          "type": "uint256"
        }
      ],
      "name": "updateStatusAuction",
      "outputs": [],
      "stateMutability": "nonpayable",
      "type": "function"
    },
    {
      "inputs": [],
      "name": "updateStatusAllAuction",
      "outputs": [
        {
          "components": [
            {
              "internalType": "address",
              "name": "ownerAuction",
              "type": "address"
            },
            {
              "internalType": "address",
              "name": "nftContract",
              "type": "address"
            },
            {
              "internalType": "uint256",
              "name": "tokenId",
              "type": "uint256"
            },
            {
              "internalType": "uint256",
              "name": "initialPrice",
              "type": "uint256"
            },
            {
              "internalType": "uint256",
              "name": "openBiddingTime",
              "type": "uint256"
            },
            {
              "internalType": "uint256",
              "name": "closeBiddingTime",
              "type": "uint256"
            },
            {
              "internalType": "string",
              "name": "statusAuction",
              "type": "string"
            },
            {
              "internalType": "uint256",
              "name": "transferAssetStatus",
              "type": "uint256"
            }
          ],
          "internalType": "struct Bidnow.Auction[]",
          "name": "",
          "type": "tuple[]"
        }
      ],
      "stateMutability": "nonpayable",
      "type": "function"
    },
    {
      "inputs": [],
      "name": "getAllAuction",
      "outputs": [
        {
          "components": [
            {
              "internalType": "address",
              "name": "ownerAuction",
              "type": "address"
            },
            {
              "internalType": "address",
              "name": "nftContract",
              "type": "address"
            },
            {
              "internalType": "uint256",
              "name": "tokenId",
              "type": "uint256"
            },
            {
              "internalType": "uint256",
              "name": "initialPrice",
              "type": "uint256"
            },
            {
              "internalType": "uint256",
              "name": "openBiddingTime",
              "type": "uint256"
            },
            {
              "internalType": "uint256",
              "name": "closeBiddingTime",
              "type": "uint256"
            },
            {
              "internalType": "string",
              "name": "statusAuction",
              "type": "string"
            },
            {
              "internalType": "uint256",
              "name": "transferAssetStatus",
              "type": "uint256"
            }
          ],
          "internalType": "struct Bidnow.Auction[]",
          "name": "",
          "type": "tuple[]"
        }
      ],
      "stateMutability": "view",
      "type": "function"
    },
    {
      "inputs": [
        {
          "internalType": "string",
          "name": "statusAuction",
          "type": "string"
        }
      ],
      "name": "getListAuctionFromStatus",
      "outputs": [
        {
          "components": [
            {
              "internalType": "address",
              "name": "ownerAuction",
              "type": "address"
            },
            {
              "internalType": "address",
              "name": "nftContract",
              "type": "address"
            },
            {
              "internalType": "uint256",
              "name": "tokenId",
              "type": "uint256"
            },
            {
              "internalType": "uint256",
              "name": "initialPrice",
              "type": "uint256"
            },
            {
              "internalType": "uint256",
              "name": "openBiddingTime",
              "type": "uint256"
            },
            {
              "internalType": "uint256",
              "name": "closeBiddingTime",
              "type": "uint256"
            },
            {
              "internalType": "string",
              "name": "statusAuction",
              "type": "string"
            },
            {
              "internalType": "uint256",
              "name": "transferAssetStatus",
              "type": "uint256"
            }
          ],
          "internalType": "struct Bidnow.Auction[]",
          "name": "",
          "type": "tuple[]"
        }
      ],
      "stateMutability": "view",
      "type": "function"
    },
    {
      "inputs": [
        {
          "internalType": "uint256",
          "name": "uuid",
          "type": "uint256"
        }
      ],
      "name": "getAuctionFromUuid",
      "outputs": [
        {
          "components": [
            {
              "internalType": "address",
              "name": "ownerAuction",
              "type": "address"
            },
            {
              "internalType": "address",
              "name": "nftContract",
              "type": "address"
            },
            {
              "internalType": "uint256",
              "name": "tokenId",
              "type": "uint256"
            },
            {
              "internalType": "uint256",
              "name": "initialPrice",
              "type": "uint256"
            },
            {
              "internalType": "uint256",
              "name": "openBiddingTime",
              "type": "uint256"
            },
            {
              "internalType": "uint256",
              "name": "closeBiddingTime",
              "type": "uint256"
            },
            {
              "internalType": "string",
              "name": "statusAuction",
              "type": "string"
            },
            {
              "internalType": "uint256",
              "name": "transferAssetStatus",
              "type": "uint256"
            }
          ],
          "internalType": "struct Bidnow.Auction",
          "name": "",
          "type": "tuple"
        }
      ],
      "stateMutability": "view",
      "type": "function"
    },
    {
      "inputs": [
        {
          "internalType": "uint256",
          "name": "uuid",
          "type": "uint256"
        }
      ],
      "name": "getStatusAuctionFromUUID",
      "outputs": [
        {
          "internalType": "string",
          "name": "",
          "type": "string"
        }
      ],
      "stateMutability": "view",
      "type": "function"
    },
    {
      "inputs": [
        {
          "internalType": "uint256",
          "name": "uuid",
          "type": "uint256"
        }
      ],
      "name": "getListBidderFromUUID",
      "outputs": [
        {
          "components": [
            {
              "internalType": "address",
              "name": "bidderAddress",
              "type": "address"
            },
            {
              "internalType": "uint256",
              "name": "offeredPrice",
              "type": "uint256"
            }
          ],
          "internalType": "struct Bidnow.BidderInfor[]",
          "name": "",
          "type": "tuple[]"
        }
      ],
      "stateMutability": "view",
      "type": "function"
    },
    {
      "inputs": [
        {
          "internalType": "address",
          "name": "spender",
          "type": "address"
        }
      ],
      "name": "getListAuctionOfSpender",
      "outputs": [
        {
          "components": [
            {
              "internalType": "address",
              "name": "ownerAuction",
              "type": "address"
            },
            {
              "internalType": "address",
              "name": "nftContract",
              "type": "address"
            },
            {
              "internalType": "uint256",
              "name": "tokenId",
              "type": "uint256"
            },
            {
              "internalType": "uint256",
              "name": "initialPrice",
              "type": "uint256"
            },
            {
              "internalType": "uint256",
              "name": "openBiddingTime",
              "type": "uint256"
            },
            {
              "internalType": "uint256",
              "name": "closeBiddingTime",
              "type": "uint256"
            },
            {
              "internalType": "string",
              "name": "statusAuction",
              "type": "string"
            },
            {
              "internalType": "uint256",
              "name": "transferAssetStatus",
              "type": "uint256"
            }
          ],
          "internalType": "struct Bidnow.Auction[]",
          "name": "",
          "type": "tuple[]"
        }
      ],
      "stateMutability": "view",
      "type": "function"
    },
    {
      "inputs": [
        {
          "internalType": "uint256",
          "name": "uuid",
          "type": "uint256"
        },
        {
          "internalType": "uint256",
          "name": "openBiddingTime",
          "type": "uint256"
        },
        {
          "internalType": "uint256",
          "name": "closeBiddingTime",
          "type": "uint256"
        }
      ],
      "name": "setOpenBiddingTime",
      "outputs": [],
      "stateMutability": "view",
      "type": "function"
    }
  ],
  "bytecode": "0x60806040523480156200001157600080fd5b5060405162004f1838038062004f188339818101604052810190620000379190620000e9565b80600160006101000a81548173ffffffffffffffffffffffffffffffffffffffff021916908373ffffffffffffffffffffffffffffffffffffffff160217905550506200011b565b600080fd5b600073ffffffffffffffffffffffffffffffffffffffff82169050919050565b6000620000b18262000084565b9050919050565b620000c381620000a4565b8114620000cf57600080fd5b50565b600081519050620000e381620000b8565b92915050565b6000602082840312156200010257620001016200007f565b5b60006200011284828501620000d2565b91505092915050565b614ded806200012b6000396000f3fe6080604052600436106100dd5760003560e01c806377ee1e1f1161007f578063d753ca3411610059578063d753ca34146102af578063da169e2a146102ec578063f08e6e7614610329578063f80cbeed14610345576100dd565b806377ee1e1f14610220578063ae11847d14610249578063bea0e66c14610286576100dd565b80632f971a1c116100bb5780632f971a1c146101525780634868e7611461018f5780634e55264c146101ba578063726b47da146101e3576100dd565b80630dde4fe2146100e257806311eb1939146100fe57806316056daa14610127575b600080fd5b6100fc60048036038101906100f79190613712565b610382565b005b34801561010a57600080fd5b506101256004803603810190610120919061378d565b610acb565b005b34801561013357600080fd5b5061013c610cb9565b60405161014991906139da565b60405180910390f35b34801561015e57600080fd5b506101796004803603810190610174919061378d565b610e89565b6040516101869190613a46565b60405180910390f35b34801561019b57600080fd5b506101a461102b565b6040516101b191906139da565b60405180910390f35b3480156101c657600080fd5b506101e160048036038101906101dc919061378d565b6112a5565b005b3480156101ef57600080fd5b5061020a6004803603810190610205919061378d565b6118d0565b6040516102179190613a97565b60405180910390f35b34801561022c57600080fd5b5061024760048036038101906102429190613ab2565b611b2f565b005b34801561025557600080fd5b50610270600480360381019061026b919061378d565b611d6a565b60405161027d9190613bb5565b60405180910390f35b34801561029257600080fd5b506102ad60048036038101906102a8919061378d565b611f08565b005b3480156102bb57600080fd5b506102d660048036038101906102d19190613bd7565b61254d565b6040516102e391906139da565b60405180910390f35b3480156102f857600080fd5b50610313600480360381019061030e9190613c69565b61275c565b60405161032091906139da565b60405180910390f35b610343600480360381019061033e9190613cb6565b612c43565b005b34801561035157600080fd5b5061036c6004803603810190610367919061378d565b6132b3565b6040516103799190613dd4565b60405180910390f35b848433600083905060008173ffffffffffffffffffffffffffffffffffffffff16636352211e856040518263ffffffff1660e01b81526004016103c59190613e05565b602060405180830381865afa1580156103e2573d6000803e3d6000fd5b505050506040513d601f19601f820116820180604052508101906104069190613e35565b90508073ffffffffffffffffffffffffffffffffffffffff168373ffffffffffffffffffffffffffffffffffffffff1614610476576040517f08c379a000000000000000000000000000000000000000000000000000000000815260040161046d90613ed4565b60405180910390fd5b8587106104b8576040517f08c379a00000000000000000000000000000000000000000000000000000000081526004016104af90613f40565b60405180910390fd5b60006040518061010001604052803373ffffffffffffffffffffffffffffffffffffffff1681526020018c73ffffffffffffffffffffffffffffffffffffffff1681526020018b81526020018a81526020018981526020018881526020016105208a8a613385565b815260200160008152509050600281908060018154018082558091505060019003906000526020600020906008020160009091909190915060008201518160000160006101000a81548173ffffffffffffffffffffffffffffffffffffffff021916908373ffffffffffffffffffffffffffffffffffffffff16021790555060208201518160010160006101000a81548173ffffffffffffffffffffffffffffffffffffffff021916908373ffffffffffffffffffffffffffffffffffffffff16021790555060408201518160020155606082015181600301556080820151816004015560a0820151816005015560c0820151816006019081610623919061419b565b5060e082015181600701555050600360003373ffffffffffffffffffffffffffffffffffffffff1673ffffffffffffffffffffffffffffffffffffffff16815260200190815260200160002081908060018154018082558091505060019003906000526020600020906008020160009091909190915060008201518160000160006101000a81548173ffffffffffffffffffffffffffffffffffffffff021916908373ffffffffffffffffffffffffffffffffffffffff16021790555060208201518160010160006101000a81548173ffffffffffffffffffffffffffffffffffffffff021916908373ffffffffffffffffffffffffffffffffffffffff16021790555060408201518160020155606082015181600301556080820151816004015560a0820151816005015560c0820151816006019081610764919061419b565b5060e082015181600701555050806004600061077e61349a565b815260200190815260200160002060008201518160000160006101000a81548173ffffffffffffffffffffffffffffffffffffffff021916908373ffffffffffffffffffffffffffffffffffffffff16021790555060208201518160010160006101000a81548173ffffffffffffffffffffffffffffffffffffffff021916908373ffffffffffffffffffffffffffffffffffffffff16021790555060408201518160020155606082015181600301556080820151816004015560a0820151816005015560c0820151816006019081610857919061419b565b5060e08201518160070155905050600160009054906101000a900473ffffffffffffffffffffffffffffffffffffffff1673ffffffffffffffffffffffffffffffffffffffff166323b872dd3330678ac7230489e800006040518463ffffffff1660e01b81526004016108cc9392919061427c565b6020604051808303816000875af11580156108eb573d6000803e3d6000fd5b505050506040513d601f19601f8201168201806040525081019061090f91906142eb565b508a73ffffffffffffffffffffffffffffffffffffffff166323b872dd33308d6040518463ffffffff1660e01b815260040161094d9392919061427c565b600060405180830381600087803b15801561096757600080fd5b505af115801561097b573d6000803e3d6000fd5b505050503073ffffffffffffffffffffffffffffffffffffffff168b73ffffffffffffffffffffffffffffffffffffffff16636352211e8c6040518263ffffffff1660e01b81526004016109cf9190613e05565b602060405180830381865afa1580156109ec573d6000803e3d6000fd5b505050506040513d601f19601f82011682018060405250810190610a109190613e35565b73ffffffffffffffffffffffffffffffffffffffff1614610a66576040517f08c379a0000000000000000000000000000000000000000000000000000000008152600401610a5d9061438a565b60405180910390fd5b7f4e9226da3237bc1788bd8d919d1fa0d9d18e602bfc8c6ccf83f306fcf6f9d9ba338c8c8c8c8c610a978f8f613385565b6000610aa161349a565b604051610ab6999897969594939291906143aa565b60405180910390a15050505050505050505050565b600060046000838152602001908152602001600020604051806101000160405290816000820160009054906101000a900473ffffffffffffffffffffffffffffffffffffffff1673ffffffffffffffffffffffffffffffffffffffff1673ffffffffffffffffffffffffffffffffffffffff1681526020016001820160009054906101000a900473ffffffffffffffffffffffffffffffffffffffff1673ffffffffffffffffffffffffffffffffffffffff1673ffffffffffffffffffffffffffffffffffffffff16815260200160028201548152602001600382015481526020016004820154815260200160058201548152602001600682018054610bd090613fbe565b80601f0160208091040260200160405190810160405280929190818152602001828054610bfc90613fbe565b8015610c495780601f10610c1e57610100808354040283529160200191610c49565b820191906000526020600020905b815481529060010190602001808311610c2c57829003601f168201915b505050505081526020016007820154815250509050610c7081608001518260a00151613385565b8160c001819052507f1051ace51930267ad348dc6da420f04156229b9da4c61ae49a13a43b843cf928828260c00151604051610cad92919061443e565b60405180910390a15050565b60606002805480602002602001604051908101604052809291908181526020016000905b82821015610e805783829060005260206000209060080201604051806101000160405290816000820160009054906101000a900473ffffffffffffffffffffffffffffffffffffffff1673ffffffffffffffffffffffffffffffffffffffff1673ffffffffffffffffffffffffffffffffffffffff1681526020016001820160009054906101000a900473ffffffffffffffffffffffffffffffffffffffff1673ffffffffffffffffffffffffffffffffffffffff1673ffffffffffffffffffffffffffffffffffffffff16815260200160028201548152602001600382015481526020016004820154815260200160058201548152602001600682018054610de590613fbe565b80601f0160208091040260200160405190810160405280929190818152602001828054610e1190613fbe565b8015610e5e5780601f10610e3357610100808354040283529160200191610e5e565b820191906000526020600020905b815481529060010190602001808311610e4157829003601f168201915b5050505050815260200160078201548152505081526020019060010190610cdd565b50505050905090565b6060600060046000848152602001908152602001600020604051806101000160405290816000820160009054906101000a900473ffffffffffffffffffffffffffffffffffffffff1673ffffffffffffffffffffffffffffffffffffffff1673ffffffffffffffffffffffffffffffffffffffff1681526020016001820160009054906101000a900473ffffffffffffffffffffffffffffffffffffffff1673ffffffffffffffffffffffffffffffffffffffff1673ffffffffffffffffffffffffffffffffffffffff16815260200160028201548152602001600382015481526020016004820154815260200160058201548152602001600682018054610f9090613fbe565b80601f0160208091040260200160405190810160405280929190818152602001828054610fbc90613fbe565b80156110095780601f10610fde57610100808354040283529160200191611009565b820191906000526020600020905b815481529060010190602001808311610fec57829003601f168201915b5050505050815260200160078201548152505090508060c00151915050919050565b606060005b6002805490508110156110d657611091600282815481106110545761105361446e565b5b9060005260206000209060080201600401546002838154811061107a5761107961446e565b5b906000526020600020906008020160050154613385565b600282815481106110a5576110a461446e565b5b906000526020600020906008020160060190816110c2919061419b565b5080806110ce906144cc565b915050611030565b506002805480602002602001604051908101604052809291908181526020016000905b8282101561129c5783829060005260206000209060080201604051806101000160405290816000820160009054906101000a900473ffffffffffffffffffffffffffffffffffffffff1673ffffffffffffffffffffffffffffffffffffffff1673ffffffffffffffffffffffffffffffffffffffff1681526020016001820160009054906101000a900473ffffffffffffffffffffffffffffffffffffffff1673ffffffffffffffffffffffffffffffffffffffff1673ffffffffffffffffffffffffffffffffffffffff1681526020016002820154815260200160038201548152602001600482015481526020016005820154815260200160068201805461120190613fbe565b80601f016020809104026020016040519081016040528092919081815260200182805461122d90613fbe565b801561127a5780601f1061124f5761010080835404028352916020019161127a565b820191906000526020600020905b81548152906001019060200180831161125d57829003601f168201915b50505050508152602001600782015481525050815260200190600101906110f9565b50505050905090565b600060076000838152602001908152602001600020805480602002602001604051908101604052809291908181526020016000905b8282101561136c57838290600052602060002090600202016040518060400160405290816000820160009054906101000a900473ffffffffffffffffffffffffffffffffffffffff1673ffffffffffffffffffffffffffffffffffffffff1673ffffffffffffffffffffffffffffffffffffffff168152602001600182015481525050815260200190600101906112da565b505050509050600061137d836118d0565b9050600060046000858152602001908152602001600020604051806101000160405290816000820160009054906101000a900473ffffffffffffffffffffffffffffffffffffffff1673ffffffffffffffffffffffffffffffffffffffff1673ffffffffffffffffffffffffffffffffffffffff1681526020016001820160009054906101000a900473ffffffffffffffffffffffffffffffffffffffff1673ffffffffffffffffffffffffffffffffffffffff1673ffffffffffffffffffffffffffffffffffffffff1681526020016002820154815260200160038201548152602001600482015481526020016005820154815260200160068201805461148490613fbe565b80601f01602080910402602001604051908101604052809291908181526020018280546114b090613fbe565b80156114fd5780601f106114d2576101008083540402835291602001916114fd565b820191906000526020600020905b8154815290600101906020018083116114e057829003601f168201915b5050505050815260200160078201548152505090507f454e4445445f41554354494f4e000000000000000000000000000000000000008160c001516040516020016115489190614550565b604051602081830303815290604052805190602001201461159e576040517f08c379a0000000000000000000000000000000000000000000000000000000008152600401611595906145b3565b60405180910390fd5b60008160e00151146115e5576040517f08c379a00000000000000000000000000000000000000000000000000000000081526004016115dc9061461f565b60405180910390fd5b806020015173ffffffffffffffffffffffffffffffffffffffff166323b872dd30846000015184604001516040518463ffffffff1660e01b815260040161162e9392919061427c565b600060405180830381600087803b15801561164857600080fd5b505af115801561165c573d6000803e3d6000fd5b50505050600160009054906101000a900473ffffffffffffffffffffffffffffffffffffffff1673ffffffffffffffffffffffffffffffffffffffff1663a9059cbb8260000151670de0b6b3a764000085602001516116bb919061463f565b6040518363ffffffff1660e01b81526004016116d8929190614681565b6020604051808303816000875af11580156116f7573d6000803e3d6000fd5b505050506040513d601f19601f8201168201806040525081019061171b91906142eb565b5060005b835181101561188157826000015173ffffffffffffffffffffffffffffffffffffffff168482815181106117565761175561446e565b5b60200260200101516000015173ffffffffffffffffffffffffffffffffffffffff161461186e57600160009054906101000a900473ffffffffffffffffffffffffffffffffffffffff1673ffffffffffffffffffffffffffffffffffffffff1663a9059cbb8583815181106117ce576117cd61446e565b5b602002602001015160000151670de0b6b3a76400008785815181106117f6576117f561446e565b5b60200260200101516020015161180c919061463f565b6040518363ffffffff1660e01b8152600401611829929190614681565b6020604051808303816000875af1158015611848573d6000803e3d6000fd5b505050506040513d601f19601f8201168201806040525081019061186c91906142eb565b505b8080611879906144cc565b91505061171f565b5060018160e00181815250507fc5ff0d3db2ab5b42eeea950e6049fb1d9c7e3405bdb011bb8e0f73f66ffd0736848260e001516040516118c29291906146aa565b60405180910390a150505050565b6118d86135d3565b600060076000848152602001908152602001600020805480602002602001604051908101604052809291908181526020016000905b8282101561199f57838290600052602060002090600202016040518060400160405290816000820160009054906101000a900473ffffffffffffffffffffffffffffffffffffffff1673ffffffffffffffffffffffffffffffffffffffff1673ffffffffffffffffffffffffffffffffffffffff1681526020016001820154815250508152602001906001019061190d565b50505050905060008151905060005b6001826119bb91906146d3565b811015611afe5760005b816001846119d391906146d3565b6119dd91906146d3565b811015611aea57836001826119f29190614707565b81518110611a0357611a0261446e565b5b602002602001015160200151848281518110611a2257611a2161446e565b5b6020026020010151602001511115611ad7576000848281518110611a4957611a4861446e565b5b602002602001015160200151905084600183611a659190614707565b81518110611a7657611a7561446e565b5b602002602001015160200151858381518110611a9557611a9461446e565b5b602002602001015160200181815250508085600184611ab49190614707565b81518110611ac557611ac461446e565b5b60200260200101516020018181525050505b8080611ae2906144cc565b9150506119c5565b508080611af6906144cc565b9150506119ae565b5081600182611b0d91906146d3565b81518110611b1e57611b1d61446e565b5b602002602001015192505050919050565b808210611b71576040517f08c379a0000000000000000000000000000000000000000000000000000000008152600401611b6890614787565b60405180910390fd5b600060046000858152602001908152602001600020604051806101000160405290816000820160009054906101000a900473ffffffffffffffffffffffffffffffffffffffff1673ffffffffffffffffffffffffffffffffffffffff1673ffffffffffffffffffffffffffffffffffffffff1681526020016001820160009054906101000a900473ffffffffffffffffffffffffffffffffffffffff1673ffffffffffffffffffffffffffffffffffffffff1673ffffffffffffffffffffffffffffffffffffffff16815260200160028201548152602001600382015481526020016004820154815260200160058201548152602001600682018054611c7690613fbe565b80601f0160208091040260200160405190810160405280929190818152602001828054611ca290613fbe565b8015611cef5780601f10611cc457610100808354040283529160200191611cef565b820191906000526020600020905b815481529060010190602001808311611cd257829003601f168201915b505050505081526020016007820154815250509050600042905080826080015111611d4f576040517f08c379a0000000000000000000000000000000000000000000000000000000008152600401611d4690614819565b60405180910390fd5b83826080018181525050828260a00181815250505050505050565b611d72613603565b60046000838152602001908152602001600020604051806101000160405290816000820160009054906101000a900473ffffffffffffffffffffffffffffffffffffffff1673ffffffffffffffffffffffffffffffffffffffff1673ffffffffffffffffffffffffffffffffffffffff1681526020016001820160009054906101000a900473ffffffffffffffffffffffffffffffffffffffff1673ffffffffffffffffffffffffffffffffffffffff1673ffffffffffffffffffffffffffffffffffffffff16815260200160028201548152602001600382015481526020016004820154815260200160058201548152602001600682018054611e7590613fbe565b80601f0160208091040260200160405190810160405280929190818152602001828054611ea190613fbe565b8015611eee5780601f10611ec357610100808354040283529160200191611eee565b820191906000526020600020905b815481529060010190602001808311611ed157829003601f168201915b505050505081526020016007820154815250509050919050565b600060046000838152602001908152602001600020604051806101000160405290816000820160009054906101000a900473ffffffffffffffffffffffffffffffffffffffff1673ffffffffffffffffffffffffffffffffffffffff1673ffffffffffffffffffffffffffffffffffffffff1681526020016001820160009054906101000a900473ffffffffffffffffffffffffffffffffffffffff1673ffffffffffffffffffffffffffffffffffffffff1673ffffffffffffffffffffffffffffffffffffffff1681526020016002820154815260200160038201548152602001600482015481526020016005820154815260200160068201805461200d90613fbe565b80601f016020809104026020016040519081016040528092919081815260200182805461203990613fbe565b80156120865780601f1061205b57610100808354040283529160200191612086565b820191906000526020600020905b81548152906001019060200180831161206957829003601f168201915b505050505081526020016007820154815250509050806020015173ffffffffffffffffffffffffffffffffffffffff16636352211e82604001516040518263ffffffff1660e01b81526004016120dc9190613e05565b602060405180830381865afa1580156120f9573d6000803e3d6000fd5b505050506040513d601f19601f8201168201806040525081019061211d9190613e35565b73ffffffffffffffffffffffffffffffffffffffff16816000015173ffffffffffffffffffffffffffffffffffffffff161461218e576040517f08c379a000000000000000000000000000000000000000000000000000000000815260040161218590614885565b60405180910390fd5b8060a0015142106121d4576040517f08c379a00000000000000000000000000000000000000000000000000000000081526004016121cb90614917565b60405180910390fd5b6040516020016121e390614983565b604051602081830303815290604052805190602001208160c0015160405160200161220e9190614550565b604051602081830303815290604052805190602001200361248357806020015173ffffffffffffffffffffffffffffffffffffffff166323b872dd30836000015184604001516040518463ffffffff1660e01b81526004016122729392919061427c565b600060405180830381600087803b15801561228c57600080fd5b505af11580156122a0573d6000803e3d6000fd5b50505050600060076000848152602001908152602001600020805480602002602001604051908101604052809291908181526020016000905b8282101561236b57838290600052602060002090600202016040518060400160405290816000820160009054906101000a900473ffffffffffffffffffffffffffffffffffffffff1673ffffffffffffffffffffffffffffffffffffffff1673ffffffffffffffffffffffffffffffffffffffff168152602001600182015481525050815260200190600101906122d9565b50505050905060005b815181101561248057600160009054906101000a900473ffffffffffffffffffffffffffffffffffffffff1673ffffffffffffffffffffffffffffffffffffffff1663a9059cbb8383815181106123ce576123cd61446e565b5b602002602001015160000151670de0b6b3a76400008585815181106123f6576123f561446e565b5b60200260200101516020015161240c919061463f565b6040518363ffffffff1660e01b8152600401612429929190614681565b6020604051808303816000875af1158015612448573d6000803e3d6000fd5b505050506040513d601f19601f8201168201806040525081019061246c91906142eb565b508080612478906144cc565b915050612374565b50505b600081608001818152505060018160a00181815250506040518060400160405280600d81526020017f454e4445445f41554354494f4e000000000000000000000000000000000000008152508160c0018190525060018160e00181815250507f917bb0054e26c59b1b48464a846619f6186e0a245dcc4f26bb813f3dca3af2fc816000015182602001518360400151846060015185608001518660a001518760c001518860e001518a604051612541999897969594939291906143aa565b60405180910390a15050565b6060600360008373ffffffffffffffffffffffffffffffffffffffff1673ffffffffffffffffffffffffffffffffffffffff168152602001908152602001600020805480602002602001604051908101604052809291908181526020016000905b828210156127515783829060005260206000209060080201604051806101000160405290816000820160009054906101000a900473ffffffffffffffffffffffffffffffffffffffff1673ffffffffffffffffffffffffffffffffffffffff1673ffffffffffffffffffffffffffffffffffffffff1681526020016001820160009054906101000a900473ffffffffffffffffffffffffffffffffffffffff1673ffffffffffffffffffffffffffffffffffffffff1673ffffffffffffffffffffffffffffffffffffffff168152602001600282015481526020016003820154815260200160048201548152602001600582015481526020016006820180546126b690613fbe565b80601f01602080910402602001604051908101604052809291908181526020018280546126e290613fbe565b801561272f5780601f106127045761010080835404028352916020019161272f565b820191906000526020600020905b81548152906001019060200180831161271257829003601f168201915b50505050508152602001600782015481525050815260200190600101906125ae565b505050509050919050565b60606000805b60028054905081101561298d576000600282815481106127855761278461446e565b5b9060005260206000209060080201604051806101000160405290816000820160009054906101000a900473ffffffffffffffffffffffffffffffffffffffff1673ffffffffffffffffffffffffffffffffffffffff1673ffffffffffffffffffffffffffffffffffffffff1681526020016001820160009054906101000a900473ffffffffffffffffffffffffffffffffffffffff1673ffffffffffffffffffffffffffffffffffffffff1673ffffffffffffffffffffffffffffffffffffffff1681526020016002820154815260200160038201548152602001600482015481526020016005820154815260200160068201805461288390613fbe565b80601f01602080910402602001604051908101604052809291908181526020018280546128af90613fbe565b80156128fc5780601f106128d1576101008083540402835291602001916128fc565b820191906000526020600020905b8154815290600101906020018083116128df57829003601f168201915b50505050508152602001600782015481525050905085856040516020016129249291906149cc565b604051602081830303815290604052805190602001208160c0015160405160200161294f9190614550565b6040516020818303038152906040528051906020012003612979578280612975906144cc565b9350505b508080612985906144cc565b915050612762565b5060008167ffffffffffffffff8111156129aa576129a9613f60565b5b6040519080825280602002602001820160405280156129e357816020015b6129d0613603565b8152602001906001900390816129c85790505b5090506000915060005b600280549050811015612c3757600060028281548110612a1057612a0f61446e565b5b9060005260206000209060080201604051806101000160405290816000820160009054906101000a900473ffffffffffffffffffffffffffffffffffffffff1673ffffffffffffffffffffffffffffffffffffffff1673ffffffffffffffffffffffffffffffffffffffff1681526020016001820160009054906101000a900473ffffffffffffffffffffffffffffffffffffffff1673ffffffffffffffffffffffffffffffffffffffff1673ffffffffffffffffffffffffffffffffffffffff16815260200160028201548152602001600382015481526020016004820154815260200160058201548152602001600682018054612b0e90613fbe565b80601f0160208091040260200160405190810160405280929190818152602001828054612b3a90613fbe565b8015612b875780601f10612b5c57610100808354040283529160200191612b87565b820191906000526020600020905b815481529060010190602001808311612b6a57829003601f168201915b5050505050815260200160078201548152505090508686604051602001612baf9291906149cc565b604051602081830303815290604052805190602001208160c00151604051602001612bda9190614550565b6040516020818303038152906040528051906020012003612c235780838581518110612c0957612c0861446e565b5b60200260200101819052508380612c1f906144cc565b9450505b508080612c2f906144cc565b9150506129ed565b50809250505092915050565b81600060046000838152602001908152602001600020604051806101000160405290816000820160009054906101000a900473ffffffffffffffffffffffffffffffffffffffff1673ffffffffffffffffffffffffffffffffffffffff1673ffffffffffffffffffffffffffffffffffffffff1681526020016001820160009054906101000a900473ffffffffffffffffffffffffffffffffffffffff1673ffffffffffffffffffffffffffffffffffffffff1673ffffffffffffffffffffffffffffffffffffffff16815260200160028201548152602001600382015481526020016004820154815260200160058201548152602001600682018054612d4990613fbe565b80601f0160208091040260200160405190810160405280929190818152602001828054612d7590613fbe565b8015612dc25780601f10612d9757610100808354040283529160200191612dc2565b820191906000526020600020905b815481529060010190602001808311612da557829003601f168201915b50505050508152602001600782015481525050905060008160800151905060008260a00151905060004290508281118015612dfc57508181105b612e3b576040517f08c379a0000000000000000000000000000000000000000000000000000000008152600401612e3290614a57565b60405180910390fd5b600060046000898152602001908152602001600020604051806101000160405290816000820160009054906101000a900473ffffffffffffffffffffffffffffffffffffffff1673ffffffffffffffffffffffffffffffffffffffff1673ffffffffffffffffffffffffffffffffffffffff1681526020016001820160009054906101000a900473ffffffffffffffffffffffffffffffffffffffff1673ffffffffffffffffffffffffffffffffffffffff1673ffffffffffffffffffffffffffffffffffffffff16815260200160028201548152602001600382015481526020016004820154815260200160058201548152602001600682018054612f4090613fbe565b80601f0160208091040260200160405190810160405280929190818152602001828054612f6c90613fbe565b8015612fb95780601f10612f8e57610100808354040283529160200191612fb9565b820191906000526020600020905b815481529060010190602001808311612f9c57829003601f168201915b50505050508152602001600782015481525050905080606001518711613014576040517f08c379a000000000000000000000000000000000000000000000000000000000815260040161300b90614ac3565b60405180910390fd5b6000600160009054906101000a900473ffffffffffffffffffffffffffffffffffffffff1673ffffffffffffffffffffffffffffffffffffffff166370a08231336040518263ffffffff1660e01b81526004016130719190614ae3565b602060405180830381865afa15801561308e573d6000803e3d6000fd5b505050506040513d601f19601f820116820180604052508101906130b29190614b13565b9050878110156130f7576040517f08c379a00000000000000000000000000000000000000000000000000000000081526004016130ee90614bb2565b60405180910390fd5b600160009054906101000a900473ffffffffffffffffffffffffffffffffffffffff1673ffffffffffffffffffffffffffffffffffffffff166323b872dd3330670de0b6b3a76400008c61314b919061463f565b6040518463ffffffff1660e01b81526004016131699392919061427c565b6020604051808303816000875af1158015613188573d6000803e3d6000fd5b505050506040513d601f19601f820116820180604052508101906131ac91906142eb565b50600060405180604001604052803373ffffffffffffffffffffffffffffffffffffffff1681526020018a8152509050600760008b815260200190815260200160002081908060018154018082558091505060019003906000526020600020906002020160009091909190915060008201518160000160006101000a81548173ffffffffffffffffffffffffffffffffffffffff021916908373ffffffffffffffffffffffffffffffffffffffff1602179055506020820151816001015550507fce0a64f44484f19bbad8f8b109f06afe7c3fcefceb09a88591fe94a62cf061188a338b60405161329f93929190614bd2565b60405180910390a150505050505050505050565b606060076000838152602001908152602001600020805480602002602001604051908101604052809291908181526020016000905b8282101561337a57838290600052602060002090600202016040518060400160405290816000820160009054906101000a900473ffffffffffffffffffffffffffffffffffffffff1673ffffffffffffffffffffffffffffffffffffffff1673ffffffffffffffffffffffffffffffffffffffff168152602001600182015481525050815260200190600101906132e8565b505050509050919050565b60608183106133c9576040517f08c379a00000000000000000000000000000000000000000000000000000000081526004016133c090614c55565b60405180910390fd5b600042905083811015613414576040518060400160405280601081526020017f5550434f4d494e475f41554354494f4e00000000000000000000000000000000815250915050613494565b8281111561345a576040518060400160405280600d81526020017f454e4445445f41554354494f4e00000000000000000000000000000000000000815250915050613494565b6040518060400160405280600e81526020017f4143544956455f41554354494f4e0000000000000000000000000000000000008152509150505b92915050565b600080426001436134ab91906146d3565b40336005546040516020016134c39493929190614d09565b6040516020818303038152906040528051906020012060001c90506000620f4240826134ef9190614d86565b90505b6006600082815260200190815260200160002060009054906101000a900460ff1615613587576005600081548092919061352b906144cc565b91905055504260014361353e91906146d3565b40336005546040516020016135569493929190614d09565b6040516020818303038152906040528051906020012060001c9150620f4240826135809190614d86565b90506134f2565b60016006600083815260200190815260200160002060006101000a81548160ff021916908315150217905550600560008154809291906135c6906144cc565b9190505550809250505090565b6040518060400160405280600073ffffffffffffffffffffffffffffffffffffffff168152602001600081525090565b604051806101000160405280600073ffffffffffffffffffffffffffffffffffffffff168152602001600073ffffffffffffffffffffffffffffffffffffffff1681526020016000815260200160008152602001600081526020016000815260200160608152602001600081525090565b600080fd5b600080fd5b600073ffffffffffffffffffffffffffffffffffffffff82169050919050565b60006136a98261367e565b9050919050565b6136b98161369e565b81146136c457600080fd5b50565b6000813590506136d6816136b0565b92915050565b6000819050919050565b6136ef816136dc565b81146136fa57600080fd5b50565b60008135905061370c816136e6565b92915050565b600080600080600060a0868803121561372e5761372d613674565b5b600061373c888289016136c7565b955050602061374d888289016136fd565b945050604061375e888289016136fd565b935050606061376f888289016136fd565b9250506080613780888289016136fd565b9150509295509295909350565b6000602082840312156137a3576137a2613674565b5b60006137b1848285016136fd565b91505092915050565b600081519050919050565b600082825260208201905092915050565b6000819050602082019050919050565b6137ef8161369e565b82525050565b6137fe816136dc565b82525050565b600081519050919050565b600082825260208201905092915050565b60005b8381101561383e578082015181840152602081019050613823565b60008484015250505050565b6000601f19601f8301169050919050565b600061386682613804565b613870818561380f565b9350613880818560208601613820565b6138898161384a565b840191505092915050565b6000610100830160008301516138ad60008601826137e6565b5060208301516138c060208601826137e6565b5060408301516138d360408601826137f5565b5060608301516138e660608601826137f5565b5060808301516138f960808601826137f5565b5060a083015161390c60a08601826137f5565b5060c083015184820360c0860152613924828261385b565b91505060e083015161393960e08601826137f5565b508091505092915050565b60006139508383613894565b905092915050565b6000602082019050919050565b6000613970826137ba565b61397a81856137c5565b93508360208202850161398c856137d6565b8060005b858110156139c857848403895281516139a98582613944565b94506139b483613958565b925060208a01995050600181019050613990565b50829750879550505050505092915050565b600060208201905081810360008301526139f48184613965565b905092915050565b600082825260208201905092915050565b6000613a1882613804565b613a2281856139fc565b9350613a32818560208601613820565b613a3b8161384a565b840191505092915050565b60006020820190508181036000830152613a608184613a0d565b905092915050565b604082016000820151613a7e60008501826137e6565b506020820151613a9160208501826137f5565b50505050565b6000604082019050613aac6000830184613a68565b92915050565b600080600060608486031215613acb57613aca613674565b5b6000613ad9868287016136fd565b9350506020613aea868287016136fd565b9250506040613afb868287016136fd565b9150509250925092565b600061010083016000830151613b1e60008601826137e6565b506020830151613b3160208601826137e6565b506040830151613b4460408601826137f5565b506060830151613b5760608601826137f5565b506080830151613b6a60808601826137f5565b5060a0830151613b7d60a08601826137f5565b5060c083015184820360c0860152613b95828261385b565b91505060e0830151613baa60e08601826137f5565b508091505092915050565b60006020820190508181036000830152613bcf8184613b05565b905092915050565b600060208284031215613bed57613bec613674565b5b6000613bfb848285016136c7565b91505092915050565b600080fd5b600080fd5b600080fd5b60008083601f840112613c2957613c28613c04565b5b8235905067ffffffffffffffff811115613c4657613c45613c09565b5b602083019150836001820283011115613c6257613c61613c0e565b5b9250929050565b60008060208385031215613c8057613c7f613674565b5b600083013567ffffffffffffffff811115613c9e57613c9d613679565b5b613caa85828601613c13565b92509250509250929050565b60008060408385031215613ccd57613ccc613674565b5b6000613cdb858286016136fd565b9250506020613cec858286016136fd565b9150509250929050565b600081519050919050565b600082825260208201905092915050565b6000819050602082019050919050565b604082016000820151613d3860008501826137e6565b506020820151613d4b60208501826137f5565b50505050565b6000613d5d8383613d22565b60408301905092915050565b6000602082019050919050565b6000613d8182613cf6565b613d8b8185613d01565b9350613d9683613d12565b8060005b83811015613dc7578151613dae8882613d51565b9750613db983613d69565b925050600181019050613d9a565b5085935050505092915050565b60006020820190508181036000830152613dee8184613d76565b905092915050565b613dff816136dc565b82525050565b6000602082019050613e1a6000830184613df6565b92915050565b600081519050613e2f816136b0565b92915050565b600060208284031215613e4b57613e4a613674565b5b6000613e5984828501613e20565b91505092915050565b7f546865207370656e646572206973206e6f74206f776e6572206f66207468697360008201527f204e465421212100000000000000000000000000000000000000000000000000602082015250565b6000613ebe6027836139fc565b9150613ec982613e62565b604082019050919050565b60006020820190508181036000830152613eed81613eb1565b9050919050565b7f53657474696e672074696d6520697320696e76616c6964210000000000000000600082015250565b6000613f2a6018836139fc565b9150613f3582613ef4565b602082019050919050565b60006020820190508181036000830152613f5981613f1d565b9050919050565b7f4e487b7100000000000000000000000000000000000000000000000000000000600052604160045260246000fd5b7f4e487b7100000000000000000000000000000000000000000000000000000000600052602260045260246000fd5b60006002820490506001821680613fd657607f821691505b602082108103613fe957613fe8613f8f565b5b50919050565b60008190508160005260206000209050919050565b60006020601f8301049050919050565b600082821b905092915050565b6000600883026140517fffffffffffffffffffffffffffffffffffffffffffffffffffffffffffffffff82614014565b61405b8683614014565b95508019841693508086168417925050509392505050565b6000819050919050565b600061409861409361408e846136dc565b614073565b6136dc565b9050919050565b6000819050919050565b6140b28361407d565b6140c66140be8261409f565b848454614021565b825550505050565b600090565b6140db6140ce565b6140e68184846140a9565b505050565b5b8181101561410a576140ff6000826140d3565b6001810190506140ec565b5050565b601f82111561414f5761412081613fef565b61412984614004565b81016020851015614138578190505b61414c61414485614004565b8301826140eb565b50505b505050565b600082821c905092915050565b600061417260001984600802614154565b1980831691505092915050565b600061418b8383614161565b9150826002028217905092915050565b6141a482613804565b67ffffffffffffffff8111156141bd576141bc613f60565b5b6141c78254613fbe565b6141d282828561410e565b600060209050601f83116001811461420557600084156141f3578287015190505b6141fd858261417f565b865550614265565b601f19841661421386613fef565b60005b8281101561423b57848901518255600182019150602085019450602081019050614216565b868310156142585784890151614254601f891682614161565b8355505b6001600288020188555050505b505050505050565b6142768161369e565b82525050565b6000606082019050614291600083018661426d565b61429e602083018561426d565b6142ab6040830184613df6565b949350505050565b60008115159050919050565b6142c8816142b3565b81146142d357600080fd5b50565b6000815190506142e5816142bf565b92915050565b60006020828403121561430157614300613674565b5b600061430f848285016142d6565b91505092915050565b7f4661696c656420746f207472616e73666572204e46542066726f6d206d73672e60008201527f73656e64657220746f20736d61727420636f6e74726163740000000000000000602082015250565b60006143746038836139fc565b915061437f82614318565b604082019050919050565b600060208201905081810360008301526143a381614367565b9050919050565b6000610120820190506143c0600083018c61426d565b6143cd602083018b61426d565b6143da604083018a613df6565b6143e76060830189613df6565b6143f46080830188613df6565b61440160a0830187613df6565b81810360c08301526144138186613a0d565b905061442260e0830185613df6565b614430610100830184613df6565b9a9950505050505050505050565b60006040820190506144536000830185613df6565b81810360208301526144658184613a0d565b90509392505050565b7f4e487b7100000000000000000000000000000000000000000000000000000000600052603260045260246000fd5b7f4e487b7100000000000000000000000000000000000000000000000000000000600052601160045260246000fd5b60006144d7826136dc565b91507fffffffffffffffffffffffffffffffffffffffffffffffffffffffffffffffff82036145095761450861449d565b5b600182019050919050565b600081905092915050565b600061452a82613804565b6145348185614514565b9350614544818560208601613820565b80840191505092915050565b600061455c828461451f565b915081905092915050565b7f73746174757341756374696f6e20697320696e76616c69642100000000000000600082015250565b600061459d6019836139fc565b91506145a882614567565b602082019050919050565b600060208201905081810360008301526145cc81614590565b9050919050565b7f416c7265616479207472616e7366657220617373657421000000000000000000600082015250565b60006146096017836139fc565b9150614614826145d3565b602082019050919050565b60006020820190508181036000830152614638816145fc565b9050919050565b600061464a826136dc565b9150614655836136dc565b9250828202614663816136dc565b9150828204841483151761467a5761467961449d565b5b5092915050565b6000604082019050614696600083018561426d565b6146a36020830184613df6565b9392505050565b60006040820190506146bf6000830185613df6565b6146cc6020830184613df6565b9392505050565b60006146de826136dc565b91506146e9836136dc565b92508282039050818111156147015761470061449d565b5b92915050565b6000614712826136dc565b915061471d836136dc565b92508282019050808211156147355761473461449d565b5b92915050565b7f696e76616c69642074696d652100000000000000000000000000000000000000600082015250565b6000614771600d836139fc565b915061477c8261473b565b602082019050919050565b600060208201905081810360008301526147a081614764565b9050919050565b7f696e76616c69642074696d6520746f207365744f70656e62696464696e67546960008201527f6d65210000000000000000000000000000000000000000000000000000000000602082015250565b60006148036023836139fc565b915061480e826147a7565b604082019050919050565b60006020820190508181036000830152614832816147f6565b9050919050565b7f4f776e6572206f662041756374696f6e20696420696e76616c69642100000000600082015250565b600061486f601c836139fc565b915061487a82614839565b602082019050919050565b6000602082019050818103600083015261489e81614862565b9050919050565b7f43616e206e6f742063616c63656c2061756374696f6e2e20426563617573652060008201527f74696d65206973206f7665722100000000000000000000000000000000000000602082015250565b6000614901602d836139fc565b915061490c826148a5565b604082019050919050565b60006020820190508181036000830152614930816148f4565b9050919050565b7f4143544956455f41554354494f4e000000000000000000000000000000000000600082015250565b600061496d600e83614514565b915061497882614937565b600e82019050919050565b600061498e82614960565b9150819050919050565b82818337600083830152505050565b60006149b38385614514565b93506149c0838584614998565b82840190509392505050565b60006149d98284866149a7565b91508190509392505050565b7f54696d65204f76657221212120506c6561736520636865636b696e672041756360008201527f74696f6e207363686564756c6520616761696e21000000000000000000000000602082015250565b6000614a416034836139fc565b9150614a4c826149e5565b604082019050919050565b60006020820190508181036000830152614a7081614a34565b9050919050565b7f4f66666572656420507269636520697320696e76616c69642121210000000000600082015250565b6000614aad601b836139fc565b9150614ab882614a77565b602082019050919050565b60006020820190508181036000830152614adc81614aa0565b9050919050565b6000602082019050614af8600083018461426d565b92915050565b600081519050614b0d816136e6565b92915050565b600060208284031215614b2957614b28613674565b5b6000614b3784828501614afe565b91505092915050565b7f57616c6c65742061646472657373206973206e6f7420656e6f7567682042514b60008201527f20746f6b656e20746f2062696421000000000000000000000000000000000000602082015250565b6000614b9c602e836139fc565b9150614ba782614b40565b604082019050919050565b60006020820190508181036000830152614bcb81614b8f565b9050919050565b6000606082019050614be76000830186613df6565b614bf4602083018561426d565b614c016040830184613df6565b949350505050565b7f696e76616c69642074696d652062696464696e67210000000000000000000000600082015250565b6000614c3f6015836139fc565b9150614c4a82614c09565b602082019050919050565b60006020820190508181036000830152614c6e81614c32565b9050919050565b6000819050919050565b614c90614c8b826136dc565b614c75565b82525050565b6000819050919050565b6000819050919050565b614cbb614cb682614c96565b614ca0565b82525050565b60008160601b9050919050565b6000614cd982614cc1565b9050919050565b6000614ceb82614cce565b9050919050565b614d03614cfe8261369e565b614ce0565b82525050565b6000614d158287614c7f565b602082019150614d258286614caa565b602082019150614d358285614cf2565b601482019150614d458284614c7f565b60208201915081905095945050505050565b7f4e487b7100000000000000000000000000000000000000000000000000000000600052601260045260246000fd5b6000614d91826136dc565b9150614d9c836136dc565b925082614dac57614dab614d57565b5b82820690509291505056fea26469706673582212203cd803c27a2b72b26920df55749c102f28064a137b34cd344ff691bf1239b17664736f6c63430008130033",
  "immutableReferences": {},
  "source": "// SPDX-License-Identifier: MIT\r\npragma solidity ^0.8.9;\r\n\r\nimport \"@openzeppelin/contracts/token/ERC20/IERC20.sol\";\r\nimport \"@openzeppelin/contracts/token/ERC721/IERC721.sol\";\r\nimport \"@openzeppelin/contracts/utils/Strings.sol\";\r\nimport \"@openzeppelin/contracts/utils/structs/EnumerableMap.sol\";\r\n\r\ncontract Bidnow {\r\n\r\n    /**\r\n    ====================================================================================================================================================\r\n        Default variables\r\n    ====================================================================================================================================================\r\n     */\r\n    \r\n    address private ownerBidNowContract;\r\n\r\n    address private BQKContract;\r\n\r\n    uint256 private constant LISTING_FREE = 10000000000000000000; // 10 BQR token\r\n\r\n    uint256 private constant NOT_TRANSFER_ASSET = 0;\r\n\r\n    uint256 private constant ALREADY_TRANSFER_ASSET = 1;\r\n\r\n    /**\r\n    ====================================================================================================================================================\r\n        Constructor\r\n    ====================================================================================================================================================\r\n     */\r\n\r\n    constructor(\r\n        address _BQKContract\r\n    ) {\r\n        BQKContract = _BQKContract;\r\n    }\r\n\r\n\r\n    /**\r\n    ====================================================================================================================================================\r\n        Auction struct and list Auction\r\n    ====================================================================================================================================================\r\n     */\r\n     \r\n    // Auction struct\r\n    struct Auction {\r\n        address ownerAuction;\r\n        address nftContract;\r\n        uint256 tokenId;\r\n        uint256 initialPrice;\r\n        uint256 openBiddingTime;\r\n        uint256 closeBiddingTime;\r\n        string statusAuction;\r\n        uint256 transferAssetStatus;\r\n    }\r\n\r\n    // List All Auction\r\n    Auction[] private listAllAuction;\r\n\r\n\r\n    /**\r\n    ====================================================================================================================================================\r\n        Mapping \r\n    ====================================================================================================================================================\r\n     */\r\n\r\n    // Owner of list auction \r\n    mapping(address => Auction[]) private ownerToListAuction;\r\n    // a uuid to manage an Auction\r\n    mapping(uint256 => Auction) private uuidToAuction;\r\n\r\n\r\n\r\n    /**\r\n    ====================================================================================================================================================\r\n        CreateNewAuction function\r\n    ====================================================================================================================================================\r\n     */\r\n\r\n    // Any bidder has NFT can call this function to list an auction on BidNow Dapp\r\n    function createNewAuction(\r\n        address nftContract,\r\n        uint256 tokenId,\r\n        uint256 initialPrice,\r\n        uint256 openBiddingTime,\r\n        uint256 closeBiddingTime \r\n    ) \r\n    public payable\r\n    isOwnerOfNFT(nftContract, tokenId, msg.sender)\r\n    {\r\n        // checking openBiddingTime and closeBiddingTime are valid\r\n        require(openBiddingTime < closeBiddingTime, \"Setting time is invalid!\");\r\n\r\n        // create a new auction\r\n        // string memory statusAuction = setStatusAuction(openBiddingTime, closeBiddingTime);\r\n        // uint256 transferAssetStatus = NOT_TRANSFER_ASSET;\r\n        Auction memory auction = Auction(\r\n                            msg.sender,\r\n                            nftContract,\r\n                            tokenId,\r\n                            initialPrice,\r\n                            openBiddingTime,\r\n                            closeBiddingTime,\r\n                            setStatusAuction(openBiddingTime, closeBiddingTime),\r\n                            NOT_TRANSFER_ASSET\r\n                        );\r\n\r\n        // add new auction item to listAuction (all auctions)\r\n        listAllAuction.push(auction);\r\n\r\n        // add new auction item to listAuction of owner\r\n        ownerToListAuction[msg.sender].push(auction);\r\n\r\n        // Assign a new auction to uuid\r\n        // uint256 uuid = getUniqueNumber();\r\n        uuidToAuction[getUniqueNumber()] = auction;\r\n\r\n        // nft owner purchase LISTING_FEE\r\n        IERC20(BQKContract).transferFrom(\r\n            msg.sender,\r\n            address(this),\r\n            LISTING_FREE\r\n        );\r\n\r\n        // send NFT from msg.sender (owner wallet) to smart contract\r\n        IERC721(nftContract).transferFrom(\r\n            msg.sender,\r\n            address(this),\r\n            tokenId\r\n        );\r\n\r\n        // checking that send NFT is succeed?\r\n        require(\r\n            IERC721(nftContract).ownerOf(tokenId) == address(this), \r\n            \"Failed to transfer NFT from msg.sender to smart contract\"\r\n        );\r\n\r\n        // emit \r\n        emit CreatingAuctionEvent(\r\n            msg.sender,\r\n            nftContract,\r\n            tokenId,\r\n            initialPrice,\r\n            openBiddingTime,\r\n            closeBiddingTime,\r\n            setStatusAuction(openBiddingTime, closeBiddingTime),\r\n            NOT_TRANSFER_ASSET,\r\n            getUniqueNumber()\r\n        );\r\n    }\r\n\r\n    // this function to get a number as uuid \r\n    uint256 counter;\r\n    mapping(uint256 => bool) usedValues;\r\n\r\n    function getUniqueNumber() internal returns(uint256 uuid) {\r\n        uint256 randomValue = uint256(keccak256(abi.encodePacked(block.timestamp, blockhash(block.number - 1), msg.sender, counter)));\r\n        uint256 uniqueNumber = randomValue % 1000000; // limit to 6 digits\r\n\r\n        while (usedValues[uniqueNumber]) {\r\n            counter++;\r\n            randomValue = uint256(keccak256(abi.encodePacked(block.timestamp, blockhash(block.number - 1), msg.sender, counter)));\r\n            uniqueNumber = randomValue % 1000000;\r\n        }\r\n\r\n        usedValues[uniqueNumber] = true;\r\n        counter++;\r\n        return uniqueNumber;\r\n    }\r\n\r\n\r\n    /**\r\n    ====================================================================================================================================================\r\n        CancelAuction function\r\n    ====================================================================================================================================================\r\n     */\r\n    // this function to calcel an auction\r\n    function CancelAuction(\r\n        uint256 uuid\r\n    ) \r\n    public\r\n    {\r\n        // checking msg.sender is owner of the auction which is canceled\r\n        Auction memory auction = uuidToAuction[uuid];\r\n        // address ownerAuction = auction.ownerAuction;\r\n        // address nftContract = auction.nftContract;\r\n        // uint256 tokenId = auction.tokenId;\r\n\r\n        // IERC721 nft = IERC721(nftContract);\r\n        // address owner = nft.ownerOf(tokenId);\r\n        require(auction.ownerAuction == IERC721(auction.nftContract).ownerOf(auction.tokenId), \"Owner of Auction id invalid!\");\r\n\r\n        // checking time valid to calcel\r\n        // uint256 closeBiddingTime = auction.closeBiddingTime;\r\n        // uint256 pointTimestamp = block.timestamp;\r\n        require(block.timestamp < auction.closeBiddingTime, \"Can not calcel auction. Because time is over!\");\r\n\r\n        /**\r\n        execute logic code: re-send nft to owner, re-send BQK token to bidders is only for active auction\r\n         */\r\n\r\n        if(keccak256(abi.encodePacked(auction.statusAuction)) == keccak256(abi.encodePacked(\"ACTIVE_AUCTION\"))) {\r\n            // re-send nft to owner of auction\r\n            IERC721(auction.nftContract).transferFrom(\r\n                address(this),\r\n                auction.ownerAuction,\r\n                auction.tokenId\r\n            );\r\n\r\n            // get list bidder and re-send token to all \r\n            BidderInfor[] memory bidderInforList = uuidToListBidderInfo[uuid];\r\n\r\n            // return BQK token to other bidder\r\n            for(uint256 i = 0; i < bidderInforList.length; i++) {\r\n                IERC20(BQKContract).transfer(\r\n                    bidderInforList[i].bidderAddress,\r\n                    bidderInforList[i].offeredPrice * (10 ** 18)\r\n                );\r\n            }            \r\n        }\r\n\r\n        // delete auction\r\n\r\n        // update data\r\n        auction.openBiddingTime = 0;\r\n        auction.closeBiddingTime = 1; // ensure that closeBiddingTime is bigger than openBiddingTime\r\n        auction.statusAuction = \"ENDED_AUCTION\";\r\n        auction.transferAssetStatus = ALREADY_TRANSFER_ASSET;\r\n\r\n        emit CancelingAuctionEvent(\r\n            auction.ownerAuction,\r\n            auction.nftContract,\r\n            auction.tokenId,\r\n            auction.initialPrice,\r\n            auction.openBiddingTime,\r\n            auction.closeBiddingTime,\r\n            auction.statusAuction,\r\n            auction.transferAssetStatus,\r\n            uuid\r\n        );\r\n    }\r\n\r\n\r\n\r\n    /**\r\n    ====================================================================================================================================================\r\n        joinAuction function\r\n    ====================================================================================================================================================\r\n     */\r\n\r\n    // Bidder struct\r\n    struct BidderInfor {\r\n        address bidderAddress;\r\n        uint256 offeredPrice;\r\n    }\r\n\r\n    // this mapping to manage a list contains address and offered price of bidder each bidding time.\r\n    mapping(uint256 => BidderInfor[]) private uuidToListBidderInfo;\r\n\r\n    // this function is used for Bidder can join auction\r\n    function joinAuction(\r\n        uint256 uuid,\r\n        uint256 offeredPrice\r\n    ) public payable\r\n    isCorrectAuctionTime(uuid) \r\n    {\r\n        // checking that offeredPrice is valid\r\n        Auction memory auction = uuidToAuction[uuid];\r\n        require(offeredPrice > auction.initialPrice, \"Offered Price is invalid!!!\");\r\n\r\n        // checking that msg.sender is enough token to bid\r\n        uint256 balanceBQK = IERC20(BQKContract).balanceOf(msg.sender);\r\n        require(balanceBQK >= offeredPrice, \"Wallet address is not enough BQK token to bid!\");\r\n\r\n        // transfer BQK token from bidder's wallet to smart contract.\r\n        IERC20(BQKContract).transferFrom(\r\n            msg.sender,\r\n            address(this),\r\n            offeredPrice * (10**18)\r\n        );\r\n\r\n        // create new BidderInfor and push it to list\r\n        BidderInfor memory bidderInfor = BidderInfor(\r\n            msg.sender,\r\n            offeredPrice\r\n        );\r\n\r\n        uuidToListBidderInfo[uuid].push(bidderInfor);\r\n\r\n        emit BiddingAuctionEvent(\r\n            uuid,\r\n            msg.sender,\r\n            offeredPrice\r\n        );\r\n    }\r\n\r\n    /**\r\n    ====================================================================================================================================================\r\n        transferAssetAfterAuctionEnd function\r\n    ====================================================================================================================================================\r\n     */\r\n\r\n    // function to execute logic that: transfer NFT to the winner and trnasfer BQK token to old owner of NFT aftwer auction ends\r\n    function transferAssetAfterAuctionEnd(uint256 uuid) external {\r\n        // get list bidder of auction has uuid\r\n        BidderInfor[] memory bidderInforList = uuidToListBidderInfo[uuid];\r\n\r\n        // get winner of this auction\r\n        BidderInfor memory winner = getTheWinnerOfAuction(uuid);\r\n\r\n        Auction memory auction = uuidToAuction[uuid];\r\n\r\n        // checking auction is ended\r\n        require(keccak256(abi.encodePacked(auction.statusAuction)) == \"ENDED_AUCTION\", \"statusAuction is invalid!\");\r\n\r\n        // checking that auction is non-ready transfer asset\r\n        require(auction.transferAssetStatus == NOT_TRANSFER_ASSET, \"Already transfer asset!\");\r\n\r\n        // transfer NFT from SMC to winner\r\n        IERC721(auction.nftContract).transferFrom(\r\n            address(this),\r\n            winner.bidderAddress,\r\n            auction.tokenId\r\n        );\r\n\r\n        // transfer BQK token from SMC to old owner\r\n        IERC20(BQKContract).transfer(\r\n            auction.ownerAuction,\r\n            winner.offeredPrice * (10 ** 18)\r\n        );\r\n\r\n        // return BQK token to other bidder\r\n        for(uint256 i = 0; i < bidderInforList.length; i++) {\r\n            if (bidderInforList[i].bidderAddress != winner.bidderAddress) {\r\n                IERC20(BQKContract).transfer(\r\n                    bidderInforList[i].bidderAddress,\r\n                    bidderInforList[i].offeredPrice * (10 ** 18)\r\n                );\r\n            }\r\n        }\r\n\r\n        auction.transferAssetStatus = ALREADY_TRANSFER_ASSET;\r\n\r\n        emit TransferingAssetEvent(\r\n            uuid,\r\n            auction.transferAssetStatus\r\n        );\r\n    }\r\n\r\n    // function to get the winner of the auction with its uuid\r\n    function getTheWinnerOfAuction(uint256 uuid) public view returns(BidderInfor memory) {\r\n        BidderInfor[] memory bidderInforList = uuidToListBidderInfo[uuid];\r\n\r\n        uint256 len = bidderInforList.length;\r\n\r\n        for (uint256 i = 0; i < len - 1; i++) {\r\n            for (uint256 j = 0; j < len - 1 - i; j++) {\r\n                if (bidderInforList[j].offeredPrice > bidderInforList[j+1].offeredPrice) {\r\n                    uint256 temp = bidderInforList[j].offeredPrice;\r\n                    bidderInforList[j].offeredPrice = bidderInforList[j+1].offeredPrice;\r\n                    bidderInforList[j+1].offeredPrice = temp;\r\n                }\r\n            }\r\n        }\r\n\r\n        return bidderInforList[len-1];\r\n    }\r\n\r\n\r\n\r\n    /**\r\n    ====================================================================================================================================================\r\n        updateStatusAuction and updateStatusAllAuction function\r\n    ====================================================================================================================================================\r\n     */\r\n\r\n    // this function to update statusAUction for an auction which identify by uuid\r\n    function updateStatusAuction(uint256 uuid) public {\r\n        Auction memory auction = uuidToAuction[uuid];\r\n\r\n        auction.statusAuction = setStatusAuction(auction.openBiddingTime, auction.closeBiddingTime);\r\n\r\n        emit updatingStatusAuctionEvent(\r\n            uuid,\r\n            auction.statusAuction\r\n        );\r\n    }\r\n\r\n    // this function to update statusAuction for all auction \r\n    function updateStatusAllAuction() public returns(Auction[] memory) {\r\n        for(uint256 i = 0; i < listAllAuction.length; i++) {\r\n            listAllAuction[i].statusAuction = setStatusAuction(\r\n                listAllAuction[i].openBiddingTime,\r\n                listAllAuction[i].closeBiddingTime\r\n            );\r\n        }\r\n\r\n        return listAllAuction;\r\n    }\r\n\r\n    // this function to get current status of auction\r\n    function setStatusAuction(uint256 openBiddingTime, uint256 closeBiddingTime) internal view returns(string memory) {\r\n        // checking time valid\r\n        require(openBiddingTime < closeBiddingTime, \"invalid time bidding!\");\r\n\r\n        uint256 pointTimestamp = block.timestamp;\r\n\r\n        if (pointTimestamp < openBiddingTime) {\r\n            return \"UPCOMING_AUCTION\";\r\n        } else if (pointTimestamp > closeBiddingTime) {\r\n            return \"ENDED_AUCTION\";\r\n        } else {\r\n            return \"ACTIVE_AUCTION\";\r\n        }\r\n    }\r\n\r\n\r\n    /**\r\n    ====================================================================================================================================================\r\n        Events\r\n    ====================================================================================================================================================\r\n     */\r\n\r\n    \r\n    event CreatingAuctionEvent(\r\n        address ownerOfAuction,\r\n        address nftContract,\r\n        uint256 tokenId,\r\n        uint256 initialPrice,\r\n        uint256 openBiddingTime,\r\n        uint256 closeBiddingTime,\r\n        string statusAuction,\r\n        uint256 transferAssetStatus,\r\n        uint256 uuid\r\n    );\r\n\r\n    event CancelingAuctionEvent(\r\n        address ownerOfAuction,\r\n        address nftContract,\r\n        uint256 tokenId,\r\n        uint256 initialPrice,\r\n        uint256 openBiddingTime,\r\n        uint256 closeBiddingTime,\r\n        string statusAuction,\r\n        uint256 transferAssetStatus,\r\n        uint256 uuid\r\n    );\r\n\r\n    event BiddingAuctionEvent(\r\n        uint256 uuid,\r\n        address spender,\r\n        uint256 offeredPrice\r\n    );\r\n\r\n    event TransferingAssetEvent(\r\n        uint256 uuid,\r\n        uint256 transferAssetStatus\r\n    );\r\n\r\n    event updatingStatusAuctionEvent(\r\n        uint256 uuid,\r\n        string statusAuction\r\n    );\r\n\r\n\r\n\r\n\r\n\r\n\r\n    /**\r\n    ====================================================================================================================================================\r\n        Modifiers\r\n    ====================================================================================================================================================\r\n     */\r\n     \r\n    modifier isOwnerOfNFT(\r\n        address nftContract,\r\n        uint256 tokenId,\r\n        address spender\r\n    ) {\r\n        IERC721 nft = IERC721(nftContract);\r\n        address owner = nft.ownerOf(tokenId);\r\n        if (spender != owner) {\r\n            revert(\"The spender is not owner of this NFT!!!\");\r\n        }\r\n        _;\r\n    }\r\n\r\n    modifier isCorrectAuctionTime(\r\n        uint256 uuid\r\n    ) {\r\n        Auction memory auction = uuidToAuction[uuid];\r\n\r\n        uint256 openBiddingTime = auction.openBiddingTime;\r\n        uint256 closeBiddingTime = auction.closeBiddingTime;\r\n\r\n        // execute compare open and close time with current time \r\n        uint256 pointTimestamp = block.timestamp;\r\n\r\n        require(\r\n            (pointTimestamp > openBiddingTime) && (pointTimestamp < closeBiddingTime),\r\n            \"Time Over!!! Please checking Auction schedule again!\"\r\n        );\r\n        _;\r\n    }\r\n\r\n\r\n\r\n\r\n\r\n\r\n    /**\r\n    ====================================================================================================================================================\r\n        Get function\r\n    ====================================================================================================================================================\r\n     */\r\n\r\n    // this function to get all auction in BidNow Dapp\r\n    function getAllAuction() public view returns(Auction[] memory) {\r\n        return listAllAuction;\r\n    }\r\n\r\n    // this function to get auction flow by statusAuction\r\n    function getListAuctionFromStatus(string calldata statusAuction) public view returns(Auction[] memory) {\r\n        // update statusAuction before get list => call this function updateStatusAllAuction();\r\n\r\n        uint256 count = 0;\r\n\r\n        for(uint256 i = 0; i < listAllAuction.length; i++) {\r\n            Auction memory auction = listAllAuction[i];\r\n\r\n            if(keccak256(abi.encodePacked(auction.statusAuction)) == keccak256(abi.encodePacked(statusAuction))) {\r\n                count++;\r\n            } \r\n        }\r\n\r\n        Auction[] memory listAuctionByStatus = new Auction[](count);\r\n        count = 0;\r\n\r\n        for(uint256 i = 0; i < listAllAuction.length; i++) {\r\n            Auction memory auction = listAllAuction[i];\r\n\r\n            if(keccak256(abi.encodePacked(auction.statusAuction)) == keccak256(abi.encodePacked(statusAuction))) {\r\n                listAuctionByStatus[count] = auction;\r\n                count++;\r\n                // listAuctionByStatus.push(auction);\r\n            } \r\n        }\r\n\r\n        return listAuctionByStatus;\r\n    }\r\n\r\n    // get auction from uuid\r\n    function getAuctionFromUuid(uint256 uuid) public view returns(Auction memory) {\r\n        return uuidToAuction[uuid];\r\n    }\r\n\r\n    // get status Auction from uuid\r\n    function getStatusAuctionFromUUID(uint256 uuid) public view returns(string memory) {\r\n        Auction memory auction = uuidToAuction[uuid];\r\n        \r\n        return auction.statusAuction;\r\n    }\r\n\r\n    // get list Bidder from uuid\r\n    function getListBidderFromUUID(uint256 uuid) public view returns(BidderInfor[] memory) {\r\n        return uuidToListBidderInfo[uuid];\r\n    }\r\n\r\n    // get list auction of spender\r\n    function getListAuctionOfSpender(address spender) public view returns(Auction[] memory) {\r\n        return ownerToListAuction[spender];\r\n    }\r\n\r\n\r\n    /**\r\n    ====================================================================================================================================================\r\n        Set function\r\n    ====================================================================================================================================================\r\n     */\r\n\r\n    function setOpenBiddingTime(\r\n        uint256 uuid, \r\n        uint256 openBiddingTime,\r\n        uint256 closeBiddingTime\r\n    ) public view {\r\n\r\n        require(openBiddingTime < closeBiddingTime, \"invalid time!\");\r\n\r\n        Auction memory auction = uuidToAuction[uuid];\r\n\r\n        // checking that auction must upcoming status\r\n        uint256 pointTimestamp = block.timestamp;\r\n        require(auction.openBiddingTime > pointTimestamp, \"invalid time to setOpenbiddingTime!\");\r\n\r\n        // update\r\n        auction.openBiddingTime = openBiddingTime;\r\n        auction.closeBiddingTime = closeBiddingTime;\r\n    }\r\n}",
  "sourcePath": "D:\\UET\\Blockchain_INT3231E\\bidnow-blockchain\\contracts\\BidNow.sol",
  "compiler": {
    "name": "solc",
    "version": "0.8.19+commit.7dd6d404.Emscripten.clang"
  },
  "schemaVersion": "3.4.10",
  "updatedAt": "2023-04-12T17:10:17.814Z",
  "devdoc": {
    "kind": "dev",
    "methods": {},
    "version": 1
  },
  "userdoc": {
    "events": {
      "CreatingAuctionEvent(address,address,uint256,uint256,uint256,uint256,string,uint256,uint256)": {
        "notice": "==================================================================================================================================================== Events ===================================================================================================================================================="
      }
    },
    "kind": "user",
    "methods": {
      "CancelAuction(uint256)": {
        "notice": "==================================================================================================================================================== CancelAuction function ===================================================================================================================================================="
      },
      "constructor": {
        "notice": "==================================================================================================================================================== Constructor ===================================================================================================================================================="
      },
      "createNewAuction(address,uint256,uint256,uint256,uint256)": {
        "notice": "==================================================================================================================================================== CreateNewAuction function ===================================================================================================================================================="
      },
      "getAllAuction()": {
        "notice": "==================================================================================================================================================== Get function ===================================================================================================================================================="
      },
      "setOpenBiddingTime(uint256,uint256,uint256)": {
        "notice": "==================================================================================================================================================== Set function ===================================================================================================================================================="
      },
      "transferAssetAfterAuctionEnd(uint256)": {
        "notice": "==================================================================================================================================================== transferAssetAfterAuctionEnd function ===================================================================================================================================================="
      },
      "updateStatusAuction(uint256)": {
        "notice": "==================================================================================================================================================== updateStatusAuction and updateStatusAllAuction function ===================================================================================================================================================="
      }
    },
    "version": 1
  }
}