{
  "contractName": "Bidnow",
  "abi": [
    {
      "inputs": [
        {
          "internalType": "address",
          "name": "_tokenContract",
          "type": "address"
        }
      ],
      "stateMutability": "nonpayable",
      "type": "constructor"
    },
    {
      "anonymous": false,
      "inputs": [
        {
          "indexed": false,
          "internalType": "uint256",
          "name": "uuid",
          "type": "uint256"
        },
        {
          "indexed": false,
          "internalType": "address",
          "name": "spender",
          "type": "address"
        },
        {
          "indexed": false,
          "internalType": "uint256",
          "name": "offeredPrice",
          "type": "uint256"
        }
      ],
      "name": "BiddingAuctionEvent",
      "type": "event"
    },
    {
      "anonymous": false,
      "inputs": [
        {
          "indexed": false,
          "internalType": "address",
          "name": "ownerOfAuction",
          "type": "address"
        },
        {
          "indexed": false,
          "internalType": "address",
          "name": "nftContract",
          "type": "address"
        },
        {
          "indexed": false,
          "internalType": "uint256",
          "name": "tokenId",
          "type": "uint256"
        },
        {
          "indexed": false,
          "internalType": "uint256",
          "name": "initialPrice",
          "type": "uint256"
        },
        {
          "indexed": false,
          "internalType": "uint256",
          "name": "openBiddingTime",
          "type": "uint256"
        },
        {
          "indexed": false,
          "internalType": "uint256",
          "name": "closeBiddingTime",
          "type": "uint256"
        },
        {
          "indexed": false,
          "internalType": "string",
          "name": "statusAuction",
          "type": "string"
        },
        {
          "indexed": false,
          "internalType": "uint256",
          "name": "transferAssetStatus",
          "type": "uint256"
        },
        {
          "indexed": false,
          "internalType": "uint256",
          "name": "uuid",
          "type": "uint256"
        }
      ],
      "name": "CancelingAuctionEvent",
      "type": "event"
    },
    {
      "anonymous": false,
      "inputs": [
        {
          "indexed": false,
          "internalType": "address",
          "name": "ownerOfAuction",
          "type": "address"
        },
        {
          "indexed": false,
          "internalType": "address",
          "name": "nftContract",
          "type": "address"
        },
        {
          "indexed": false,
          "internalType": "uint256",
          "name": "tokenId",
          "type": "uint256"
        },
        {
          "indexed": false,
          "internalType": "uint256",
          "name": "initialPrice",
          "type": "uint256"
        },
        {
          "indexed": false,
          "internalType": "uint256",
          "name": "openBiddingTime",
          "type": "uint256"
        },
        {
          "indexed": false,
          "internalType": "uint256",
          "name": "closeBiddingTime",
          "type": "uint256"
        },
        {
          "indexed": false,
          "internalType": "string",
          "name": "statusAuction",
          "type": "string"
        },
        {
          "indexed": false,
          "internalType": "uint256",
          "name": "transferAssetStatus",
          "type": "uint256"
        },
        {
          "indexed": false,
          "internalType": "uint256",
          "name": "uuid",
          "type": "uint256"
        }
      ],
      "name": "CreatingAuctionEvent",
      "type": "event"
    },
    {
      "anonymous": false,
      "inputs": [
        {
          "indexed": false,
          "internalType": "uint256",
          "name": "uuid",
          "type": "uint256"
        },
        {
          "indexed": false,
          "internalType": "uint256",
          "name": "transferAssetStatus",
          "type": "uint256"
        }
      ],
      "name": "TransferingAssetEvent",
      "type": "event"
    },
    {
      "anonymous": false,
      "inputs": [
        {
          "indexed": false,
          "internalType": "uint256",
          "name": "uuid",
          "type": "uint256"
        },
        {
          "indexed": false,
          "internalType": "string",
          "name": "statusAuction",
          "type": "string"
        }
      ],
      "name": "updatingStatusAuctionEvent",
      "type": "event"
    },
    {
      "inputs": [
        {
          "internalType": "address",
          "name": "nftContract",
          "type": "address"
        },
        {
          "internalType": "uint256",
          "name": "tokenId",
          "type": "uint256"
        },
        {
          "internalType": "uint256",
          "name": "initialPrice",
          "type": "uint256"
        },
        {
          "internalType": "uint256",
          "name": "openBiddingTime",
          "type": "uint256"
        },
        {
          "internalType": "uint256",
          "name": "closeBiddingTime",
          "type": "uint256"
        }
      ],
      "name": "createNewAuction",
      "outputs": [],
      "stateMutability": "payable",
      "type": "function"
    },
    {
      "inputs": [
        {
          "internalType": "uint256",
          "name": "uuid",
          "type": "uint256"
        }
      ],
      "name": "CancelAuction",
      "outputs": [],
      "stateMutability": "nonpayable",
      "type": "function"
    },
    {
      "inputs": [
        {
          "internalType": "uint256",
          "name": "uuid",
          "type": "uint256"
        },
        {
          "internalType": "uint256",
          "name": "offeredPrice",
          "type": "uint256"
        }
      ],
      "name": "bidAuction",
      "outputs": [],
      "stateMutability": "payable",
      "type": "function"
    },
    {
      "inputs": [
        {
          "internalType": "uint256",
          "name": "uuid",
          "type": "uint256"
        }
      ],
      "name": "transferAssetAfterAuctionEnd",
      "outputs": [],
      "stateMutability": "nonpayable",
      "type": "function"
    },
    {
      "inputs": [
        {
          "internalType": "uint256",
          "name": "uuid",
          "type": "uint256"
        },
        {
          "internalType": "uint256",
          "name": "openBiddingTime",
          "type": "uint256"
        },
        {
          "internalType": "uint256",
          "name": "closeBiddingTime",
          "type": "uint256"
        }
      ],
      "name": "setOpenBiddingTime",
      "outputs": [],
      "stateMutability": "view",
      "type": "function"
    }
  ],
  "bytecode": "0x60806040523480156200001157600080fd5b5060405162002fbf38038062002fbf8339818101604052810190620000379190620000e9565b80600160006101000a81548173ffffffffffffffffffffffffffffffffffffffff021916908373ffffffffffffffffffffffffffffffffffffffff160217905550506200011b565b600080fd5b600073ffffffffffffffffffffffffffffffffffffffff82169050919050565b6000620000b18262000084565b9050919050565b620000c381620000a4565b8114620000cf57600080fd5b50565b600081519050620000e381620000b8565b92915050565b6000602082840312156200010257620001016200007f565b5b60006200011284828501620000d2565b91505092915050565b612e94806200012b6000396000f3fe60806040526004361061004a5760003560e01c80630dde4fe21461004f5780634e55264c1461006b5780637587b4df1461009457806377ee1e1f146100b0578063bea0e66c146100d9575b600080fd5b61006960048036038101906100649190611e62565b610102565b005b34801561007757600080fd5b50610092600480360381019061008d9190611edd565b61046c565b005b6100ae60048036038101906100a99190611f0a565b6107ff565b005b3480156100bc57600080fd5b506100d760048036038101906100d29190611f4a565b610f14565b005b3480156100e557600080fd5b5061010060048036038101906100fb9190611edd565b61114f565b005b848433600083905060008173ffffffffffffffffffffffffffffffffffffffff16636352211e856040518263ffffffff1660e01b81526004016101459190611fac565b602060405180830381865afa158015610162573d6000803e3d6000fd5b505050506040513d601f19601f820116820180604052508101906101869190611fdc565b90508073ffffffffffffffffffffffffffffffffffffffff168373ffffffffffffffffffffffffffffffffffffffff16146101f6576040517f08c379a00000000000000000000000000000000000000000000000000000000081526004016101ed9061208c565b60405180910390fd5b864210801561020457508587105b610243576040517f08c379a000000000000000000000000000000000000000000000000000000000815260040161023a906120f8565b60405180910390fd5b60006040518061010001604052803373ffffffffffffffffffffffffffffffffffffffff1681526020018c73ffffffffffffffffffffffffffffffffffffffff1681526020018b81526020018a8152602001898152602001888152602001600081526020016040518060400160405280601081526020017f5550434f4d494e475f41554354494f4e00000000000000000000000000000000815250815250905060006102ee8261174c565b90506102fa8c8c61184f565b3073ffffffffffffffffffffffffffffffffffffffff168c73ffffffffffffffffffffffffffffffffffffffff16636352211e8d6040518263ffffffff1660e01b815260040161034a9190611fac565b602060405180830381865afa158015610367573d6000803e3d6000fd5b505050506040513d601f19601f8201168201806040525081019061038b9190611fdc565b73ffffffffffffffffffffffffffffffffffffffff16146103e1576040517f08c379a00000000000000000000000000000000000000000000000000000000081526004016103d89061218a565b60405180910390fd5b7f4e9226da3237bc1788bd8d919d1fa0d9d18e602bfc8c6ccf83f306fcf6f9d9ba338d8d8d8d8d6040518060400160405280601081526020017f5550434f4d494e475f41554354494f4e0000000000000000000000000000000081525060008960405161045699989796959493929190612238565b60405180910390a1505050505050505050505050565b600060036000838152602001908152602001600020805480602002602001604051908101604052809291908181526020016000905b8282101561053357838290600052602060002090600202016040518060400160405290816000820160009054906101000a900473ffffffffffffffffffffffffffffffffffffffff1673ffffffffffffffffffffffffffffffffffffffff1673ffffffffffffffffffffffffffffffffffffffff168152602001600182015481525050815260200190600101906104a1565b50505050905060006105448361196e565b90506002600084815260200190815260200160002060010160009054906101000a900473ffffffffffffffffffffffffffffffffffffffff1673ffffffffffffffffffffffffffffffffffffffff166323b872dd30836000015160026000888152602001908152602001600020600201546040518463ffffffff1660e01b81526004016105d3939291906122cc565b600060405180830381600087803b1580156105ed57600080fd5b505af1158015610601573d6000803e3d6000fd5b5050505061065c6002600085815260200190815260200160002060000160009054906101000a900473ffffffffffffffffffffffffffffffffffffffff16670de0b6b3a764000083602001516106579190612332565b611bbb565b6000825111156107365760005b825181101561073457816000015173ffffffffffffffffffffffffffffffffffffffff168382815181106106a05761069f612374565b5b60200260200101516000015173ffffffffffffffffffffffffffffffffffffffff1614610721576107208382815181106106dd576106dc612374565b5b602002602001015160000151670de0b6b3a764000085848151811061070557610704612374565b5b60200260200101516020015161071b9190612332565b611bbb565b5b808061072c906123a3565b915050610669565b505b6040518060400160405280600d81526020017f454e4445445f41554354494f4e0000000000000000000000000000000000000081525060026000858152602001908152602001600020600701908161078e9190612626565b50600160026000858152602001908152602001600020600601819055507fc5ff0d3db2ab5b42eeea950e6049fb1d9c7e3405bdb011bb8e0f73f66ffd07368360026000868152602001908152602001600020600601546040516107f29291906126f8565b60405180910390a1505050565b81600073ffffffffffffffffffffffffffffffffffffffff166002600083815260200190815260200160002060000160009054906101000a900473ffffffffffffffffffffffffffffffffffffffff1673ffffffffffffffffffffffffffffffffffffffff16036108a5576040517f08c379a000000000000000000000000000000000000000000000000000000000815260040161089c90612793565b60405180910390fd5b600060026000838152602001908152602001600020604051806101000160405290816000820160009054906101000a900473ffffffffffffffffffffffffffffffffffffffff1673ffffffffffffffffffffffffffffffffffffffff1673ffffffffffffffffffffffffffffffffffffffff1681526020016001820160009054906101000a900473ffffffffffffffffffffffffffffffffffffffff1673ffffffffffffffffffffffffffffffffffffffff1673ffffffffffffffffffffffffffffffffffffffff16815260200160028201548152602001600382015481526020016004820154815260200160058201548152602001600682015481526020016007820180546109b490612449565b80601f01602080910402602001604051908101604052809291908181526020018280546109e090612449565b8015610a2d5780601f10610a0257610100808354040283529160200191610a2d565b820191906000526020600020905b815481529060010190602001808311610a1057829003601f168201915b505050505081525050905060008160800151905060008260a00151905060004290508281118015610a5d57508181105b610a9c576040517f08c379a0000000000000000000000000000000000000000000000000000000008152600401610a9390612825565b60405180910390fd5b600060026000898152602001908152602001600020604051806101000160405290816000820160009054906101000a900473ffffffffffffffffffffffffffffffffffffffff1673ffffffffffffffffffffffffffffffffffffffff1673ffffffffffffffffffffffffffffffffffffffff1681526020016001820160009054906101000a900473ffffffffffffffffffffffffffffffffffffffff1673ffffffffffffffffffffffffffffffffffffffff1673ffffffffffffffffffffffffffffffffffffffff1681526020016002820154815260200160038201548152602001600482015481526020016005820154815260200160068201548152602001600782018054610bab90612449565b80601f0160208091040260200160405190810160405280929190818152602001828054610bd790612449565b8015610c245780601f10610bf957610100808354040283529160200191610c24565b820191906000526020600020905b815481529060010190602001808311610c0757829003601f168201915b505050505081525050905080606001518711610c75576040517f08c379a0000000000000000000000000000000000000000000000000000000008152600401610c6c90612891565b60405180910390fd5b6000600160009054906101000a900473ffffffffffffffffffffffffffffffffffffffff1673ffffffffffffffffffffffffffffffffffffffff166370a08231336040518263ffffffff1660e01b8152600401610cd291906128b1565b602060405180830381865afa158015610cef573d6000803e3d6000fd5b505050506040513d601f19601f82011682018060405250810190610d1391906128e1565b905087811015610d58576040517f08c379a0000000000000000000000000000000000000000000000000000000008152600401610d4f90612980565b60405180910390fd5b600160009054906101000a900473ffffffffffffffffffffffffffffffffffffffff1673ffffffffffffffffffffffffffffffffffffffff166323b872dd3330670de0b6b3a76400008c610dac9190612332565b6040518463ffffffff1660e01b8152600401610dca939291906122cc565b6020604051808303816000875af1158015610de9573d6000803e3d6000fd5b505050506040513d601f19601f82011682018060405250810190610e0d91906129d8565b50600060405180604001604052803373ffffffffffffffffffffffffffffffffffffffff1681526020018a8152509050600360008b815260200190815260200160002081908060018154018082558091505060019003906000526020600020906002020160009091909190915060008201518160000160006101000a81548173ffffffffffffffffffffffffffffffffffffffff021916908373ffffffffffffffffffffffffffffffffffffffff1602179055506020820151816001015550507fce0a64f44484f19bbad8f8b109f06afe7c3fcefceb09a88591fe94a62cf061188a338b604051610f0093929190612a05565b60405180910390a150505050505050505050565b808210610f56576040517f08c379a0000000000000000000000000000000000000000000000000000000008152600401610f4d90612a88565b60405180910390fd5b600060026000858152602001908152602001600020604051806101000160405290816000820160009054906101000a900473ffffffffffffffffffffffffffffffffffffffff1673ffffffffffffffffffffffffffffffffffffffff1673ffffffffffffffffffffffffffffffffffffffff1681526020016001820160009054906101000a900473ffffffffffffffffffffffffffffffffffffffff1673ffffffffffffffffffffffffffffffffffffffff1673ffffffffffffffffffffffffffffffffffffffff168152602001600282015481526020016003820154815260200160048201548152602001600582015481526020016006820154815260200160078201805461106590612449565b80601f016020809104026020016040519081016040528092919081815260200182805461109190612449565b80156110de5780601f106110b3576101008083540402835291602001916110de565b820191906000526020600020905b8154815290600101906020018083116110c157829003601f168201915b5050505050815250509050600042905080826080015111611134576040517f08c379a000000000000000000000000000000000000000000000000000000000815260040161112b90612b1a565b60405180910390fd5b83826080018181525050828260a00181815250505050505050565b600060026000838152602001908152602001600020604051806101000160405290816000820160009054906101000a900473ffffffffffffffffffffffffffffffffffffffff1673ffffffffffffffffffffffffffffffffffffffff1673ffffffffffffffffffffffffffffffffffffffff1681526020016001820160009054906101000a900473ffffffffffffffffffffffffffffffffffffffff1673ffffffffffffffffffffffffffffffffffffffff1673ffffffffffffffffffffffffffffffffffffffff168152602001600282015481526020016003820154815260200160048201548152602001600582015481526020016006820154815260200160078201805461125e90612449565b80601f016020809104026020016040519081016040528092919081815260200182805461128a90612449565b80156112d75780601f106112ac576101008083540402835291602001916112d7565b820191906000526020600020905b8154815290600101906020018083116112ba57829003601f168201915b5050505050815250509050806020015173ffffffffffffffffffffffffffffffffffffffff16636352211e82604001516040518263ffffffff1660e01b81526004016113239190611fac565b602060405180830381865afa158015611340573d6000803e3d6000fd5b505050506040513d601f19601f820116820180604052508101906113649190611fdc565b73ffffffffffffffffffffffffffffffffffffffff16816000015173ffffffffffffffffffffffffffffffffffffffff16146113d5576040517f08c379a00000000000000000000000000000000000000000000000000000000081526004016113cc90612b86565b60405180910390fd5b610e108160a001516113e79190612ba6565b4210611428576040517f08c379a000000000000000000000000000000000000000000000000000000000815260040161141f90612c4c565b60405180910390fd5b6040518060400160405280600e81526020017f4143544956455f41554354494f4e00000000000000000000000000000000000081525060405160200161146e9190612ca8565b604051602081830303815290604052805190602001208160e001516040516020016114999190612ca8565b604051602081830303815290604052805190602001200361168257806020015173ffffffffffffffffffffffffffffffffffffffff166323b872dd30836000015184604001516040518463ffffffff1660e01b81526004016114fd939291906122cc565b600060405180830381600087803b15801561151757600080fd5b505af115801561152b573d6000803e3d6000fd5b50505050600060036000848152602001908152602001600020805480602002602001604051908101604052809291908181526020016000905b828210156115f657838290600052602060002090600202016040518060400160405290816000820160009054906101000a900473ffffffffffffffffffffffffffffffffffffffff1673ffffffffffffffffffffffffffffffffffffffff1673ffffffffffffffffffffffffffffffffffffffff16815260200160018201548152505081526020019060010190611564565b5050505090506000815111156116805760005b815181101561167e5761166b82828151811061162857611627612374565b5b602002602001015160000151670de0b6b3a76400008484815181106116505761164f612374565b5b6020026020010151602001516116669190612332565b611bbb565b8080611676906123a3565b915050611609565b505b505b600081608001818152505060018160a00181815250506040518060400160405280600d81526020017f454e4445445f41554354494f4e000000000000000000000000000000000000008152508160e0018190525060018160c00181815250507f917bb0054e26c59b1b48464a846619f6186e0a245dcc4f26bb813f3dca3af2fc816000015182602001518360400151846060015185608001518660a001518760e001518860c001518a60405161174099989796959493929190612238565b60405180910390a15050565b600080611757611c60565b9050826002600083815260200190815260200160002060008201518160000160006101000a81548173ffffffffffffffffffffffffffffffffffffffff021916908373ffffffffffffffffffffffffffffffffffffffff16021790555060208201518160010160006101000a81548173ffffffffffffffffffffffffffffffffffffffff021916908373ffffffffffffffffffffffffffffffffffffffff16021790555060408201518160020155606082015181600301556080820151816004015560a0820151816005015560c0820151816006015560e08201518160070190816118429190612626565b5090505080915050919050565b600160009054906101000a900473ffffffffffffffffffffffffffffffffffffffff1673ffffffffffffffffffffffffffffffffffffffff166323b872dd333068056bc75e2d631000006040518463ffffffff1660e01b81526004016118b7939291906122cc565b6020604051808303816000875af11580156118d6573d6000803e3d6000fd5b505050506040513d601f19601f820116820180604052508101906118fa91906129d8565b508173ffffffffffffffffffffffffffffffffffffffff166323b872dd3330846040518463ffffffff1660e01b8152600401611938939291906122cc565b600060405180830381600087803b15801561195257600080fd5b505af1158015611966573d6000803e3d6000fd5b505050505050565b611976611d99565b600060036000848152602001908152602001600020805480602002602001604051908101604052809291908181526020016000905b82821015611a3d57838290600052602060002090600202016040518060400160405290816000820160009054906101000a900473ffffffffffffffffffffffffffffffffffffffff1673ffffffffffffffffffffffffffffffffffffffff1673ffffffffffffffffffffffffffffffffffffffff168152602001600182015481525050815260200190600101906119ab565b50505050905060008151905060005b600182611a599190612ba6565b811015611b8a5760005b81600184611a719190612ba6565b611a7b9190612ba6565b811015611b765783600182611a909190612cbf565b81518110611aa157611aa0612374565b5b602002602001015160200151848281518110611ac057611abf612374565b5b6020026020010151602001511115611b63576000848281518110611ae757611ae6612374565b5b6020026020010151905084600183611aff9190612cbf565b81518110611b1057611b0f612374565b5b6020026020010151858381518110611b2b57611b2a612374565b5b60200260200101819052508085600184611b459190612cbf565b81518110611b5657611b55612374565b5b6020026020010181905250505b8080611b6e906123a3565b915050611a63565b508080611b82906123a3565b915050611a4c565b5081600182611b999190612ba6565b81518110611baa57611ba9612374565b5b602002602001015192505050919050565b600160009054906101000a900473ffffffffffffffffffffffffffffffffffffffff1673ffffffffffffffffffffffffffffffffffffffff1663a9059cbb83836040518363ffffffff1660e01b8152600401611c18929190612cf3565b6020604051808303816000875af1158015611c37573d6000803e3d6000fd5b505050506040513d601f19601f82011682018060405250810190611c5b91906129d8565b505050565b60008042600143611c719190612ba6565b4033600454604051602001611c899493929190612db0565b6040516020818303038152906040528051906020012060001c90506000620f424082611cb59190612e2d565b90505b6005600082815260200190815260200160002060009054906101000a900460ff1615611d4d5760046000815480929190611cf1906123a3565b919050555042600143611d049190612ba6565b4033600454604051602001611d1c9493929190612db0565b6040516020818303038152906040528051906020012060001c9150620f424082611d469190612e2d565b9050611cb8565b60016005600083815260200190815260200160002060006101000a81548160ff02191690831515021790555060046000815480929190611d8c906123a3565b9190505550809250505090565b6040518060400160405280600073ffffffffffffffffffffffffffffffffffffffff168152602001600081525090565b600080fd5b600073ffffffffffffffffffffffffffffffffffffffff82169050919050565b6000611df982611dce565b9050919050565b611e0981611dee565b8114611e1457600080fd5b50565b600081359050611e2681611e00565b92915050565b6000819050919050565b611e3f81611e2c565b8114611e4a57600080fd5b50565b600081359050611e5c81611e36565b92915050565b600080600080600060a08688031215611e7e57611e7d611dc9565b5b6000611e8c88828901611e17565b9550506020611e9d88828901611e4d565b9450506040611eae88828901611e4d565b9350506060611ebf88828901611e4d565b9250506080611ed088828901611e4d565b9150509295509295909350565b600060208284031215611ef357611ef2611dc9565b5b6000611f0184828501611e4d565b91505092915050565b60008060408385031215611f2157611f20611dc9565b5b6000611f2f85828601611e4d565b9250506020611f4085828601611e4d565b9150509250929050565b600080600060608486031215611f6357611f62611dc9565b5b6000611f7186828701611e4d565b9350506020611f8286828701611e4d565b9250506040611f9386828701611e4d565b9150509250925092565b611fa681611e2c565b82525050565b6000602082019050611fc16000830184611f9d565b92915050565b600081519050611fd681611e00565b92915050565b600060208284031215611ff257611ff1611dc9565b5b600061200084828501611fc7565b91505092915050565b600082825260208201905092915050565b7f546865207370656e646572206973206e6f74206f776e6572206f66207468697360008201527f204e465421212100000000000000000000000000000000000000000000000000602082015250565b6000612076602783612009565b91506120818261201a565b604082019050919050565b600060208201905081810360008301526120a581612069565b9050919050565b7f53657474696e672074696d6520697320696e76616c6964210000000000000000600082015250565b60006120e2601883612009565b91506120ed826120ac565b602082019050919050565b60006020820190508181036000830152612111816120d5565b9050919050565b7f4661696c656420746f207472616e73666572204e46542066726f6d206d73672e60008201527f73656e64657220746f20736d61727420636f6e74726163740000000000000000602082015250565b6000612174603883612009565b915061217f82612118565b604082019050919050565b600060208201905081810360008301526121a381612167565b9050919050565b6121b381611dee565b82525050565b600081519050919050565b60005b838110156121e25780820151818401526020810190506121c7565b60008484015250505050565b6000601f19601f8301169050919050565b600061220a826121b9565b6122148185612009565b93506122248185602086016121c4565b61222d816121ee565b840191505092915050565b60006101208201905061224e600083018c6121aa565b61225b602083018b6121aa565b612268604083018a611f9d565b6122756060830189611f9d565b6122826080830188611f9d565b61228f60a0830187611f9d565b81810360c08301526122a181866121ff565b90506122b060e0830185611f9d565b6122be610100830184611f9d565b9a9950505050505050505050565b60006060820190506122e160008301866121aa565b6122ee60208301856121aa565b6122fb6040830184611f9d565b949350505050565b7f4e487b7100000000000000000000000000000000000000000000000000000000600052601160045260246000fd5b600061233d82611e2c565b915061234883611e2c565b925082820261235681611e2c565b9150828204841483151761236d5761236c612303565b5b5092915050565b7f4e487b7100000000000000000000000000000000000000000000000000000000600052603260045260246000fd5b60006123ae82611e2c565b91507fffffffffffffffffffffffffffffffffffffffffffffffffffffffffffffffff82036123e0576123df612303565b5b600182019050919050565b7f4e487b7100000000000000000000000000000000000000000000000000000000600052604160045260246000fd5b7f4e487b7100000000000000000000000000000000000000000000000000000000600052602260045260246000fd5b6000600282049050600182168061246157607f821691505b6020821081036124745761247361241a565b5b50919050565b60008190508160005260206000209050919050565b60006020601f8301049050919050565b600082821b905092915050565b6000600883026124dc7fffffffffffffffffffffffffffffffffffffffffffffffffffffffffffffffff8261249f565b6124e6868361249f565b95508019841693508086168417925050509392505050565b6000819050919050565b600061252361251e61251984611e2c565b6124fe565b611e2c565b9050919050565b6000819050919050565b61253d83612508565b6125516125498261252a565b8484546124ac565b825550505050565b600090565b612566612559565b612571818484612534565b505050565b5b818110156125955761258a60008261255e565b600181019050612577565b5050565b601f8211156125da576125ab8161247a565b6125b48461248f565b810160208510156125c3578190505b6125d76125cf8561248f565b830182612576565b50505b505050565b600082821c905092915050565b60006125fd600019846008026125df565b1980831691505092915050565b600061261683836125ec565b9150826002028217905092915050565b61262f826121b9565b67ffffffffffffffff811115612648576126476123eb565b5b6126528254612449565b61265d828285612599565b600060209050601f831160018114612690576000841561267e578287015190505b612688858261260a565b8655506126f0565b601f19841661269e8661247a565b60005b828110156126c6578489015182556001820191506020850194506020810190506126a1565b868310156126e357848901516126df601f8916826125ec565b8355505b6001600288020188555050505b505050505050565b600060408201905061270d6000830185611f9d565b61271a6020830184611f9d565b9392505050565b7f41756374696f6e20776974682074686973205555494420646f6573206e6f742060008201527f6578697374000000000000000000000000000000000000000000000000000000602082015250565b600061277d602583612009565b915061278882612721565b604082019050919050565b600060208201905081810360008301526127ac81612770565b9050919050565b7f54696d65204f76657221212120506c6561736520636865636b696e672041756360008201527f74696f6e207363686564756c6520616761696e21000000000000000000000000602082015250565b600061280f603483612009565b915061281a826127b3565b604082019050919050565b6000602082019050818103600083015261283e81612802565b9050919050565b7f4f66666572656420507269636520697320696e76616c69642121210000000000600082015250565b600061287b601b83612009565b915061288682612845565b602082019050919050565b600060208201905081810360008301526128aa8161286e565b9050919050565b60006020820190506128c660008301846121aa565b92915050565b6000815190506128db81611e36565b92915050565b6000602082840312156128f7576128f6611dc9565b5b6000612905848285016128cc565b91505092915050565b7f57616c6c65742061646472657373206973206e6f7420656e6f7567682042514b60008201527f20746f6b656e20746f2062696421000000000000000000000000000000000000602082015250565b600061296a602e83612009565b91506129758261290e565b604082019050919050565b600060208201905081810360008301526129998161295d565b9050919050565b60008115159050919050565b6129b5816129a0565b81146129c057600080fd5b50565b6000815190506129d2816129ac565b92915050565b6000602082840312156129ee576129ed611dc9565b5b60006129fc848285016129c3565b91505092915050565b6000606082019050612a1a6000830186611f9d565b612a2760208301856121aa565b612a346040830184611f9d565b949350505050565b7f696e76616c69642074696d652100000000000000000000000000000000000000600082015250565b6000612a72600d83612009565b9150612a7d82612a3c565b602082019050919050565b60006020820190508181036000830152612aa181612a65565b9050919050565b7f696e76616c69642074696d6520746f207365744f70656e62696464696e67546960008201527f6d65210000000000000000000000000000000000000000000000000000000000602082015250565b6000612b04602383612009565b9150612b0f82612aa8565b604082019050919050565b60006020820190508181036000830152612b3381612af7565b9050919050565b7f4f776e6572206f662041756374696f6e20696420696e76616c69642100000000600082015250565b6000612b70601c83612009565b9150612b7b82612b3a565b602082019050919050565b60006020820190508181036000830152612b9f81612b63565b9050919050565b6000612bb182611e2c565b9150612bbc83611e2c565b9250828203905081811115612bd457612bd3612303565b5b92915050565b7f43616e206e6f742063616c63656c2061756374696f6e2e20426563617573652060008201527f74696d65206973206f7665722100000000000000000000000000000000000000602082015250565b6000612c36602d83612009565b9150612c4182612bda565b604082019050919050565b60006020820190508181036000830152612c6581612c29565b9050919050565b600081905092915050565b6000612c82826121b9565b612c8c8185612c6c565b9350612c9c8185602086016121c4565b80840191505092915050565b6000612cb48284612c77565b915081905092915050565b6000612cca82611e2c565b9150612cd583611e2c565b9250828201905080821115612ced57612cec612303565b5b92915050565b6000604082019050612d0860008301856121aa565b612d156020830184611f9d565b9392505050565b6000819050919050565b612d37612d3282611e2c565b612d1c565b82525050565b6000819050919050565b6000819050919050565b612d62612d5d82612d3d565b612d47565b82525050565b60008160601b9050919050565b6000612d8082612d68565b9050919050565b6000612d9282612d75565b9050919050565b612daa612da582611dee565b612d87565b82525050565b6000612dbc8287612d26565b602082019150612dcc8286612d51565b602082019150612ddc8285612d99565b601482019150612dec8284612d26565b60208201915081905095945050505050565b7f4e487b7100000000000000000000000000000000000000000000000000000000600052601260045260246000fd5b6000612e3882611e2c565b9150612e4383611e2c565b925082612e5357612e52612dfe565b5b82820690509291505056fea2646970667358221220017c62f1e5f7d22a43442e30bdb7b4fcf8102dabf4efd4273a2bc1b004c900fc64736f6c63430008130033",
  "immutableReferences": {},
  "source": "// SPDX-License-Identifier: MITaddress(thisaddress(this\r\npragma solidity ^0.8.0;\r\n\r\nimport \"@openzeppelin/contracts/token/ERC20/ERC20.sol\";\r\nimport \"@openzeppelin/contracts/token/ERC20/IERC20.sol\";\r\nimport \"@openzeppelin/contracts/token/ERC721/IERC721.sol\";\r\nimport \"@openzeppelin/contracts/utils/Strings.sol\";\r\nimport \"@openzeppelin/contracts/utils/structs/EnumerableMap.sol\";\r\n\r\ncontract Bidnow {\r\n\r\n    /**\r\n    ====================================================================================================================================================\r\n        Default variables\r\n    ====================================================================================================================================================\r\n     */\r\n    \r\n    address private ownerBidNowContract;\r\n\r\n    address private tokenContract;\r\n\r\n    uint256 private constant LISTING_FREE = 100000000000000000000; // 100 BQR token\r\n\r\n    uint256 private constant NOT_TRANSFER_ASSET = 0;\r\n\r\n    uint256 private constant ALREADY_TRANSFER_ASSET = 1;\r\n\r\n    string private constant UPCOMING_AUCTION_STATUS = \"UPCOMING_AUCTION\";\r\n\r\n    string private constant ACTIVE_AUCTION_STATUS = \"ACTIVE_AUCTION\";\r\n\r\n    string private constant ENDED_AUCTION_STATUS = \"ENDED_AUCTION\";\r\n\r\n    /**\r\n    ====================================================================================================================================================\r\n        Constructor\r\n    ====================================================================================================================================================\r\n     */\r\n\r\n    constructor(\r\n        address _tokenContract\r\n    ) {\r\n        tokenContract = _tokenContract;\r\n    }\r\n\r\n\r\n    /**\r\n    ====================================================================================================================================================\r\n        Auction struct and list Auction\r\n    ====================================================================================================================================================\r\n     */\r\n     \r\n    // Auction struct\r\n    struct Auction {\r\n        address ownerAuction;\r\n        address nftContract;\r\n        uint256 tokenId;\r\n        uint256 initialPrice;\r\n        uint256 openBiddingTime;\r\n        uint256 closeBiddingTime;\r\n        uint256 transferAssetStatus;\r\n        string statusAuction;\r\n    }\r\n\r\n    /**\r\n    ====================================================================================================================================================\r\n        Mapping \r\n    ====================================================================================================================================================\r\n     */\r\n\r\n    // a uuid to manage an Auction\r\n    mapping(uint256 => Auction) private uuidToAuction;\r\n\r\n    // this mapping to manage a list contains address and offered price of bidder each bidding time.\r\n    mapping(uint256 => BidderInfor[]) private uuidToListBidderInfo;\r\n\r\n    /**\r\n    ====================================================================================================================================================\r\n        CreateNewAuction function\r\n    ====================================================================================================================================================\r\n     */\r\n\r\n    // Any bidder has NFT can call this function to list an auction on BidNow Dapp\r\n    function createNewAuction(\r\n        address nftContract,\r\n        uint256 tokenId,\r\n        uint256 initialPrice,\r\n        uint256 openBiddingTime,\r\n        uint256 closeBiddingTime \r\n    ) \r\n    public payable\r\n    isOwnerOfNFT(nftContract, tokenId, msg.sender)\r\n    {\r\n        // checking openBiddingTime and closeBiddingTime are valid\r\n        require((block.timestamp < openBiddingTime) && (openBiddingTime < closeBiddingTime), \"Setting time is invalid!\");\r\n\r\n        // create a new auction\r\n        Auction memory auction = Auction(\r\n                            msg.sender,\r\n                            nftContract,\r\n                            tokenId,\r\n                            initialPrice,\r\n                            openBiddingTime,\r\n                            closeBiddingTime,\r\n                            NOT_TRANSFER_ASSET,\r\n                            UPCOMING_AUCTION_STATUS\r\n                        );\r\n\r\n        // call assignDataToBlockchain function\r\n        uint256 uuid = assignDataToBlockchain(auction);\r\n\r\n        // execute transfer asset\r\n        executeTransfer(nftContract, tokenId);   \r\n\r\n        // checking that send NFT is succeed?\r\n        require(\r\n            IERC721(nftContract).ownerOf(tokenId) == address(this), \r\n            \"Failed to transfer NFT from msg.sender to smart contract\"\r\n        );\r\n\r\n        // emit \r\n        emit CreatingAuctionEvent(\r\n            msg.sender,\r\n            nftContract,\r\n            tokenId,\r\n            initialPrice,\r\n            openBiddingTime,\r\n            closeBiddingTime,\r\n            UPCOMING_AUCTION_STATUS,\r\n            NOT_TRANSFER_ASSET,\r\n            uuid\r\n        );\r\n    }\r\n\r\n\r\n    // execute transfer function\r\n    function executeTransfer(address nftContract, uint256 tokenId) internal {\r\n        // nft owner purchase LISTING_FEE\r\n        IERC20(tokenContract).transferFrom(\r\n            msg.sender,\r\n            address(this),\r\n            LISTING_FREE\r\n        );\r\n\r\n        // send NFT from msg.sender (owner wallet) to smart contract\r\n        IERC721(nftContract).transferFrom(\r\n            msg.sender,\r\n            address(this),\r\n            tokenId\r\n        );\r\n    }\r\n\r\n    // assign data function\r\n    function assignDataToBlockchain(Auction memory auction) internal returns(uint256) {\r\n        // Assign a new auction to uuid\r\n        uint256 uuid = getUniqueNumber();\r\n        uuidToAuction[uuid] = auction;\r\n\r\n        return uuid;\r\n    }\r\n\r\n    // this function to get a number as uuid \r\n    uint256 counter;\r\n    mapping(uint256 => bool) usedValues;\r\n\r\n    function getUniqueNumber() internal returns(uint256 uuid) {\r\n        uint256 randomValue = uint256(keccak256(abi.encodePacked(block.timestamp, blockhash(block.number - 1), msg.sender, counter)));\r\n        uint256 uniqueNumber = randomValue % 1000000; // limit to 6 digits\r\n\r\n        while (usedValues[uniqueNumber]) {\r\n            counter++;\r\n            randomValue = uint256(keccak256(abi.encodePacked(block.timestamp, blockhash(block.number - 1), msg.sender, counter)));\r\n            uniqueNumber = randomValue % 1000000;\r\n        }\r\n\r\n        usedValues[uniqueNumber] = true;\r\n        counter++;\r\n        return uniqueNumber;\r\n    }\r\n\r\n\r\n    /**\r\n    ====================================================================================================================================================\r\n        CancelAuction function\r\n    ====================================================================================================================================================\r\n     */\r\n    // this function to calcel an auction\r\n    function CancelAuction(\r\n        uint256 uuid\r\n    ) \r\n    public\r\n    {\r\n        Auction memory auction = uuidToAuction[uuid];\r\n        // checking msg.sender is owner of the auction which is canceled\r\n        require(auction.ownerAuction == IERC721(auction.nftContract).ownerOf(auction.tokenId), \"Owner of Auction id invalid!\");\r\n\r\n        // checking time valid to calcel. Must calceling before 1 hour = 3600 second\r\n        require(block.timestamp < auction.closeBiddingTime - 3600, \"Can not calcel auction. Because time is over!\");\r\n\r\n        /**\r\n        execute logic code: re-send nft to owner, re-send BQK token to bidders is only for active auction\r\n         */\r\n\r\n        if(keccak256(abi.encodePacked(auction.statusAuction)) == keccak256(abi.encodePacked(ACTIVE_AUCTION_STATUS))) {\r\n            // re-send nft to owner of auction\r\n            IERC721(auction.nftContract).transferFrom(\r\n                address(this),\r\n                auction.ownerAuction,\r\n                auction.tokenId\r\n            );\r\n\r\n            // get list bidder and re-send token to all \r\n            BidderInfor[] memory bidderInforList = uuidToListBidderInfo[uuid];\r\n\r\n            // return BQK token to other bidder\r\n            if (bidderInforList.length > 0) {\r\n                // return BQK token to other bidder\r\n                for(uint256 i = 0; i < bidderInforList.length; i++) {\r\n                    withdraw(bidderInforList[i].bidderAddress, bidderInforList[i].offeredPrice * (10**18));\r\n                }            \r\n            }        \r\n        }\r\n\r\n        // delete auction\r\n\r\n        // update data\r\n        auction.openBiddingTime = 0;\r\n        auction.closeBiddingTime = 1; // ensure that closeBiddingTime is bigger than openBiddingTime\r\n        auction.statusAuction = ENDED_AUCTION_STATUS;\r\n        auction.transferAssetStatus = ALREADY_TRANSFER_ASSET;\r\n\r\n        emit CancelingAuctionEvent(\r\n            auction.ownerAuction,\r\n            auction.nftContract,\r\n            auction.tokenId,\r\n            auction.initialPrice,\r\n            auction.openBiddingTime,\r\n            auction.closeBiddingTime,\r\n            auction.statusAuction,\r\n            auction.transferAssetStatus,\r\n            uuid\r\n        );\r\n    }\r\n\r\n    /**\r\n    ====================================================================================================================================================\r\n        joinAuction function\r\n    ====================================================================================================================================================\r\n     */\r\n\r\n    // Bidder struct\r\n    struct BidderInfor {\r\n        address bidderAddress;\r\n        uint256 offeredPrice;\r\n    }\r\n\r\n    // this function is used for Bidder can join auction\r\n    function bidAuction(\r\n        uint256 uuid,\r\n        uint256 offeredPrice\r\n    ) public payable\r\n    isCorrectAuctionTime(uuid) \r\n    {\r\n        // checking that offeredPrice is valid\r\n        Auction memory auction = uuidToAuction[uuid];\r\n        require(offeredPrice > auction.initialPrice, \"Offered Price is invalid!!!\");\r\n\r\n        // checking that msg.sender is enough token to bid\r\n        uint256 balanceToken = IERC20(tokenContract).balanceOf(msg.sender);\r\n        require(balanceToken >= offeredPrice, \"Wallet address is not enough BQK token to bid!\");\r\n\r\n        // transfer BQK token from bidder's wallet to smart contract.\r\n        IERC20(tokenContract).transferFrom(\r\n            msg.sender,\r\n            address(this),\r\n            offeredPrice * (10**18)\r\n        );\r\n\r\n        // create new BidderInfor and push it to list\r\n        BidderInfor memory bidderInfor = BidderInfor(\r\n            msg.sender,\r\n            offeredPrice\r\n        );\r\n\r\n        uuidToListBidderInfo[uuid].push(bidderInfor);\r\n\r\n        emit BiddingAuctionEvent(\r\n            uuid,\r\n            msg.sender,\r\n            offeredPrice\r\n        );\r\n    }\r\n\r\n    /**\r\n    ====================================================================================================================================================\r\n        transferAssetAfterAuctionEnd function\r\n    ====================================================================================================================================================\r\n     */\r\n\r\n    // function to execute logic that: transfer NFT to the winner and trnasfer BQK token to old owner of NFT after auction ends\r\n    function transferAssetAfterAuctionEnd(uint256 uuid) external {\r\n        // get list bidder of auction has uuid\r\n        BidderInfor[] memory bidderInforList = uuidToListBidderInfo[uuid];\r\n\r\n        // get winner of this auction\r\n        BidderInfor memory winner = getTheWinnerOfAuction(uuid);\r\n\r\n        // transfer NFT from SMC to winner\r\n        IERC721(uuidToAuction[uuid].nftContract).transferFrom(\r\n            address(this),\r\n            winner.bidderAddress,\r\n            uuidToAuction[uuid].tokenId\r\n        );\r\n\r\n        // transfer BQK token from SMC to old owne\r\n        withdraw(uuidToAuction[uuid].ownerAuction, winner.offeredPrice * (10**18));\r\n\r\n        if (bidderInforList.length > 0) {\r\n            // return BQK token to other bidder\r\n            for(uint256 i = 0; i < bidderInforList.length; i++) {\r\n                if (bidderInforList[i].bidderAddress != winner.bidderAddress) {\r\n                    withdraw(bidderInforList[i].bidderAddress, bidderInforList[i].offeredPrice * (10**18));\r\n                }\r\n            }            \r\n        }\r\n\r\n        uuidToAuction[uuid].statusAuction = ENDED_AUCTION_STATUS;\r\n        uuidToAuction[uuid].transferAssetStatus = ALREADY_TRANSFER_ASSET;\r\n\r\n        emit TransferingAssetEvent(\r\n            uuid,\r\n            uuidToAuction[uuid].transferAssetStatus\r\n        );\r\n    }\r\n\r\n    // function to get the winner of the auction with its uuid\r\n    function getTheWinnerOfAuction(uint256 uuid) internal view returns(BidderInfor memory) {\r\n\r\n        BidderInfor[] memory bidderInforList = uuidToListBidderInfo[uuid];\r\n\r\n        uint256 len = bidderInforList.length;\r\n\r\n        for (uint256 i = 0; i < len-1; i++) {\r\n            for (uint256 j = 0; j < len-1 - i; j++) {\r\n                if (bidderInforList[j].offeredPrice > bidderInforList[j+1].offeredPrice) {\r\n                    BidderInfor memory temp = bidderInforList[j];\r\n                    bidderInforList[j] = bidderInforList[j+1];\r\n                    bidderInforList[j+1] = temp;\r\n                }\r\n            }\r\n        }\r\n\r\n        return bidderInforList[len-1];\r\n    }\r\n\r\n\r\n    // Withdraw function\r\n    function withdraw(address _to, uint256 amount) private {\r\n        IERC20(tokenContract).transfer(_to, amount);\r\n    }\r\n\r\n    /**\r\n    ====================================================================================================================================================\r\n        Events\r\n    ====================================================================================================================================================\r\n     */\r\n\r\n    \r\n    event CreatingAuctionEvent(\r\n        address ownerOfAuction,\r\n        address nftContract,\r\n        uint256 tokenId,\r\n        uint256 initialPrice,\r\n        uint256 openBiddingTime,\r\n        uint256 closeBiddingTime,\r\n        string statusAuction,\r\n        uint256 transferAssetStatus,\r\n        uint256 uuid\r\n    );\r\n\r\n    event CancelingAuctionEvent(\r\n        address ownerOfAuction,\r\n        address nftContract,\r\n        uint256 tokenId,\r\n        uint256 initialPrice,\r\n        uint256 openBiddingTime,\r\n        uint256 closeBiddingTime,\r\n        string statusAuction,\r\n        uint256 transferAssetStatus,\r\n        uint256 uuid\r\n    );\r\n\r\n    event BiddingAuctionEvent(\r\n        uint256 uuid,\r\n        address spender,\r\n        uint256 offeredPrice\r\n    );\r\n\r\n    event TransferingAssetEvent(\r\n        uint256 uuid,\r\n        uint256 transferAssetStatus\r\n    );\r\n\r\n    event updatingStatusAuctionEvent(\r\n        uint256 uuid,\r\n        string statusAuction\r\n    );\r\n\r\n\r\n    /**\r\n    ====================================================================================================================================================\r\n        Modifiers\r\n    ====================================================================================================================================================\r\n     */\r\n     \r\n    modifier isOwnerOfNFT(\r\n        address nftContract,\r\n        uint256 tokenId,\r\n        address spender\r\n    ) {\r\n        IERC721 nft = IERC721(nftContract);\r\n        address owner = nft.ownerOf(tokenId);\r\n        if (spender != owner) {\r\n            revert(\"The spender is not owner of this NFT!!!\");\r\n        }\r\n        _;\r\n    }\r\n\r\n    modifier isCorrectAuctionTime(\r\n        uint256 uuid\r\n    ) {\r\n        require(uuidToAuction[uuid].ownerAuction != address(0), \"Auction with this UUID does not exist\");\r\n\r\n        Auction memory auction = uuidToAuction[uuid];\r\n\r\n        uint256 openBiddingTime = auction.openBiddingTime;\r\n        uint256 closeBiddingTime = auction.closeBiddingTime;\r\n\r\n        // execute compare open and close time with current time \r\n        uint256 pointTimestamp = block.timestamp;\r\n\r\n        require(\r\n            (pointTimestamp > openBiddingTime) && (pointTimestamp < closeBiddingTime),\r\n            \"Time Over!!! Please checking Auction schedule again!\"\r\n        );\r\n        _;\r\n    }\r\n\r\n    /**\r\n    ====================================================================================================================================================\r\n        Set function\r\n    ====================================================================================================================================================\r\n     */\r\n\r\n    function setOpenBiddingTime(\r\n        uint256 uuid, \r\n        uint256 openBiddingTime,\r\n        uint256 closeBiddingTime\r\n    ) public view {\r\n\r\n        require(openBiddingTime < closeBiddingTime, \"invalid time!\");\r\n\r\n        Auction memory auction = uuidToAuction[uuid];\r\n\r\n        // checking that auction must upcoming status\r\n        uint256 pointTimestamp = block.timestamp;\r\n        require(auction.openBiddingTime > pointTimestamp, \"invalid time to setOpenbiddingTime!\");\r\n\r\n        // update\r\n        auction.openBiddingTime = openBiddingTime;\r\n        auction.closeBiddingTime = closeBiddingTime;\r\n    }\r\n}",
  "sourcePath": "D:\\UET\\Blockchain_INT3231E\\bidnow-blockchain\\contracts\\BidNow.sol",
  "compiler": {
    "name": "solc",
    "version": "0.8.19+commit.7dd6d404.Emscripten.clang"
  },
  "schemaVersion": "3.4.10",
  "updatedAt": "2023-05-03T02:23:30.267Z",
  "devdoc": {
    "kind": "dev",
    "methods": {},
    "version": 1
  },
  "userdoc": {
    "events": {
      "CreatingAuctionEvent(address,address,uint256,uint256,uint256,uint256,string,uint256,uint256)": {
        "notice": "==================================================================================================================================================== Events ===================================================================================================================================================="
      }
    },
    "kind": "user",
    "methods": {
      "CancelAuction(uint256)": {
        "notice": "==================================================================================================================================================== CancelAuction function ===================================================================================================================================================="
      },
      "constructor": {
        "notice": "==================================================================================================================================================== Constructor ===================================================================================================================================================="
      },
      "createNewAuction(address,uint256,uint256,uint256,uint256)": {
        "notice": "==================================================================================================================================================== CreateNewAuction function ===================================================================================================================================================="
      },
      "setOpenBiddingTime(uint256,uint256,uint256)": {
        "notice": "==================================================================================================================================================== Set function ===================================================================================================================================================="
      },
      "transferAssetAfterAuctionEnd(uint256)": {
        "notice": "==================================================================================================================================================== transferAssetAfterAuctionEnd function ===================================================================================================================================================="
      }
    },
    "version": 1
  }
}