{
  "contractName": "BidNow",
  "abi": [
    {
      "inputs": [
        {
          "internalType": "address",
          "name": "_BQKContract",
          "type": "address"
        }
      ],
      "stateMutability": "nonpayable",
      "type": "constructor"
    },
    {
      "anonymous": false,
      "inputs": [
        {
          "indexed": false,
          "internalType": "address",
          "name": "ownerOfAuction",
          "type": "address"
        },
        {
          "indexed": false,
          "internalType": "address",
          "name": "nftContract",
          "type": "address"
        },
        {
          "indexed": false,
          "internalType": "uint256",
          "name": "tokenId",
          "type": "uint256"
        },
        {
          "indexed": false,
          "internalType": "uint256",
          "name": "initialPrice",
          "type": "uint256"
        },
        {
          "indexed": false,
          "internalType": "uint256",
          "name": "openBiddingTime",
          "type": "uint256"
        },
        {
          "indexed": false,
          "internalType": "uint256",
          "name": "closeBiddingTime",
          "type": "uint256"
        },
        {
          "indexed": false,
          "internalType": "uint256",
          "name": "uuid",
          "type": "uint256"
        }
      ],
      "name": "AuctionInitialized",
      "type": "event"
    },
    {
      "inputs": [
        {
          "internalType": "address",
          "name": "nftContract",
          "type": "address"
        },
        {
          "internalType": "uint256",
          "name": "tokenId",
          "type": "uint256"
        },
        {
          "internalType": "uint256",
          "name": "initialPrice",
          "type": "uint256"
        },
        {
          "internalType": "uint256",
          "name": "openBiddingTime",
          "type": "uint256"
        },
        {
          "internalType": "uint256",
          "name": "closeBiddingTime",
          "type": "uint256"
        }
      ],
      "name": "createNewAuction",
      "outputs": [],
      "stateMutability": "nonpayable",
      "type": "function"
    },
    {
      "inputs": [
        {
          "internalType": "uint256",
          "name": "uuid",
          "type": "uint256"
        },
        {
          "internalType": "uint256",
          "name": "offeredPrice",
          "type": "uint256"
        }
      ],
      "name": "joinAuction",
      "outputs": [],
      "stateMutability": "payable",
      "type": "function"
    },
    {
      "inputs": [
        {
          "internalType": "uint256",
          "name": "uuid",
          "type": "uint256"
        }
      ],
      "name": "getStatusAuction",
      "outputs": [
        {
          "internalType": "string",
          "name": "",
          "type": "string"
        }
      ],
      "stateMutability": "view",
      "type": "function"
    },
    {
      "inputs": [
        {
          "internalType": "address",
          "name": "spender",
          "type": "address"
        }
      ],
      "name": "getListAuctionOfSpender",
      "outputs": [
        {
          "components": [
            {
              "internalType": "address",
              "name": "nftContract",
              "type": "address"
            },
            {
              "internalType": "uint256",
              "name": "tokenId",
              "type": "uint256"
            },
            {
              "internalType": "uint256",
              "name": "initialPrice",
              "type": "uint256"
            },
            {
              "internalType": "uint256",
              "name": "openBiddingTime",
              "type": "uint256"
            },
            {
              "internalType": "uint256",
              "name": "closeBiddingTime",
              "type": "uint256"
            }
          ],
          "internalType": "struct BidNow.Auction[]",
          "name": "",
          "type": "tuple[]"
        }
      ],
      "stateMutability": "view",
      "type": "function"
    },
    {
      "inputs": [
        {
          "internalType": "uint256",
          "name": "uuid",
          "type": "uint256"
        }
      ],
      "name": "getAuctionFromUuid",
      "outputs": [
        {
          "components": [
            {
              "internalType": "address",
              "name": "nftContract",
              "type": "address"
            },
            {
              "internalType": "uint256",
              "name": "tokenId",
              "type": "uint256"
            },
            {
              "internalType": "uint256",
              "name": "initialPrice",
              "type": "uint256"
            },
            {
              "internalType": "uint256",
              "name": "openBiddingTime",
              "type": "uint256"
            },
            {
              "internalType": "uint256",
              "name": "closeBiddingTime",
              "type": "uint256"
            }
          ],
          "internalType": "struct BidNow.Auction",
          "name": "",
          "type": "tuple"
        }
      ],
      "stateMutability": "view",
      "type": "function"
    }
  ],
  "bytecode": "0x60806040523480156200001157600080fd5b50604051620016e1380380620016e18339818101604052810190620000379190620000e9565b80600160006101000a81548173ffffffffffffffffffffffffffffffffffffffff021916908373ffffffffffffffffffffffffffffffffffffffff160217905550506200011b565b600080fd5b600073ffffffffffffffffffffffffffffffffffffffff82169050919050565b6000620000b18262000084565b9050919050565b620000c381620000a4565b8114620000cf57600080fd5b50565b600081519050620000e381620000b8565b92915050565b6000602082840312156200010257620001016200007f565b5b60006200011284828501620000d2565b91505092915050565b6115b6806200012b6000396000f3fe60806040526004361061004a5760003560e01c80630dde4fe21461004f578063a8c0298814610078578063ae11847d146100b5578063d753ca34146100f2578063f08e6e761461012f575b600080fd5b34801561005b57600080fd5b5061007660048036038101906100719190610cf9565b61014b565b005b34801561008457600080fd5b5061009f600480360381019061009a9190610d74565b61043d565b6040516100ac9190610e31565b60405180910390f35b3480156100c157600080fd5b506100dc60048036038101906100d79190610d74565b6105ca565b6040516100e99190610ed9565b60405180910390f35b3480156100fe57600080fd5b5061011960048036038101906101149190610ef4565b610675565b6040516101269190611038565b60405180910390f35b6101496004803603810190610144919061105a565b610791565b005b848433600083905060008173ffffffffffffffffffffffffffffffffffffffff16636352211e856040518263ffffffff1660e01b815260040161018e91906110a9565b602060405180830381865afa1580156101ab573d6000803e3d6000fd5b505050506040513d601f19601f820116820180604052508101906101cf91906110d9565b90508073ffffffffffffffffffffffffffffffffffffffff168373ffffffffffffffffffffffffffffffffffffffff161461023f576040517f08c379a000000000000000000000000000000000000000000000000000000000815260040161023690611178565b60405180910390fd5b60006040518060a001604052808c73ffffffffffffffffffffffffffffffffffffffff1681526020018b81526020018a8152602001898152602001888152509050600260003373ffffffffffffffffffffffffffffffffffffffff1673ffffffffffffffffffffffffffffffffffffffff16815260200190815260200160002081908060018154018082558091505060019003906000526020600020906005020160009091909190915060008201518160000160006101000a81548173ffffffffffffffffffffffffffffffffffffffff021916908373ffffffffffffffffffffffffffffffffffffffff1602179055506020820151816001015560408201518160020155606082015181600301556080820151816004015550506000610364610afc565b9050816003600083815260200190815260200160002060008201518160000160006101000a81548173ffffffffffffffffffffffffffffffffffffffff021916908373ffffffffffffffffffffffffffffffffffffffff160217905550602082015181600101556040820151816002015560608201518160030155608082015181600401559050507fe30b8071157ada0a9cb9e37bbc6c3d71a4d4876a211c712e00145e06a734891a338d8d8d8d8d8760405161042797969594939291906111a7565b60405180910390a1505050505050505050505050565b60606000600360008481526020019081526020016000206040518060a00160405290816000820160009054906101000a900473ffffffffffffffffffffffffffffffffffffffff1673ffffffffffffffffffffffffffffffffffffffff1673ffffffffffffffffffffffffffffffffffffffff168152602001600182015481526020016002820154815260200160038201548152602001600482015481525050905060008160600151905060008260800151905060004290508281101561053f576040518060400160405280601081526020017f5550434f4d494e475f41554354494f4e000000000000000000000000000000008152509450505050506105c5565b81811115610588576040518060400160405280600d81526020017f454e4445445f41554354494f4e000000000000000000000000000000000000008152509450505050506105c5565b6040518060400160405280600e81526020017f4143544956455f41554354494f4e0000000000000000000000000000000000008152509450505050505b919050565b6105d2610c1b565b600360008381526020019081526020016000206040518060a00160405290816000820160009054906101000a900473ffffffffffffffffffffffffffffffffffffffff1673ffffffffffffffffffffffffffffffffffffffff1673ffffffffffffffffffffffffffffffffffffffff1681526020016001820154815260200160028201548152602001600382015481526020016004820154815250509050919050565b6060600260008373ffffffffffffffffffffffffffffffffffffffff1673ffffffffffffffffffffffffffffffffffffffff168152602001908152602001600020805480602002602001604051908101604052809291908181526020016000905b8282101561078657838290600052602060002090600502016040518060a00160405290816000820160009054906101000a900473ffffffffffffffffffffffffffffffffffffffff1673ffffffffffffffffffffffffffffffffffffffff1673ffffffffffffffffffffffffffffffffffffffff168152602001600182015481526020016002820154815260200160038201548152602001600482015481525050815260200190600101906106d6565b505050509050919050565b816000600360008381526020019081526020016000206040518060a00160405290816000820160009054906101000a900473ffffffffffffffffffffffffffffffffffffffff1673ffffffffffffffffffffffffffffffffffffffff1673ffffffffffffffffffffffffffffffffffffffff16815260200160018201548152602001600282015481526020016003820154815260200160048201548152505090506000816060015190506000826080015190506000429050828111801561085757508181105b610896576040517f08c379a000000000000000000000000000000000000000000000000000000000815260040161088d90611288565b60405180910390fd5b6000600360008981526020019081526020016000206040518060a00160405290816000820160009054906101000a900473ffffffffffffffffffffffffffffffffffffffff1673ffffffffffffffffffffffffffffffffffffffff1673ffffffffffffffffffffffffffffffffffffffff16815260200160018201548152602001600282015481526020016003820154815260200160048201548152505090508060400151871161097c576040517f08c379a0000000000000000000000000000000000000000000000000000000008152600401610973906112f4565b60405180910390fd5b600160009054906101000a900473ffffffffffffffffffffffffffffffffffffffff1673ffffffffffffffffffffffffffffffffffffffff166323b872dd3330670de0b6b3a76400008b6109d09190611343565b6040518463ffffffff1660e01b81526004016109ee93929190611385565b6020604051808303816000875af1158015610a0d573d6000803e3d6000fd5b505050506040513d601f19601f82011682018060405250810190610a3191906113f4565b50600060405180604001604052803373ffffffffffffffffffffffffffffffffffffffff168152602001898152509050600760008a815260200190815260200160002081908060018154018082558091505060019003906000526020600020906002020160009091909190915060008201518160000160006101000a81548173ffffffffffffffffffffffffffffffffffffffff021916908373ffffffffffffffffffffffffffffffffffffffff160217905550602082015181600101555050505050505050505050565b600080424433600554604051602001610b18949392919061148a565b6040516020818303038152906040528051906020012060001c90506000620f424082610b449190611507565b90505b6006600082815260200190815260200160002060009054906101000a900460ff1615610bcf5760056000815480929190610b8090611538565b9190505550424433600554604051602001610b9e949392919061148a565b6040516020818303038152906040528051906020012060001c9150620f424082610bc89190611507565b9050610b47565b60016006600083815260200190815260200160002060006101000a81548160ff02191690831515021790555060056000815480929190610c0e90611538565b9190505550809250505090565b6040518060a00160405280600073ffffffffffffffffffffffffffffffffffffffff168152602001600081526020016000815260200160008152602001600081525090565b600080fd5b600073ffffffffffffffffffffffffffffffffffffffff82169050919050565b6000610c9082610c65565b9050919050565b610ca081610c85565b8114610cab57600080fd5b50565b600081359050610cbd81610c97565b92915050565b6000819050919050565b610cd681610cc3565b8114610ce157600080fd5b50565b600081359050610cf381610ccd565b92915050565b600080600080600060a08688031215610d1557610d14610c60565b5b6000610d2388828901610cae565b9550506020610d3488828901610ce4565b9450506040610d4588828901610ce4565b9350506060610d5688828901610ce4565b9250506080610d6788828901610ce4565b9150509295509295909350565b600060208284031215610d8a57610d89610c60565b5b6000610d9884828501610ce4565b91505092915050565b600081519050919050565b600082825260208201905092915050565b60005b83811015610ddb578082015181840152602081019050610dc0565b60008484015250505050565b6000601f19601f8301169050919050565b6000610e0382610da1565b610e0d8185610dac565b9350610e1d818560208601610dbd565b610e2681610de7565b840191505092915050565b60006020820190508181036000830152610e4b8184610df8565b905092915050565b610e5c81610c85565b82525050565b610e6b81610cc3565b82525050565b60a082016000820151610e876000850182610e53565b506020820151610e9a6020850182610e62565b506040820151610ead6040850182610e62565b506060820151610ec06060850182610e62565b506080820151610ed36080850182610e62565b50505050565b600060a082019050610eee6000830184610e71565b92915050565b600060208284031215610f0a57610f09610c60565b5b6000610f1884828501610cae565b91505092915050565b600081519050919050565b600082825260208201905092915050565b6000819050602082019050919050565b60a082016000820151610f636000850182610e53565b506020820151610f766020850182610e62565b506040820151610f896040850182610e62565b506060820151610f9c6060850182610e62565b506080820151610faf6080850182610e62565b50505050565b6000610fc18383610f4d565b60a08301905092915050565b6000602082019050919050565b6000610fe582610f21565b610fef8185610f2c565b9350610ffa83610f3d565b8060005b8381101561102b5781516110128882610fb5565b975061101d83610fcd565b925050600181019050610ffe565b5085935050505092915050565b600060208201905081810360008301526110528184610fda565b905092915050565b6000806040838503121561107157611070610c60565b5b600061107f85828601610ce4565b925050602061109085828601610ce4565b9150509250929050565b6110a381610cc3565b82525050565b60006020820190506110be600083018461109a565b92915050565b6000815190506110d381610c97565b92915050565b6000602082840312156110ef576110ee610c60565b5b60006110fd848285016110c4565b91505092915050565b7f546865207370656e646572206973206e6f74206f776e6572206f66207468697360008201527f204e465421212100000000000000000000000000000000000000000000000000602082015250565b6000611162602783610dac565b915061116d82611106565b604082019050919050565b6000602082019050818103600083015261119181611155565b9050919050565b6111a181610c85565b82525050565b600060e0820190506111bc600083018a611198565b6111c96020830189611198565b6111d6604083018861109a565b6111e3606083018761109a565b6111f0608083018661109a565b6111fd60a083018561109a565b61120a60c083018461109a565b98975050505050505050565b7f54696d65204f76657221212120506c6561736520636865636b696e672041756360008201527f74696f6e207363686564756c6520616761696e21000000000000000000000000602082015250565b6000611272603483610dac565b915061127d82611216565b604082019050919050565b600060208201905081810360008301526112a181611265565b9050919050565b7f4f66666572656420507269636520697320696e76616c69642121210000000000600082015250565b60006112de601b83610dac565b91506112e9826112a8565b602082019050919050565b6000602082019050818103600083015261130d816112d1565b9050919050565b7f4e487b7100000000000000000000000000000000000000000000000000000000600052601160045260246000fd5b600061134e82610cc3565b915061135983610cc3565b925082820261136781610cc3565b9150828204841483151761137e5761137d611314565b5b5092915050565b600060608201905061139a6000830186611198565b6113a76020830185611198565b6113b4604083018461109a565b949350505050565b60008115159050919050565b6113d1816113bc565b81146113dc57600080fd5b50565b6000815190506113ee816113c8565b92915050565b60006020828403121561140a57611409610c60565b5b6000611418848285016113df565b91505092915050565b6000819050919050565b61143c61143782610cc3565b611421565b82525050565b60008160601b9050919050565b600061145a82611442565b9050919050565b600061146c8261144f565b9050919050565b61148461147f82610c85565b611461565b82525050565b6000611496828761142b565b6020820191506114a6828661142b565b6020820191506114b68285611473565b6014820191506114c6828461142b565b60208201915081905095945050505050565b7f4e487b7100000000000000000000000000000000000000000000000000000000600052601260045260246000fd5b600061151282610cc3565b915061151d83610cc3565b92508261152d5761152c6114d8565b5b828206905092915050565b600061154382610cc3565b91507fffffffffffffffffffffffffffffffffffffffffffffffffffffffffffffffff820361157557611574611314565b5b60018201905091905056fea2646970667358221220a3a00605308dd1c03637e9b6ea2a23bec084ced0a29616c972c61f6f2ae3eaa564736f6c63430008110033",
  "immutableReferences": {},
  "source": "// SPDX-License-Identifier: MIT\r\npragma solidity ^0.8.9;\r\n\r\nimport \"@openzeppelin/contracts/token/ERC20/IERC20.sol\";\r\nimport \"@openzeppelin/contracts/token/ERC721/IERC721.sol\";\r\nimport \"@openzeppelin/contracts/utils/Strings.sol\";\r\n\r\ncontract BidNow {\r\n\r\n    // Constant variable\r\n    string constant private ENDED_AUCTION = \"ENDED_AUCTION\";\r\n    string constant private ACTIVE_AUCTION = \"ACTIVE_AUCTION\";\r\n    string constant private UPCOMING_AUCTION = \"UPCOMING_AUCTION\";\r\n\r\n\r\n\r\n    // Default variables\r\n    address private ownerBidNowContract;\r\n\r\n    address private BQKContract;\r\n\r\n    constructor(\r\n        address _BQKContract\r\n    ) {\r\n        BQKContract = _BQKContract;\r\n    }\r\n\r\n    // Struct Auction\r\n    struct Auction {\r\n        address nftContract;\r\n        uint256 tokenId;\r\n        uint256 initialPrice;\r\n        uint256 openBiddingTime;\r\n        uint256 closeBiddingTime;\r\n    }\r\n\r\n\r\n    // Mapping\r\n\r\n    // Owner of list auction \r\n    mapping(address => Auction[]) private ownerToListAuction;\r\n    // a uuid to manage an Auction\r\n    mapping(uint256 => Auction) private uuidToAuction;\r\n\r\n\r\n    // List Auction\r\n    Auction[] private listAuction;\r\n\r\n    // Create a new auction\r\n    function createNewAuction(\r\n        address nftContract,\r\n        uint256 tokenId,\r\n        uint256 initialPrice,\r\n        uint256 openBiddingTime,\r\n        uint256 closeBiddingTime \r\n    ) \r\n    public\r\n    isOwnerOfNFT(nftContract, tokenId, msg.sender)\r\n    {\r\n        // checking whether msg.sender is the owner of this NFT: isOwnerOfNFT\r\n        // IERC721 nft = IERC721(nftContract);\r\n        // address owner = nft.ownerOf(tokenId);\r\n        \r\n        // require(msg.sender == owner, \"The spender is not owner of this NFT!!!\");\r\n\r\n        // create a new auction\r\n        Auction memory auction = Auction(\r\n                            nftContract,\r\n                            tokenId,\r\n                            initialPrice,\r\n                            openBiddingTime,\r\n                            closeBiddingTime\r\n                        );\r\n\r\n        // add new auction item to listAuction\r\n        ownerToListAuction[msg.sender].push(auction);\r\n\r\n        // Assign a new auction to uuid\r\n        uint256 uuid = getUniqueNumber();\r\n        uuidToAuction[uuid] = auction;\r\n\r\n        // // send NFT from msg.sender (owner wallet) to smart contract\r\n        // IERC721(nftContract).transferFrom(\r\n        //     msg.sender,\r\n        //     address(this),\r\n        //     tokenId\r\n        // );\r\n\r\n        // // checking that send NFT is succeed?\r\n        // require(\r\n        //     IERC721(nftContract).ownerOf(tokenId) == address(this), \r\n        //     \"Failed to transfer NFT from msg.sender to smart contract\"\r\n        // );\r\n\r\n        // emit \r\n        emit AuctionInitialized(\r\n            msg.sender,\r\n            nftContract,\r\n            tokenId,\r\n            initialPrice,\r\n            openBiddingTime,\r\n            closeBiddingTime,\r\n            uuid\r\n        );\r\n    }\r\n\r\n    uint256 counter;\r\n    mapping(uint256 => bool) usedValues;\r\n\r\n    function getUniqueNumber() internal returns(uint256) {\r\n        uint256 randomValue = uint256(keccak256(abi.encodePacked(block.timestamp, block.difficulty, msg.sender, counter)));\r\n        uint256 uniqueNumber = randomValue % 1000000; // limit to 6 digits\r\n        while (usedValues[uniqueNumber]) {\r\n            counter++;\r\n            randomValue = uint256(keccak256(abi.encodePacked(block.timestamp, block.difficulty, msg.sender, counter)));\r\n            uniqueNumber = randomValue % 1000000;\r\n        }\r\n        usedValues[uniqueNumber] = true;\r\n        counter++;\r\n        return uniqueNumber;\r\n    }\r\n\r\n\r\n    // Cancel an auction\r\n\r\n\r\n    // Join an auction to bid\r\n\r\n    struct BidderInfor {\r\n        address owner;\r\n        uint256 offeredPrice;\r\n    }\r\n\r\n    // this mapping to manage a list contains address and offered price of bidder each bidding time.\r\n    mapping(uint256 => BidderInfor[]) private uuidToOwnerAndOfferedPrice;\r\n\r\n    function joinAuction(\r\n        uint256 uuid,\r\n        uint256 offeredPrice\r\n    ) public payable\r\n    isCorrectAuctionTime(uuid) \r\n    {\r\n        // checking that offeredPrice is valid\r\n        Auction memory auction = uuidToAuction[uuid];\r\n        require(offeredPrice > auction.initialPrice, \"Offered Price is invalid!!!\");\r\n\r\n        // transfer BQK token from bidder's wallet to smart contract.\r\n        IERC20(BQKContract).transferFrom(\r\n            msg.sender,\r\n            address(this),\r\n            offeredPrice * (10**18)\r\n        );\r\n\r\n\r\n        // create new BidderInfor and push it to list\r\n        BidderInfor memory bi = BidderInfor(\r\n            msg.sender,\r\n            offeredPrice\r\n        );\r\n\r\n        uuidToOwnerAndOfferedPrice[uuid].push(bi);\r\n\r\n    }\r\n\r\n    // function to get the winner of the auction with its uuid\r\n    function getTheWinnerOfAuction(uint256 uuid) internal view returns(address) {\r\n        BidderInfor[] memory bidderInforList = uuidToOwnerAndOfferedPrice[uuid];\r\n\r\n        uint256 len = bidderInforList.length;\r\n\r\n        for (uint256 i = 0; i < len - 1; i++) {\r\n            for (uint256 j = 0; j < len - 1 - i; j++) {\r\n                if (bidderInforList[j].offeredPrice > bidderInforList[j+1].offeredPrice) {\r\n                    uint256 temp = bidderInforList[j].offeredPrice;\r\n                    bidderInforList[j].offeredPrice = bidderInforList[j+1].offeredPrice;\r\n                    bidderInforList[j+1].offeredPrice = temp;\r\n                }\r\n            }\r\n        }\r\n\r\n        return bidderInforList[len-1].owner;\r\n    }\r\n\r\n    \r\n\r\n\r\n\r\n\r\n\r\n\r\n    // Set up event to smart contract\r\n    event AuctionInitialized(\r\n        address ownerOfAuction,\r\n        address nftContract,\r\n        uint256 tokenId,\r\n        uint256 initialPrice,\r\n        uint256 openBiddingTime,\r\n        uint256 closeBiddingTime,\r\n        uint256 uuid\r\n    );\r\n\r\n\r\n\r\n\r\n\r\n\r\n\r\n    // Modifier\r\n    modifier isOwnerOfNFT(\r\n        address nftContract,\r\n        uint256 tokenId,\r\n        address spender\r\n    ) {\r\n        IERC721 nft = IERC721(nftContract);\r\n        address owner = nft.ownerOf(tokenId);\r\n        if (spender != owner) {\r\n            revert(\"The spender is not owner of this NFT!!!\");\r\n        }\r\n        _;\r\n    }\r\n\r\n    modifier isCorrectAuctionTime(\r\n        uint256 uuid\r\n    ) {\r\n        Auction memory auc = uuidToAuction[uuid];\r\n\r\n        uint256 openBiddingTime = auc.openBiddingTime;\r\n        uint256 closeBiddingTime = auc.closeBiddingTime;\r\n\r\n        // execute compare open and close time with current time \r\n        uint256 pointTimestamp = block.timestamp;\r\n\r\n        require(\r\n            (pointTimestamp > openBiddingTime) && (pointTimestamp < closeBiddingTime),\r\n            \"Time Over!!! Please checking Auction schedule again!\"\r\n        );\r\n        _;\r\n    }\r\n\r\n\r\n\r\n\r\n\r\n\r\n\r\n    // Get function\r\n\r\n    // get total Auction\r\n\r\n    // get List ActiveAuction\r\n\r\n    // get List EndedAuction\r\n\r\n    //get List UpcomingAuction\r\n\r\n    // get status Auction\r\n    function getStatusAuction(uint256 uuid) public view returns(string memory) {\r\n        Auction memory auc = uuidToAuction[uuid];\r\n\r\n        uint256 openBiddingTime = auc.openBiddingTime;\r\n        uint256 closeBiddingTime = auc.closeBiddingTime;\r\n\r\n        // execute compare open and close time with current time \r\n        uint256 pointTimestamp = block.timestamp;\r\n\r\n        if (pointTimestamp < openBiddingTime) {\r\n            return UPCOMING_AUCTION;\r\n        } else if (pointTimestamp > closeBiddingTime) {\r\n            return ENDED_AUCTION;\r\n        } else {\r\n            return ACTIVE_AUCTION;\r\n        }\r\n    }\r\n\r\n    // get list auction of spender\r\n    function getListAuctionOfSpender(address spender) public view returns(Auction[] memory) {\r\n        return ownerToListAuction[spender];\r\n    }\r\n\r\n    // get an auction from uuid\r\n    function getAuctionFromUuid(uint256 uuid) public view returns(Auction memory) {\r\n        return uuidToAuction[uuid];\r\n    }\r\n\r\n\r\n\r\n\r\n}",
  "sourcePath": "D:\\UET\\Blockchain_INT3231E\\nft-auction\\contracts\\BidNow.sol",
  "compiler": {
    "name": "solc",
    "version": "0.8.17+commit.8df45f5f.Emscripten.clang"
  },
  "schemaVersion": "3.4.10",
  "updatedAt": "2023-03-27T07:38:44.600Z",
  "devdoc": {
    "kind": "dev",
    "methods": {},
    "version": 1
  },
  "userdoc": {
    "kind": "user",
    "methods": {},
    "version": 1
  }
}