{
  "contractName": "HoBINFT",
  "abi": [
    {
      "inputs": [],
      "stateMutability": "nonpayable",
      "type": "constructor"
    },
    {
      "anonymous": false,
      "inputs": [
        {
          "indexed": true,
          "internalType": "address",
          "name": "owner",
          "type": "address"
        },
        {
          "indexed": true,
          "internalType": "address",
          "name": "approved",
          "type": "address"
        },
        {
          "indexed": true,
          "internalType": "uint256",
          "name": "tokenId",
          "type": "uint256"
        }
      ],
      "name": "Approval",
      "type": "event"
    },
    {
      "anonymous": false,
      "inputs": [
        {
          "indexed": true,
          "internalType": "address",
          "name": "owner",
          "type": "address"
        },
        {
          "indexed": true,
          "internalType": "address",
          "name": "operator",
          "type": "address"
        },
        {
          "indexed": false,
          "internalType": "bool",
          "name": "approved",
          "type": "bool"
        }
      ],
      "name": "ApprovalForAll",
      "type": "event"
    },
    {
      "anonymous": false,
      "inputs": [
        {
          "indexed": true,
          "internalType": "address",
          "name": "from",
          "type": "address"
        },
        {
          "indexed": true,
          "internalType": "address",
          "name": "to",
          "type": "address"
        },
        {
          "indexed": true,
          "internalType": "uint256",
          "name": "tokenId",
          "type": "uint256"
        }
      ],
      "name": "Transfer",
      "type": "event"
    },
    {
      "inputs": [
        {
          "internalType": "address",
          "name": "to",
          "type": "address"
        },
        {
          "internalType": "uint256",
          "name": "tokenId",
          "type": "uint256"
        }
      ],
      "name": "approve",
      "outputs": [],
      "stateMutability": "nonpayable",
      "type": "function"
    },
    {
      "inputs": [
        {
          "internalType": "address",
          "name": "owner",
          "type": "address"
        }
      ],
      "name": "balanceOf",
      "outputs": [
        {
          "internalType": "uint256",
          "name": "",
          "type": "uint256"
        }
      ],
      "stateMutability": "view",
      "type": "function"
    },
    {
      "inputs": [
        {
          "internalType": "uint256",
          "name": "tokenId",
          "type": "uint256"
        }
      ],
      "name": "getApproved",
      "outputs": [
        {
          "internalType": "address",
          "name": "",
          "type": "address"
        }
      ],
      "stateMutability": "view",
      "type": "function"
    },
    {
      "inputs": [
        {
          "internalType": "address",
          "name": "owner",
          "type": "address"
        },
        {
          "internalType": "address",
          "name": "operator",
          "type": "address"
        }
      ],
      "name": "isApprovedForAll",
      "outputs": [
        {
          "internalType": "bool",
          "name": "",
          "type": "bool"
        }
      ],
      "stateMutability": "view",
      "type": "function"
    },
    {
      "inputs": [],
      "name": "name",
      "outputs": [
        {
          "internalType": "string",
          "name": "",
          "type": "string"
        }
      ],
      "stateMutability": "view",
      "type": "function"
    },
    {
      "inputs": [
        {
          "internalType": "uint256",
          "name": "tokenId",
          "type": "uint256"
        }
      ],
      "name": "ownerOf",
      "outputs": [
        {
          "internalType": "address",
          "name": "",
          "type": "address"
        }
      ],
      "stateMutability": "view",
      "type": "function"
    },
    {
      "inputs": [
        {
          "internalType": "address",
          "name": "from",
          "type": "address"
        },
        {
          "internalType": "address",
          "name": "to",
          "type": "address"
        },
        {
          "internalType": "uint256",
          "name": "tokenId",
          "type": "uint256"
        }
      ],
      "name": "safeTransferFrom",
      "outputs": [],
      "stateMutability": "nonpayable",
      "type": "function"
    },
    {
      "inputs": [
        {
          "internalType": "address",
          "name": "from",
          "type": "address"
        },
        {
          "internalType": "address",
          "name": "to",
          "type": "address"
        },
        {
          "internalType": "uint256",
          "name": "tokenId",
          "type": "uint256"
        },
        {
          "internalType": "bytes",
          "name": "data",
          "type": "bytes"
        }
      ],
      "name": "safeTransferFrom",
      "outputs": [],
      "stateMutability": "nonpayable",
      "type": "function"
    },
    {
      "inputs": [
        {
          "internalType": "address",
          "name": "operator",
          "type": "address"
        },
        {
          "internalType": "bool",
          "name": "approved",
          "type": "bool"
        }
      ],
      "name": "setApprovalForAll",
      "outputs": [],
      "stateMutability": "nonpayable",
      "type": "function"
    },
    {
      "inputs": [
        {
          "internalType": "bytes4",
          "name": "interfaceId",
          "type": "bytes4"
        }
      ],
      "name": "supportsInterface",
      "outputs": [
        {
          "internalType": "bool",
          "name": "",
          "type": "bool"
        }
      ],
      "stateMutability": "view",
      "type": "function"
    },
    {
      "inputs": [],
      "name": "symbol",
      "outputs": [
        {
          "internalType": "string",
          "name": "",
          "type": "string"
        }
      ],
      "stateMutability": "view",
      "type": "function"
    },
    {
      "inputs": [
        {
          "internalType": "address",
          "name": "from",
          "type": "address"
        },
        {
          "internalType": "address",
          "name": "to",
          "type": "address"
        },
        {
          "internalType": "uint256",
          "name": "tokenId",
          "type": "uint256"
        }
      ],
      "name": "transferFrom",
      "outputs": [],
      "stateMutability": "nonpayable",
      "type": "function"
    },
    {
      "inputs": [
        {
          "internalType": "address",
          "name": "bidNowContract",
          "type": "address"
        },
        {
          "internalType": "uint256",
          "name": "tokenId",
          "type": "uint256"
        },
        {
          "internalType": "string",
          "name": "ipfsHash",
          "type": "string"
        }
      ],
      "name": "mintAndApprovalNFT",
      "outputs": [],
      "stateMutability": "nonpayable",
      "type": "function"
    },
    {
      "inputs": [
        {
          "internalType": "uint256",
          "name": "tokenId",
          "type": "uint256"
        }
      ],
      "name": "tokenURI",
      "outputs": [
        {
          "internalType": "string",
          "name": "",
          "type": "string"
        }
      ],
      "stateMutability": "view",
      "type": "function"
    }
  ],
  "bytecode": "0x60806040526040518060400160405280601081526020017f68747470733a2f2f697066732e696f2f00000000000000000000000000000000815250600790816200004a91906200036b565b503480156200005857600080fd5b506040518060400160405280600781526020017f486f42694e4654000000000000000000000000000000000000000000000000008152506040518060400160405280600581526020017f48424e46540000000000000000000000000000000000000000000000000000008152508160009081620000d691906200036b565b508060019081620000e891906200036b565b50505062000452565b600081519050919050565b7f4e487b7100000000000000000000000000000000000000000000000000000000600052604160045260246000fd5b7f4e487b7100000000000000000000000000000000000000000000000000000000600052602260045260246000fd5b600060028204905060018216806200017357607f821691505b6020821081036200018957620001886200012b565b5b50919050565b60008190508160005260206000209050919050565b60006020601f8301049050919050565b600082821b905092915050565b600060088302620001f37fffffffffffffffffffffffffffffffffffffffffffffffffffffffffffffffff82620001b4565b620001ff8683620001b4565b95508019841693508086168417925050509392505050565b6000819050919050565b6000819050919050565b60006200024c62000246620002408462000217565b62000221565b62000217565b9050919050565b6000819050919050565b62000268836200022b565b62000280620002778262000253565b848454620001c1565b825550505050565b600090565b6200029762000288565b620002a48184846200025d565b505050565b5b81811015620002cc57620002c06000826200028d565b600181019050620002aa565b5050565b601f8211156200031b57620002e5816200018f565b620002f084620001a4565b8101602085101562000300578190505b620003186200030f85620001a4565b830182620002a9565b50505b505050565b600082821c905092915050565b6000620003406000198460080262000320565b1980831691505092915050565b60006200035b83836200032d565b9150826002028217905092915050565b6200037682620000f1565b67ffffffffffffffff811115620003925762000391620000fc565b5b6200039e82546200015a565b620003ab828285620002d0565b600060209050601f831160018114620003e35760008415620003ce578287015190505b620003da85826200034d565b8655506200044a565b601f198416620003f3866200018f565b60005b828110156200041d57848901518255600182019150602085019450602081019050620003f6565b868310156200043d578489015162000439601f8916826200032d565b8355505b6001600288020188555050505b505050505050565b612d8480620004626000396000f3fe608060405234801561001057600080fd5b50600436106100ea5760003560e01c806370a082311161008c578063b88d4fde11610066578063b88d4fde1461025b578063c87b56dd14610277578063e985e9c5146102a7578063f06b373e146102d7576100ea565b806370a08231146101f157806395d89b4114610221578063a22cb4651461023f576100ea565b8063095ea7b3116100c8578063095ea7b31461016d57806323b872dd1461018957806342842e0e146101a55780636352211e146101c1576100ea565b806301ffc9a7146100ef57806306fdde031461011f578063081812fc1461013d575b600080fd5b61010960048036038101906101049190611acb565b6102f3565b6040516101169190611b13565b60405180910390f35b6101276103d5565b6040516101349190611bbe565b60405180910390f35b61015760048036038101906101529190611c16565b610467565b6040516101649190611c84565b60405180910390f35b61018760048036038101906101829190611ccb565b6104ad565b005b6101a3600480360381019061019e9190611d0b565b6105c4565b005b6101bf60048036038101906101ba9190611d0b565b610624565b005b6101db60048036038101906101d69190611c16565b610644565b6040516101e89190611c84565b60405180910390f35b61020b60048036038101906102069190611d5e565b6106ca565b6040516102189190611d9a565b60405180910390f35b610229610781565b6040516102369190611bbe565b60405180910390f35b61025960048036038101906102549190611de1565b610813565b005b61027560048036038101906102709190611f56565b610829565b005b610291600480360381019061028c9190611c16565b61088b565b60405161029e9190611bbe565b60405180910390f35b6102c160048036038101906102bc9190611fd9565b61089d565b6040516102ce9190611b13565b60405180910390f35b6102f160048036038101906102ec91906120ba565b610931565b005b60007f80ac58cd000000000000000000000000000000000000000000000000000000007bffffffffffffffffffffffffffffffffffffffffffffffffffffffff1916827bffffffffffffffffffffffffffffffffffffffffffffffffffffffff191614806103be57507f5b5e139f000000000000000000000000000000000000000000000000000000007bffffffffffffffffffffffffffffffffffffffffffffffffffffffff1916827bffffffffffffffffffffffffffffffffffffffffffffffffffffffff1916145b806103ce57506103cd8261095e565b5b9050919050565b6060600080546103e490612158565b80601f016020809104026020016040519081016040528092919081815260200182805461041090612158565b801561045d5780601f106104325761010080835404028352916020019161045d565b820191906000526020600020905b81548152906001019060200180831161044057829003601f168201915b5050505050905090565b6000610472826109c8565b6004600083815260200190815260200160002060009054906101000a900473ffffffffffffffffffffffffffffffffffffffff169050919050565b60006104b882610644565b90508073ffffffffffffffffffffffffffffffffffffffff168373ffffffffffffffffffffffffffffffffffffffff1603610528576040517f08c379a000000000000000000000000000000000000000000000000000000000815260040161051f906121fb565b60405180910390fd5b8073ffffffffffffffffffffffffffffffffffffffff16610547610a13565b73ffffffffffffffffffffffffffffffffffffffff161480610576575061057581610570610a13565b61089d565b5b6105b5576040517f08c379a00000000000000000000000000000000000000000000000000000000081526004016105ac9061228d565b60405180910390fd5b6105bf8383610a1b565b505050565b6105d56105cf610a13565b82610ad4565b610614576040517f08c379a000000000000000000000000000000000000000000000000000000000815260040161060b9061231f565b60405180910390fd5b61061f838383610b69565b505050565b61063f83838360405180602001604052806000815250610829565b505050565b60008061065083610e62565b9050600073ffffffffffffffffffffffffffffffffffffffff168173ffffffffffffffffffffffffffffffffffffffff16036106c1576040517f08c379a00000000000000000000000000000000000000000000000000000000081526004016106b89061238b565b60405180910390fd5b80915050919050565b60008073ffffffffffffffffffffffffffffffffffffffff168273ffffffffffffffffffffffffffffffffffffffff160361073a576040517f08c379a00000000000000000000000000000000000000000000000000000000081526004016107319061241d565b60405180910390fd5b600360008373ffffffffffffffffffffffffffffffffffffffff1673ffffffffffffffffffffffffffffffffffffffff168152602001908152602001600020549050919050565b60606001805461079090612158565b80601f01602080910402602001604051908101604052809291908181526020018280546107bc90612158565b80156108095780601f106107de57610100808354040283529160200191610809565b820191906000526020600020905b8154815290600101906020018083116107ec57829003601f168201915b5050505050905090565b61082561081e610a13565b8383610e9f565b5050565b61083a610834610a13565b83610ad4565b610879576040517f08c379a00000000000000000000000000000000000000000000000000000000081526004016108709061231f565b60405180910390fd5b6108858484848461100b565b50505050565b606061089682611067565b9050919050565b6000600560008473ffffffffffffffffffffffffffffffffffffffff1673ffffffffffffffffffffffffffffffffffffffff16815260200190815260200160002060008373ffffffffffffffffffffffffffffffffffffffff1673ffffffffffffffffffffffffffffffffffffffff16815260200190815260200160002060009054906101000a900460ff16905092915050565b61093b3383611179565b61094d8261094883611197565b6111c3565b61095933846001610e9f565b505050565b60007f01ffc9a7000000000000000000000000000000000000000000000000000000007bffffffffffffffffffffffffffffffffffffffffffffffffffffffff1916827bffffffffffffffffffffffffffffffffffffffffffffffffffffffff1916149050919050565b6109d181611230565b610a10576040517f08c379a0000000000000000000000000000000000000000000000000000000008152600401610a079061238b565b60405180910390fd5b50565b600033905090565b816004600083815260200190815260200160002060006101000a81548173ffffffffffffffffffffffffffffffffffffffff021916908373ffffffffffffffffffffffffffffffffffffffff160217905550808273ffffffffffffffffffffffffffffffffffffffff16610a8e83610644565b73ffffffffffffffffffffffffffffffffffffffff167f8c5be1e5ebec7d5bd14f71427d1e84f3dd0314c0f7b2291e5b200ac8c7c3b92560405160405180910390a45050565b600080610ae083610644565b90508073ffffffffffffffffffffffffffffffffffffffff168473ffffffffffffffffffffffffffffffffffffffff161480610b225750610b21818561089d565b5b80610b6057508373ffffffffffffffffffffffffffffffffffffffff16610b4884610467565b73ffffffffffffffffffffffffffffffffffffffff16145b91505092915050565b8273ffffffffffffffffffffffffffffffffffffffff16610b8982610644565b73ffffffffffffffffffffffffffffffffffffffff1614610bdf576040517f08c379a0000000000000000000000000000000000000000000000000000000008152600401610bd6906124af565b60405180910390fd5b600073ffffffffffffffffffffffffffffffffffffffff168273ffffffffffffffffffffffffffffffffffffffff1603610c4e576040517f08c379a0000000000000000000000000000000000000000000000000000000008152600401610c4590612541565b60405180910390fd5b610c5b8383836001611271565b8273ffffffffffffffffffffffffffffffffffffffff16610c7b82610644565b73ffffffffffffffffffffffffffffffffffffffff1614610cd1576040517f08c379a0000000000000000000000000000000000000000000000000000000008152600401610cc8906124af565b60405180910390fd5b6004600082815260200190815260200160002060006101000a81549073ffffffffffffffffffffffffffffffffffffffff02191690556001600360008573ffffffffffffffffffffffffffffffffffffffff1673ffffffffffffffffffffffffffffffffffffffff168152602001908152602001600020600082825403925050819055506001600360008473ffffffffffffffffffffffffffffffffffffffff1673ffffffffffffffffffffffffffffffffffffffff16815260200190815260200160002060008282540192505081905550816002600083815260200190815260200160002060006101000a81548173ffffffffffffffffffffffffffffffffffffffff021916908373ffffffffffffffffffffffffffffffffffffffff160217905550808273ffffffffffffffffffffffffffffffffffffffff168473ffffffffffffffffffffffffffffffffffffffff167fddf252ad1be2c89b69c2b068fc378daa952ba7f163c4a11628f55a4df523b3ef60405160405180910390a4610e5d8383836001611397565b505050565b60006002600083815260200190815260200160002060009054906101000a900473ffffffffffffffffffffffffffffffffffffffff169050919050565b8173ffffffffffffffffffffffffffffffffffffffff168373ffffffffffffffffffffffffffffffffffffffff1603610f0d576040517f08c379a0000000000000000000000000000000000000000000000000000000008152600401610f04906125ad565b60405180910390fd5b80600560008573ffffffffffffffffffffffffffffffffffffffff1673ffffffffffffffffffffffffffffffffffffffff16815260200190815260200160002060008473ffffffffffffffffffffffffffffffffffffffff1673ffffffffffffffffffffffffffffffffffffffff16815260200190815260200160002060006101000a81548160ff0219169083151502179055508173ffffffffffffffffffffffffffffffffffffffff168373ffffffffffffffffffffffffffffffffffffffff167f17307eab39ab6107e8899845ad3d59bd9653f200f220920489ca2b5937696c3183604051610ffe9190611b13565b60405180910390a3505050565b611016848484610b69565b6110228484848461139d565b611061576040517f08c379a00000000000000000000000000000000000000000000000000000000081526004016110589061263f565b60405180910390fd5b50505050565b6060611072826109c8565b600060066000848152602001908152602001600020805461109290612158565b80601f01602080910402602001604051908101604052809291908181526020018280546110be90612158565b801561110b5780601f106110e05761010080835404028352916020019161110b565b820191906000526020600020905b8154815290600101906020018083116110ee57829003601f168201915b50505050509050600061111c611524565b90506000815103611131578192505050611174565b60008251111561116657808260405160200161114e92919061269b565b60405160208183030381529060405292505050611174565b61116f8461153b565b925050505b919050565b6111938282604051806020016040528060008152506115a3565b5050565b60606007826040516020016111ad9291906127a3565b6040516020818303038152906040529050919050565b6111cc82611230565b61120b576040517f08c379a000000000000000000000000000000000000000000000000000000000815260040161120290612844565b60405180910390fd5b8060066000848152602001908152602001600020908161122b91906129fb565b505050565b60008073ffffffffffffffffffffffffffffffffffffffff1661125283610e62565b73ffffffffffffffffffffffffffffffffffffffff1614159050919050565b600181111561139157600073ffffffffffffffffffffffffffffffffffffffff168473ffffffffffffffffffffffffffffffffffffffff16146113055780600360008673ffffffffffffffffffffffffffffffffffffffff1673ffffffffffffffffffffffffffffffffffffffff16815260200190815260200160002060008282546112fd9190612afc565b925050819055505b600073ffffffffffffffffffffffffffffffffffffffff168373ffffffffffffffffffffffffffffffffffffffff16146113905780600360008573ffffffffffffffffffffffffffffffffffffffff1673ffffffffffffffffffffffffffffffffffffffff16815260200190815260200160002060008282546113889190612b30565b925050819055505b5b50505050565b50505050565b60006113be8473ffffffffffffffffffffffffffffffffffffffff166115fe565b15611517578373ffffffffffffffffffffffffffffffffffffffff1663150b7a026113e7610a13565b8786866040518563ffffffff1660e01b81526004016114099493929190612bb9565b6020604051808303816000875af192505050801561144557506040513d601f19601f820116820180604052508101906114429190612c1a565b60015b6114c7573d8060008114611475576040519150601f19603f3d011682016040523d82523d6000602084013e61147a565b606091505b5060008151036114bf576040517f08c379a00000000000000000000000000000000000000000000000000000000081526004016114b69061263f565b60405180910390fd5b805181602001fd5b63150b7a0260e01b7bffffffffffffffffffffffffffffffffffffffffffffffffffffffff1916817bffffffffffffffffffffffffffffffffffffffffffffffffffffffff19161491505061151c565b600190505b949350505050565b606060405180602001604052806000815250905090565b6060611546826109c8565b6000611550611524565b90506000815111611570576040518060200160405280600081525061159b565b8061157a84611621565b60405160200161158b92919061269b565b6040516020818303038152906040525b915050919050565b6115ad83836116ef565b6115ba600084848461139d565b6115f9576040517f08c379a00000000000000000000000000000000000000000000000000000000081526004016115f09061263f565b60405180910390fd5b505050565b6000808273ffffffffffffffffffffffffffffffffffffffff163b119050919050565b6060600060016116308461190c565b01905060008167ffffffffffffffff81111561164f5761164e611e2b565b5b6040519080825280601f01601f1916602001820160405280156116815781602001600182028036833780820191505090505b509050600082602001820190505b6001156116e4578080600190039150507f3031323334353637383961626364656600000000000000000000000000000000600a86061a8153600a85816116d8576116d7612c47565b5b0494506000850361168f575b819350505050919050565b600073ffffffffffffffffffffffffffffffffffffffff168273ffffffffffffffffffffffffffffffffffffffff160361175e576040517f08c379a000000000000000000000000000000000000000000000000000000000815260040161175590612cc2565b60405180910390fd5b61176781611230565b156117a7576040517f08c379a000000000000000000000000000000000000000000000000000000000815260040161179e90612d2e565b60405180910390fd5b6117b5600083836001611271565b6117be81611230565b156117fe576040517f08c379a00000000000000000000000000000000000000000000000000000000081526004016117f590612d2e565b60405180910390fd5b6001600360008473ffffffffffffffffffffffffffffffffffffffff1673ffffffffffffffffffffffffffffffffffffffff16815260200190815260200160002060008282540192505081905550816002600083815260200190815260200160002060006101000a81548173ffffffffffffffffffffffffffffffffffffffff021916908373ffffffffffffffffffffffffffffffffffffffff160217905550808273ffffffffffffffffffffffffffffffffffffffff16600073ffffffffffffffffffffffffffffffffffffffff167fddf252ad1be2c89b69c2b068fc378daa952ba7f163c4a11628f55a4df523b3ef60405160405180910390a4611908600083836001611397565b5050565b600080600090507a184f03e93ff9f4daa797ed6e38ed64bf6a1f010000000000000000831061196a577a184f03e93ff9f4daa797ed6e38ed64bf6a1f01000000000000000083816119605761195f612c47565b5b0492506040810190505b6d04ee2d6d415b85acef810000000083106119a7576d04ee2d6d415b85acef8100000000838161199d5761199c612c47565b5b0492506020810190505b662386f26fc1000083106119d657662386f26fc1000083816119cc576119cb612c47565b5b0492506010810190505b6305f5e10083106119ff576305f5e10083816119f5576119f4612c47565b5b0492506008810190505b6127108310611a24576127108381611a1a57611a19612c47565b5b0492506004810190505b60648310611a475760648381611a3d57611a3c612c47565b5b0492506002810190505b600a8310611a56576001810190505b80915050919050565b6000604051905090565b600080fd5b600080fd5b60007fffffffff0000000000000000000000000000000000000000000000000000000082169050919050565b611aa881611a73565b8114611ab357600080fd5b50565b600081359050611ac581611a9f565b92915050565b600060208284031215611ae157611ae0611a69565b5b6000611aef84828501611ab6565b91505092915050565b60008115159050919050565b611b0d81611af8565b82525050565b6000602082019050611b286000830184611b04565b92915050565b600081519050919050565b600082825260208201905092915050565b60005b83811015611b68578082015181840152602081019050611b4d565b60008484015250505050565b6000601f19601f8301169050919050565b6000611b9082611b2e565b611b9a8185611b39565b9350611baa818560208601611b4a565b611bb381611b74565b840191505092915050565b60006020820190508181036000830152611bd88184611b85565b905092915050565b6000819050919050565b611bf381611be0565b8114611bfe57600080fd5b50565b600081359050611c1081611bea565b92915050565b600060208284031215611c2c57611c2b611a69565b5b6000611c3a84828501611c01565b91505092915050565b600073ffffffffffffffffffffffffffffffffffffffff82169050919050565b6000611c6e82611c43565b9050919050565b611c7e81611c63565b82525050565b6000602082019050611c996000830184611c75565b92915050565b611ca881611c63565b8114611cb357600080fd5b50565b600081359050611cc581611c9f565b92915050565b60008060408385031215611ce257611ce1611a69565b5b6000611cf085828601611cb6565b9250506020611d0185828601611c01565b9150509250929050565b600080600060608486031215611d2457611d23611a69565b5b6000611d3286828701611cb6565b9350506020611d4386828701611cb6565b9250506040611d5486828701611c01565b9150509250925092565b600060208284031215611d7457611d73611a69565b5b6000611d8284828501611cb6565b91505092915050565b611d9481611be0565b82525050565b6000602082019050611daf6000830184611d8b565b92915050565b611dbe81611af8565b8114611dc957600080fd5b50565b600081359050611ddb81611db5565b92915050565b60008060408385031215611df857611df7611a69565b5b6000611e0685828601611cb6565b9250506020611e1785828601611dcc565b9150509250929050565b600080fd5b600080fd5b7f4e487b7100000000000000000000000000000000000000000000000000000000600052604160045260246000fd5b611e6382611b74565b810181811067ffffffffffffffff82111715611e8257611e81611e2b565b5b80604052505050565b6000611e95611a5f565b9050611ea18282611e5a565b919050565b600067ffffffffffffffff821115611ec157611ec0611e2b565b5b611eca82611b74565b9050602081019050919050565b82818337600083830152505050565b6000611ef9611ef484611ea6565b611e8b565b905082815260208101848484011115611f1557611f14611e26565b5b611f20848285611ed7565b509392505050565b600082601f830112611f3d57611f3c611e21565b5b8135611f4d848260208601611ee6565b91505092915050565b60008060008060808587031215611f7057611f6f611a69565b5b6000611f7e87828801611cb6565b9450506020611f8f87828801611cb6565b9350506040611fa087828801611c01565b925050606085013567ffffffffffffffff811115611fc157611fc0611a6e565b5b611fcd87828801611f28565b91505092959194509250565b60008060408385031215611ff057611fef611a69565b5b6000611ffe85828601611cb6565b925050602061200f85828601611cb6565b9150509250929050565b600067ffffffffffffffff82111561203457612033611e2b565b5b61203d82611b74565b9050602081019050919050565b600061205d61205884612019565b611e8b565b90508281526020810184848401111561207957612078611e26565b5b612084848285611ed7565b509392505050565b600082601f8301126120a1576120a0611e21565b5b81356120b184826020860161204a565b91505092915050565b6000806000606084860312156120d3576120d2611a69565b5b60006120e186828701611cb6565b93505060206120f286828701611c01565b925050604084013567ffffffffffffffff81111561211357612112611a6e565b5b61211f8682870161208c565b9150509250925092565b7f4e487b7100000000000000000000000000000000000000000000000000000000600052602260045260246000fd5b6000600282049050600182168061217057607f821691505b60208210810361218357612182612129565b5b50919050565b7f4552433732313a20617070726f76616c20746f2063757272656e74206f776e6560008201527f7200000000000000000000000000000000000000000000000000000000000000602082015250565b60006121e5602183611b39565b91506121f082612189565b604082019050919050565b60006020820190508181036000830152612214816121d8565b9050919050565b7f4552433732313a20617070726f76652063616c6c6572206973206e6f7420746f60008201527f6b656e206f776e6572206f7220617070726f76656420666f7220616c6c000000602082015250565b6000612277603d83611b39565b91506122828261221b565b604082019050919050565b600060208201905081810360008301526122a68161226a565b9050919050565b7f4552433732313a2063616c6c6572206973206e6f7420746f6b656e206f776e6560008201527f72206f7220617070726f76656400000000000000000000000000000000000000602082015250565b6000612309602d83611b39565b9150612314826122ad565b604082019050919050565b60006020820190508181036000830152612338816122fc565b9050919050565b7f4552433732313a20696e76616c696420746f6b656e2049440000000000000000600082015250565b6000612375601883611b39565b91506123808261233f565b602082019050919050565b600060208201905081810360008301526123a481612368565b9050919050565b7f4552433732313a2061646472657373207a65726f206973206e6f74206120766160008201527f6c6964206f776e65720000000000000000000000000000000000000000000000602082015250565b6000612407602983611b39565b9150612412826123ab565b604082019050919050565b60006020820190508181036000830152612436816123fa565b9050919050565b7f4552433732313a207472616e736665722066726f6d20696e636f72726563742060008201527f6f776e6572000000000000000000000000000000000000000000000000000000602082015250565b6000612499602583611b39565b91506124a48261243d565b604082019050919050565b600060208201905081810360008301526124c88161248c565b9050919050565b7f4552433732313a207472616e7366657220746f20746865207a65726f2061646460008201527f7265737300000000000000000000000000000000000000000000000000000000602082015250565b600061252b602483611b39565b9150612536826124cf565b604082019050919050565b6000602082019050818103600083015261255a8161251e565b9050919050565b7f4552433732313a20617070726f766520746f2063616c6c657200000000000000600082015250565b6000612597601983611b39565b91506125a282612561565b602082019050919050565b600060208201905081810360008301526125c68161258a565b9050919050565b7f4552433732313a207472616e7366657220746f206e6f6e20455243373231526560008201527f63656976657220696d706c656d656e7465720000000000000000000000000000602082015250565b6000612629603283611b39565b9150612634826125cd565b604082019050919050565b600060208201905081810360008301526126588161261c565b9050919050565b600081905092915050565b600061267582611b2e565b61267f818561265f565b935061268f818560208601611b4a565b80840191505092915050565b60006126a7828561266a565b91506126b3828461266a565b91508190509392505050565b60008190508160005260206000209050919050565b600081546126e181612158565b6126eb818661265f565b94506001821660008114612706576001811461271b5761274e565b60ff198316865281151582028601935061274e565b612724856126bf565b60005b8381101561274657815481890152600182019150602081019050612727565b838801955050505b50505092915050565b7f2f697066732f0000000000000000000000000000000000000000000000000000600082015250565b600061278d60068361265f565b915061279882612757565b600682019050919050565b60006127af82856126d4565b91506127ba82612780565b91506127c6828461266a565b91508190509392505050565b7f45524337323155524953746f726167653a2055524920736574206f66206e6f6e60008201527f6578697374656e7420746f6b656e000000000000000000000000000000000000602082015250565b600061282e602e83611b39565b9150612839826127d2565b604082019050919050565b6000602082019050818103600083015261285d81612821565b9050919050565b60006020601f8301049050919050565b600082821b905092915050565b6000600883026128b17fffffffffffffffffffffffffffffffffffffffffffffffffffffffffffffffff82612874565b6128bb8683612874565b95508019841693508086168417925050509392505050565b6000819050919050565b60006128f86128f36128ee84611be0565b6128d3565b611be0565b9050919050565b6000819050919050565b612912836128dd565b61292661291e826128ff565b848454612881565b825550505050565b600090565b61293b61292e565b612946818484612909565b505050565b5b8181101561296a5761295f600082612933565b60018101905061294c565b5050565b601f8211156129af57612980816126bf565b61298984612864565b81016020851015612998578190505b6129ac6129a485612864565b83018261294b565b50505b505050565b600082821c905092915050565b60006129d2600019846008026129b4565b1980831691505092915050565b60006129eb83836129c1565b9150826002028217905092915050565b612a0482611b2e565b67ffffffffffffffff811115612a1d57612a1c611e2b565b5b612a278254612158565b612a3282828561296e565b600060209050601f831160018114612a655760008415612a53578287015190505b612a5d85826129df565b865550612ac5565b601f198416612a73866126bf565b60005b82811015612a9b57848901518255600182019150602085019450602081019050612a76565b86831015612ab85784890151612ab4601f8916826129c1565b8355505b6001600288020188555050505b505050505050565b7f4e487b7100000000000000000000000000000000000000000000000000000000600052601160045260246000fd5b6000612b0782611be0565b9150612b1283611be0565b9250828203905081811115612b2a57612b29612acd565b5b92915050565b6000612b3b82611be0565b9150612b4683611be0565b9250828201905080821115612b5e57612b5d612acd565b5b92915050565b600081519050919050565b600082825260208201905092915050565b6000612b8b82612b64565b612b958185612b6f565b9350612ba5818560208601611b4a565b612bae81611b74565b840191505092915050565b6000608082019050612bce6000830187611c75565b612bdb6020830186611c75565b612be86040830185611d8b565b8181036060830152612bfa8184612b80565b905095945050505050565b600081519050612c1481611a9f565b92915050565b600060208284031215612c3057612c2f611a69565b5b6000612c3e84828501612c05565b91505092915050565b7f4e487b7100000000000000000000000000000000000000000000000000000000600052601260045260246000fd5b7f4552433732313a206d696e7420746f20746865207a65726f2061646472657373600082015250565b6000612cac602083611b39565b9150612cb782612c76565b602082019050919050565b60006020820190508181036000830152612cdb81612c9f565b9050919050565b7f4552433732313a20746f6b656e20616c7265616479206d696e74656400000000600082015250565b6000612d18601c83611b39565b9150612d2382612ce2565b602082019050919050565b60006020820190508181036000830152612d4781612d0b565b905091905056fea2646970667358221220f7271b99c049412e3fc90c488bf3e01ec32ba02b0a061012a87026df8359639664736f6c63430008130033",
  "immutableReferences": {},
  "source": "// SPDX-License-Identifier: MIT\r\npragma solidity ^0.8.0;\r\n\r\nimport \"@openzeppelin/contracts/token/ERC721/ERC721.sol\";\r\nimport \"@openzeppelin/contracts/token/ERC721/extensions/ERC721URIStorage.sol\";\r\nimport \"@openzeppelin/contracts/utils/Strings.sol\";\r\n\r\ncontract HoBINFT is ERC721, ERC721URIStorage {\r\n    using Strings for uint256;\r\n    // string private ipfsHost = \"https://ipfs.infura.io/\"; // this ipfsHost in infura \r\n    string private ipfsHost = \"https://ipfs.io/\"; // this ipfsHost public\r\n\r\n    constructor() ERC721(\"HoBiNFT\", \"HBNFT\") {}\r\n\r\n    function mintAndApprovalNFT(address bidNowContract, uint256 tokenId, string memory ipfsHash) public {\r\n        _safeMint(msg.sender, tokenId);\r\n        _setTokenURI(tokenId, _generateTokenURI(ipfsHash));\r\n        _setApprovalForAll(msg.sender, bidNowContract, true);\r\n    }\r\n\r\n    function _generateTokenURI(string memory ipfsHash) internal view returns (string memory) {\r\n        return string(abi.encodePacked(ipfsHost, \"/ipfs/\", ipfsHash));\r\n    }\r\n\r\n    function _baseURI() internal pure override returns (string memory) {\r\n        return \"\";\r\n    }\r\n\r\n    function tokenURI(uint256 tokenId) public view override(ERC721, ERC721URIStorage) returns (string memory) {\r\n        return super.tokenURI(tokenId);\r\n    }\r\n\r\n    function _burn(uint256 tokenId) internal override(ERC721, ERC721URIStorage) {\r\n        super._burn(tokenId);\r\n    }\r\n}\r\n",
  "sourcePath": "D:\\UET\\Blockchain_INT3231E\\bidnow-blockchain\\contracts\\HoBiNFT.sol",
  "compiler": {
    "name": "solc",
    "version": "0.8.19+commit.7dd6d404.Emscripten.clang"
  },
  "schemaVersion": "3.4.10",
  "updatedAt": "2023-04-12T17:10:17.832Z",
  "devdoc": {
    "events": {
      "Approval(address,address,uint256)": {
        "details": "Emitted when `owner` enables `approved` to manage the `tokenId` token."
      },
      "ApprovalForAll(address,address,bool)": {
        "details": "Emitted when `owner` enables or disables (`approved`) `operator` to manage all of its assets."
      },
      "Transfer(address,address,uint256)": {
        "details": "Emitted when `tokenId` token is transferred from `from` to `to`."
      }
    },
    "kind": "dev",
    "methods": {
      "approve(address,uint256)": {
        "details": "See {IERC721-approve}."
      },
      "balanceOf(address)": {
        "details": "See {IERC721-balanceOf}."
      },
      "getApproved(uint256)": {
        "details": "See {IERC721-getApproved}."
      },
      "isApprovedForAll(address,address)": {
        "details": "See {IERC721-isApprovedForAll}."
      },
      "name()": {
        "details": "See {IERC721Metadata-name}."
      },
      "ownerOf(uint256)": {
        "details": "See {IERC721-ownerOf}."
      },
      "safeTransferFrom(address,address,uint256)": {
        "details": "See {IERC721-safeTransferFrom}."
      },
      "safeTransferFrom(address,address,uint256,bytes)": {
        "details": "See {IERC721-safeTransferFrom}."
      },
      "setApprovalForAll(address,bool)": {
        "details": "See {IERC721-setApprovalForAll}."
      },
      "supportsInterface(bytes4)": {
        "details": "See {IERC165-supportsInterface}."
      },
      "symbol()": {
        "details": "See {IERC721Metadata-symbol}."
      },
      "transferFrom(address,address,uint256)": {
        "details": "See {IERC721-transferFrom}."
      }
    },
    "version": 1
  },
  "userdoc": {
    "kind": "user",
    "methods": {},
    "version": 1
  }
}